:020000040800F2
:1000000000800120A9470008894500088B450008A9
:100010008D4500088F45000891450008000000004C
:1000200000000000000000000000000093450008F0
:100030009545000800000000974500089945000814
:10004000F9470008F9470008F9470008F947000890
:10005000F9470008F94700089D450008A345000836
:10006000A9450008AF450008F9470008F94700080E
:10007000F9470008F9470008B5450008F9470008A6
:10008000C1450008CD450008F9470008F9470008B8
:10009000F9470008F9470008F9470008D945000862
:1000A000F9470008F9470008F9470008F947000830
:1000B000F9470008F9470008F9470008F947000820
:1000C000F9470008F9470008F9470008F947000810
:1000D000F9470008F9470008F9470008F947000800
:1000E000F9470008F9470008F9470008F9470008F0
:1000F000F9470008F9470008F9470008F9470008E0
:10010000F9470008F9470008F9470008F9470008CF
:10011000F9470008F9470008F9470008F9470008BF
:10012000F9470008F9470008F9470008F9470008AF
:10013000F9470008E1450008F9470008F9470008B9
:10014000F9470008F9470008F9470008F94700088F
:10015000F9470008F9470008F9470008F94700087F
:10016000F9470008F9470008F9470008F94700086F
:10017000F9470008F9470008F947000800000000A7
:08018000F9470008F9470008E7
:1001900010B5054C237833B9044B13B10448AFF3C1
:1001A00000800123237010BDD80000200000000053
:1001B000AC5A000808B5034B1BB103490348AFF321
:1001C000008008BD00000000DC000020AC5A0008E0
:1001D000034613F8012B002AFBD1181A0138704787
:1001E00001F0FF01102A2BDB10F0070F08D010F8E8
:1001F000013B013A8B422DD010F0070F42B3F6D1EC
:10020000F0B441EA012141EA014122F007047FF004
:1002100000070023F0E80256083C85EA010586EA5B
:10022000010685FA47F5A3FA87F586FA47F6A5FA97
:1002300087F68EB9EED1F0BC01F0FF0102F00702A3
:1002400032B110F8013B013A83EA010313B1F8D14E
:100250000020704701387047002D06BF354603382F
:10026000073815F0010F07D1013015F4807F02BF68
:10027000013015F4C03F0130F0BC0138704700BFB9
:1002800081F0004102E000BF83F0004330B54FEA47
:1002900041044FEA430594EA050F08BF90EA020FB4
:1002A0001FBF54EA000C55EA020C7FEA645C7FEA47
:1002B000655C00F0E2804FEA5454D4EB5555B8BF6A
:1002C0006D420CDD2C4480EA020281EA030382EADB
:1002D000000083EA010180EA020281EA0303362D6D
:1002E00088BF30BD11F0004F4FEA01314FF4801C40
:1002F0004CEA113102D0404261EB410113F0004F52
:100300004FEA03334CEA133302D0524263EB430308
:1003100094EA050F00F0A780A4F10104D5F1200EA6
:100320000DDB02FA0EFC22FA05F2801841F1000101
:1003300003FA0EF2801843FA05F359410EE0A5F1D5
:1003400020050EF1200E012A03FA0EFC28BF4CF006
:10035000020C43FA05F3C01851EBE37101F00045BC
:1003600007D54FF0000EDCF1000C7EEB00006EEBC9
:100370000101B1F5801F1BD3B1F5001F0CD3490853
:100380005FEA30004FEA3C0C04F101044FEA4452AA
:1003900012F5800F80F09A80BCF1004F08BF5FEA31
:1003A000500C50F1000041EB045141EA050130BD11
:1003B0005FEA4C0C404141EB010111F4801FA4F1B4
:1003C0000104E9D191F0000F04BF01460020B1FA09
:1003D00081F308BF2033A3F10B03B3F120020CDA41
:1003E0000C3208DD02F1140CC2F10C0201FA0CF01F
:1003F00021FA02F10CE002F11402D8BFC2F1200C84
:1004000001FA02F120FA0CFCDCBF41EA0C01904039
:10041000E41AA2BF01EB0451294330BD6FEA040482
:100420001F3C1CDA0C340EDC04F11404C4F120026D
:1004300020FA04F001FA02F340EA030021FA04F37F
:1004400045EA030130BDC4F10C04C4F1200220FAD6
:1004500002F001FA04F340EA0300294630BD21FA14
:1004600004F0294630BD94F0000F83F4801306BFDA
:1004700081F480110134013D4EE77FEA645C18BFCE
:100480007FEA655C29D094EA050F08BF90EA020F65
:1004900005D054EA000C04BF1946104630BD91EA5D
:1004A000030F1EBF0021002030BD5FEA545C05D160
:1004B0004000494128BF41F0004130BD14F580049F
:1004C0003CBF01F5801130BD01F0004545F0FE4113
:1004D00041F470014FF0000030BD7FEA645C1ABF48
:1004E000194610467FEA655C1CBF0B46024650EA7F
:1004F000013406BF52EA033591EA030F41F40021AB
:1005000030BD00BF90F0000F04BF0021704730B530
:100510004FF4806404F132044FF000054FF0000105
:1005200050E700BF90F0000F04BF0021704730B5C6
:100530004FF4806404F1320410F0004548BF40429B
:100540004FF000013EE700BF42004FEAE2014FEAF0
:1005500031014FEA02701FBF12F07F4393F07F4FCB
:1005600081F06051704792F0000F14BF93F07F4FFD
:10057000704730B54FF4607401F0004521F0004140
:1005800020E700BF50EA010208BF704730B54FF0C6
:1005900000050AE050EA010208BF704730B511F0CB
:1005A000004502D5404261EB41014FF4806404F103
:1005B00032045FEA915C3FF4DCAE4FF003025FEA85
:1005C000DC0C18BF03325FEADC0C18BF033202EB0D
:1005D000DC02C2F1200300FA03FC20FA02F001FA67
:1005E00003FE40EA0E0021FA02F11444C1E600BF06
:1005F00070B54FF0FF0C4CF4E06C1CEA11541DBFB9
:100600001CEA135594EA0C0F95EA0C0F00F0DEF883
:100610002C4481EA030621EA4C5123EA4C5350EA68
:10062000013518BF52EA033541F4801143F48013B9
:1006300038D0A0FB02CE4FF00005E1FB02E506F04A
:100640000042E0FB03E54FF00006E1FB03569CF09F
:10065000000F18BF4EF0010EA4F1FF04B6F5007FA5
:1006600064F5407404D25FEA4E0E6D4146EB060617
:1006700042EAC62141EA55514FEAC52040EA5E50A0
:100680004FEACE2EB4F1FD0C88BFBCF5E06F1ED84A
:10069000BEF1004F08BF5FEA500E50F1000041EB81
:1006A000045170BD06F0004646EA010140EA02002E
:1006B00081EA0301B4EB5C04C2BFD4EB0C0541EA50
:1006C000045170BD41F480114FF0000E013C00F365
:1006D000AB8014F1360FDEBF002001F0004170BD89
:1006E000C4F10004203C35DA0C341BDC04F11404A2
:1006F000C4F1200500FA05F320FA04F001FA05F22E
:1007000040EA020001F0004221F0004110EBD370FA
:1007100021FA04F642EB06015EEA430E08BF20EA26
:10072000D37070BDC4F10C04C4F1200500FA04F3C9
:1007300020FA05F001FA04F240EA020001F000415B
:1007400010EBD37041F100015EEA430E08BF20EACE
:10075000D37070BDC4F1200500FA05F24EEA020E16
:1007600020FA04F301FA05F243EA020321FA04F045
:1007700001F0004121FA04F220EA020000EBD370FC
:100780005EEA430E08BF20EAD37070BD94F0000FFC
:100790000FD101F00046400041EB010111F4801F30
:1007A00008BF013CF7D041EA060195F0000F18BFE1
:1007B000704703F00046520043EB030313F4801F1D
:1007C00008BF013DF7D043EA0603704794EA0C0FD7
:1007D0000CEA135518BF95EA0C0F0CD050EA4106ED
:1007E00018BF52EA4306D1D181EA030101F000416A
:1007F0004FF0000070BD50EA410606BF1046194692
:1008000052EA430619D094EA0C0F02D150EA01369D
:1008100013D195EA0C0F05D152EA03361CBF1046DE
:1008200019460AD181EA030101F0004141F0FE417D
:1008300041F470014FF0000070BD41F0FE4141F401
:10084000780170BD70B54FF0FF0C4CF4E06C1CEA01
:1008500011541DBF1CEA135594EA0C0F95EA0C0FB6
:1008600000F0A7F8A4EB050481EA030E52EA033571
:100870004FEA013100F088804FEA03334FF0805592
:1008800045EA131343EA12634FEA022245EA1115BF
:1008900045EA10654FEA00260EF000419D4208BF70
:1008A000964244F1FD0404F5407402D25B084FEA1D
:1008B0003202B61A65EB03055B084FEA32024FF4C9
:1008C00080104FF4002CB6EB020E75EB030E22BF26
:1008D000B61A754640EA0C005B084FEA3202B6EBE6
:1008E000020E75EB030E22BFB61A754640EA5C0095
:1008F0005B084FEA3202B6EB020E75EB030E22BF25
:10090000B61A754640EA9C005B084FEA3202B6EB25
:10091000020E75EB030E22BFB61A754640EADC00E4
:1009200055EA060E18D04FEA051545EA16754FEA46
:1009300006164FEAC30343EA52734FEAC2025FEA64
:100940001C1CC0D111F4801F0BD141EA00014FF0F3
:1009500000004FF0004CB6E711F4801F04BF0143C4
:100960000020B4F1FD0C88BFBCF5E06F3FF6AFAEE0
:10097000B5EB030C04BFB6EB020C5FEA500C50F170
:10098000000041EB045170BD0EF0004E4EEA1131F3
:1009900014EB5C04C2BFD4EB0C0541EA045170BDFA
:1009A00041F480114FF0000E013C90E645EA060E3E
:1009B0008DE60CEA135594EA0C0F08BF95EA0C0F6C
:1009C0003FF43BAF94EA0C0F0AD150EA01347FF4B4
:1009D00034AF95EA0C0F7FF425AF104619462CE78B
:1009E00095EA0C0F06D152EA03353FF4FDAE1046EE
:1009F000194622E750EA410618BF52EA43067FF43F
:100A0000C5AE50EA41047FF40DAF52EA43057FF4CE
:100A1000EBAE12E74FF0FF3C06E000BF4FF0010CD9
:100A200002E000BF4FF0010C4DF804CD4FEA410C3D
:100A30007FEA6C5C4FEA430C18BF7FEA6C5C1BD00A
:100A400001B050EA410C0CBF52EA430C91EA030F8B
:100A500002BF90EA020F0020704710F1000F91EAE8
:100A6000030F58BF994208BF90422CBFD8176FEAB6
:100A7000E37040F0010070474FEA410C7FEA6C5C84
:100A800002D150EA013C07D14FEA430C7FEA6C5C8B
:100A9000D6D152EA033CD3D05DF8040B704700BFB7
:100AA0008446104662468C461946634600E000BF05
:100AB00001B5FFF7B7FF002848BF10F1000F01BDD7
:100AC0004DF808EDFFF7F4FF0CBF012000205DF8A2
:100AD00008FB00BF4DF808EDFFF7EAFF34BF012027
:100AE00000205DF808FB00BF4DF808EDFFF7E0FFC0
:100AF00094BF012000205DF808FB00BF4DF808ED11
:100B0000FFF7CEFF94BF012000205DF808FB00BF77
:100B10004DF808EDFFF7C4FF34BF012000205DF859
:100B200008FB00BF53B94AB9002908BF00281CBF01
:100B30004FF0FF314FF0FF3000F0B6B9ADF1080CC7
:100B40006DE904CE00F042F8DDF804E0DDE90223AF
:100B500004B0704738B50022002304460D46FFF765
:100B6000B9FF28B920462946BDE8384000F00AB848
:100B7000204605F1004100F005F8404261EB4101DB
:100B800038BD00BFD0B500220E4B06460F46FFF71A
:100B90002FFD00F08BF90446FFF7B4FC00220A4B4E
:100BA000FFF726FD02460B4630463946FFF76CFB41
:100BB00000F07CF92346002242EA00021046194662
:100BC000D0BD00BF0000F03D0000F0412DE9F0472E
:100BD0008C460D460446089E002B51D18A4217468A
:100BE0006DD9B2FA82FEBEF1000F0BD0CEF1200C0F
:100BF00001FA0EF520FA0CFC02FA0EF74CEA050C8D
:100C000000FA0EF44FEA174A250CBCFBFAF81FFA5B
:100C100087F90AFB18CC45EA0C4508FB09F3AB42FF
:100C20000AD9ED1908F1FF3280F02381AB4240F27E
:100C30002081A8F102083D44ED1AA4B2B5FBFAF0F8
:100C40000AFB105544EA054400FB09F9A14509D9FE
:100C5000E41900F1FF3380F00A81A14540F20781D9
:100C600002383C44A4EB090440EA08400021002E6D
:100C700061D024FA0EF4002334607360BDE8F0877D
:100C80008B4207D9002E54D0002186E82100084667
:100C9000BDE8F087B3FA83F1002940F08E80AB42C3
:100CA00002D3824200F2FA80841A65EB0305012028
:100CB000AC46002E3FD086E81010BDE8F08712B990
:100CC0000127B7FBF2F7B7FA87FEBEF1000F34D168
:100CD000EB1B3A0C1FFA87FC0121B3FBF2F8250C41
:100CE00002FB183345EA03450CFB08F3AB4207D976
:100CF000ED1908F1FF3002D2AB4200F2D1808046FC
:100D0000ED1AA3B2B5FBF2F002FB105543EA05441D
:100D10000CFB00FCA44507D9E41900F1FF3302D213
:100D2000A44500F2B8801846A4EB0C0440EA084041
:100D30009DE731463046BDE8F087CEF1200405FA44
:100D40000EF307FA0EF720FA04F83A0C25FA04F429
:100D500048EA0308B4FBF2F14FEA184502FB1144DC
:100D60001FFA87FC45EA044501FB0CF3AB4200FA8D
:100D70000EF409D9ED1901F1FF3080F08A80AB4201
:100D800040F2878002393D44EB1A1FFA88F5B3FB25
:100D9000F2F002FB103345EA034500FB0CF3AB42D3
:100DA00007D9ED1900F1FF386FD2AB426DD9023887
:100DB0003D44EB1A40EA01418FE7C1F1200722FAD6
:100DC00007F88B4005FA01F448EA030320FA07FE0E
:100DD0004FEA134CFD404EEA040EB5FBFCF94FEA16
:100DE0001E440CFB19551FFA83F844EA054509FB1C
:100DF00008F4AC4202FA01F200FA01FA08D9ED183F
:100E000009F1FF3043D2AC4241D9A9F102091D4496
:100E10002D1B1FFA8EFEB5FBFCF00CFB10554EEAA5
:100E2000054400FB08F8A04507D9E41800F1FF3598
:100E300029D2A04527D902381C4440EA0940A4EB36
:100E40000804A0FB02894C45C6464D4615D312D076
:100E500056B1BAEB0E0364EB050404FA07F7CB4076
:100E60001F43CC40376074600021BDE8F08718460E
:100E7000F8E69046E0E6C245EAD2B8EB020E69EB2E
:100E800003050138E4E72846D7E7404691E7814665
:100E9000BEE7014678E702383C4445E7084608E7E4
:100EA000A8F102083D442BE7704700BF4A0011D269
:100EB00012F5001211D20DD56FF47873B3EB6252B4
:100EC0000ED44FEAC12343F0004343EA505323FAC0
:100ED00002F070474FF00000704750EA013002D135
:100EE0004FF0FF3070474FF00000704738B50F4BA0
:100EF0000546186808B9012038BD0D4A4FF47A73C9
:100F0000B3FBF0F31068B0FBF3F000F0A5F8044673
:100F10000028F0D10F2DEED8024629464FF0FF30C1
:100F200000F058F8034B20461D6038BD000000203B
:100F30007000002004000020094A136843F4807305
:100F400010B50320136000F033F80020FFF7CEFF48
:100F5000044618B903F000FB204610BD0124FBE74E
:100F600000200240034A0449136809680B441360D7
:100F7000704700BF4401002000000020014B1868AA
:100F8000704700BF4401002038B50446FFF7F6FF64
:100F9000631C1CBF054B1B68054618BFE418FFF710
:100FA000EDFF401B8442FAD838BD00BF000000208E
:100FB000074AD36823F4E0631B041B0C43F0BF63B0
:100FC000000243F4003300F4E0600343D360704751
:100FD00000ED00E0174B30B5DC68C4F30224C4F127
:100FE0000703251D042B28BF0423062D4FF0010500
:100FF00005FA03F303F1FF338CBF033C00241940CF
:10100000A14005FA04F4013C2240002842EA010212
:101010004FEA0212ADBF00F1604000F00F00064B36
:1010200000F56140B5BFD2B2D2B21A5480F80023A5
:1010300030BD00BF00ED00E014ED00E0002808DB4B
:101040004209012300F01F0003FA00F0014B43F8AE
:101050002200704700E100E00138B0F1807F0AD241
:10106000064B074A5860F02182F82310002007221F
:1010700098601A6070470120704700BF10E000E0E0
:1010800000ED00E0426B036890F84C103AB91A6822
:1010900042F400321A6001291CD102231BE01A68B5
:1010A00022F001021A601A6842F400221A601A68DB
:1010B000032942F001021A60EDD1826B1AB91A6855
:1010C00042F002021A6090F84030012B0CBF436CD2
:1010D00001238364042380F84C307047144B9842FA
:1010E00017D02033984216D02033984215D02033A1
:1010F000984214D02033984213D02033984212D013
:101100002033984211D0203398420CBF0720002092
:10111000704700207047012070470220704703206D
:10112000704704207047052070470620704700BFB5
:101130000060014038B50446002867D00068344D8F
:10114000FFF7CCFF55F82030002B5FD1204602F08E
:10115000C1F9304B1A6801321A601B68012B19D192
:101160002D4B1A6822F080421A601A68A1680A435F
:101170001A601A6822F47F021A602279012A05D1C6
:10118000E1681A68013942EA01421A601A6842F0BD
:1011900000421A6020686169036823F471430360A8
:1011A000236902680B43A1690B431343036003687F
:1011B000216A23F00F030360E36902680B431343C2
:1011C00003608368616AA26A23F45F0383608368B3
:1011D000013A0B4343EA024383604368226B03F006
:1011E00007034360436843EAC203E26A43EA022317
:1011F0004360036843F080030360012384F83430C4
:10120000FFF76CFF45F82040002038BD012038BDB5
:10121000F400002014010020006001407047704776
:1012200038B50446002869D00268354B9A4205D18A
:101230004068012863D0E068012860D000230122C3
:1012400023636264A2642365204602F0DBF823680E
:10125000207C1A6822F400221A60227A012A1A6875
:101260000CBF42F0005222F000521A60627A012A4A
:101270001A680CBF42F4001222F400121A601A68B5
:10128000E56822F4CE4222F008021A60022D01BF66
:101290001A6861690A431A601A6801280CBF42F093
:1012A000100222F010021A60627C012A1A680CBF38
:1012B00042F0200222F020021A605A6922F06342B2
:1012C00002F0FF225A61626A5969013A0A43E169F0
:1012D0000A43216A013942EA01425A616268626343
:1012E000A269A563E2631A6884F8400042F0010233
:1012F0001A60012384F84C30002038BD012038BD2D
:101300000061014090F84C30013BDBB2FD2B10B581
:1013100013D803681C6824F0E06424F480241C6063
:1013200009021C68012A01F07F4108BF41F48021B5
:10133000214319600263002010BD012010BD90F808
:101340004C30013BDBB2FD2B12D8036889B2196126
:10135000002341B990F840204364012A18BF0123BB
:10136000836408467047CA0748BF01334908F0E75D
:1013700001207047F8B5134605460A4651B34BB3F2
:1013800007683968890225D5416B49B9016B39B9BC
:10139000816AC86908B9012B1CD1C969202919D0F3
:1013A00095F84C6006F0FD06012E13D1A86A0D4990
:1013B000C1620D494163C1690C4C202918BF00244A
:1013C000046307F11C0100F051F9044620B1FF232A
:1013D00085F84C30012402E02846FFF753FE2046F2
:1013E000F8BD00BFF31300080F140008FF13000836
:1013F000704708B5806AFFF7FBFF08BD704708B566
:10140000806AFFF7FBFF08BD70477047704708B55B
:10141000806A03230365FFF7F9FF08BD0368996835
:101420005A682DE9F0410F07044609D5160707D57C
:101430000822DA6001230365FFF7E8FFBDE8F081C9
:101440004D0707D5500705D50422DA60022323652E
:101450002046F1E78F071BD5960719D52046FFF7E1
:10146000C7FF236B002B40F09980636B002B40F08B
:1014700095802268536823F00203536094F84C303F
:10148000022B0CBF0123032384F84C30BDE8F0810C
:10149000CD0721D512F001051ED02046FFF7B4FF7D
:1014A000A36C013BA364002B78D1A36B63B92268C2
:1014B000536823F00103536094F84C30032B0CBFA6
:1014C0000123022384F84C3094F84030012B08BFEC
:1014D000656CA564BDE8F081C8061BD5D70619D593
:1014E000986A10F0FF0257D001220021C60701D4EC
:1014F00007290AD101205AB901F10805A840D8628C
:101500002046FFF782FFBDE8F08101314008EDE79A
:101510008840F4E72248834240D111F47F0F20D065
:1015200055061ED59E681F4FC6F3074600254FF08F
:101530000108F2070ED557F8250058B103681B685B
:101540005B0607D5226805F1100308FA03F3D360A0
:10155000FFF764FE0135082D4FEA5606E9D1BDE8D4
:10156000F08111F07F4F19D0940617D582680023BF
:10157000120ED10701D4072B0BD103F11801012260
:101580008A40C260074A52F82300FFF748FEBDE8D0
:10159000F08101335208ECE7000AA6E7BDE8F081CC
:1015A00000610140F400002030B500284ED00168F1
:1015B000274B99424FF0140440D8264A0A44B2FB04
:1015C000F4F292004264A3F207430364022380F81A
:1015D00025308468C36805690A6823432B4345693D
:1015E0002B4385692B43C5692B43056A22F4FF42CF
:1015F00022F070022B431343B4F5804F0B6014D0DC
:10160000026C154B9A420CBF14491549436C0A6889
:1016100003F01C030F249C4022EA04020A60426883
:101620000C6802FA03F323430B6000230122C36317
:1016300080F8243080F82520184630BD094B0B4433
:10164000B3FBF4F39B004364074BBEE7012030BDBE
:1016500007040240F8FFFDBF00000240A80002405E
:10166000A8040240F8FBFDBF00040240F0B590F86A
:101670002440012C38D090F825500124EDB2A54229
:1016800080F824404FF000064FF002042AD180F881
:1016900025400468C6632668076C26F001062660AC
:1016A000466C06F01C06B5407D6063608368056883
:1016B000102B036B0BBFA260A160E160E2604BB135
:1016C000236843F00E0323602B6843F001032B6073
:1016D0000020F0BD236823F004032360236843F057
:1016E0000A03F0E780F824600220F0BD016C426C30
:1016F000036870B402F01C020E681D680424944054
:1017000026420ED015F0040F0BD01A6892065EBF69
:101710001A6822F004021A60036B4C6073B370BC49
:10172000184702249440264212D015F0020F0FD021
:101730001A68950606D41A6822F00A021A60012374
:1017400080F8253000234C6080F82430C36AE5E738
:1017500008249440344211D02C070FD51C6824F083
:101760000E041C60012303FA02F24A60C36380F88E
:101770002530002380F82430436BCFE770BC7047DE
:101780002DE9F04F85B00B68DFF8A881674C019315
:101790000023019ADA4002D105B0BDE8F08F01269E
:1017A000019A9E4012EA060E00F0B1804A6822F0CB
:1017B0001007022F16D14FEAD30900EB890903F075
:1017C000070AD9F820504FEA8A0A4FF00F0C0CFA9A
:1017D0000AFC25EA0C0C0D6905FA0AF545EA0C0528
:1017E000C9F820504FEA430C0325D0F800B005FAA1
:1017F0000CF5ED4302F0030A0BEA050B0AFA0CF9AB
:10180000013F49EA0B09012FC0F8009011D8876801
:1018100005EA0709CF6807FA0CF747EA0907876066
:10182000476827EA0609C2F300179F4047EA0907FD
:101830004760BAF1030F07D1C76A27EA0606C2F369
:10184000C0079F403E43C662C66835408E6806FAB0
:101850000CF63543C560D50059D5D8F8605045F031
:101860000105C8F86050D8F8605023F0030606F16F
:10187000804605F0010506F58036039503F0030C5C
:10188000039DB5684FEA8C0C0F2707FA0CF7B0F1EF
:10189000904F25EA07073CD0254DA8423BD005F5DF
:1018A0008065A84239D005F58065A84237D005F596
:1018B0008065A84235D005F58065A84233D005F58E
:1018C0008065A84214BF0725062505FA0CF53D439F
:1018D000B56025686FEA0E06D70354BF35404EEA5F
:1018E000050525606568970354BF35404EEA050538
:1018F0006560A568D70254BF35404EEA0505A5606E
:10190000E568920254BF35404EEA0505E5600133B3
:101910003FE70025D9E70125D7E70225D5E70325CD
:10192000D3E70425D1E70525CFE700BF0004014038
:1019300000040048001002400AB1816170478162D2
:10194000704743690B4214BF816281617047000098
:1019500008B5044B5969014202D0586101F05EFF9D
:1019600008BD00BF000401402DE9F0411D4690F87C
:101970003530013B012B04460F4616462ED890F811
:101980003530DBB2012B09D0216801EB8701002043
:101990004B6933402B434B61BDE8F08190F8342014
:1019A000012A4FF002001AD084F8343084F8350050
:1019B000FFF7E4FA804623689B685B07E4D5FFF7EE
:1019C000DDFAA0EB0800B0F57A7FF4D90223A36317
:1019D000002384F834300320BDE8F0810120BDE805
:1019E000F0810368082270B5DA609A6842F0040258
:1019F0009A600446FFF7C2FA064623689D6815F010
:101A0000080506D00123002084F8353084F834001E
:101A100070BDFFF7B3FA801BB0F57A7FEDD90423D0
:101A2000A36384F83450032070BD38B590F8353086
:101A3000013B012B04462CD890F83430012B4FF099
:101A4000020027D0012384F8343084F83500FFF7F2
:101A500095FA054621688B6813F004030CD11846EB
:101A60001A1D01EB82020133102B5060F8D1204681
:101A7000BDE83840FFF7B5BFFFF780FA401BB0F56F
:101A80007A7FE7D90223A363002384F8343003204C
:101A900038BD012038BD38B50446FFF76FFA05465A
:101AA00023689B689B0601D5002038BDFFF766FAC6
:101AB000401BB0F57A7FF3D90123A363032038BD1F
:101AC00070B50446002874D090F8353003F0FF025A
:101AD0001BB980F8342001F02DFE0223226884F81F
:101AE0003530136823F00103136000231846191DD5
:101AF00002EB81010133102B4860F8D19368A06894
:101B000043F004039360636851680343A06A03438E
:101B1000E06A0343E0690343206A0343A06921F0BC
:101B20007F71034321F47F31606A21F47C710343A8
:101B300021F001010B4353602046FFF7ACFF05463F
:101B400068BB2069E3682268034360691168034346
:101B5000206B21F0FE0103430B431360136843F035
:101B600001031360FFF70AFA064623689B68DA0749
:101B70000CD5FFF703FA064623689B68DB0610D5F1
:101B80000023A363012384F8353008E0FFF7F6F95A
:101B9000801BB0F57A7FE8D90823A3630325284684
:101BA00070BDFFF7EBF9801BB0F57A7FE4D9102305
:101BB000F3E70125F3E70000024B186800F4C0606A
:101BC000704700BF00700040174B1A68B0F5007FE7
:101BD00002F4C0621CD1B2F5007F15D01A6822F45D
:101BE000C06242F400721A60104A116832224A43FD
:101BF0000F49B2FBF1F2194601325869400500D590
:101C000022B94B695B050DD400207047013AF4E717
:101C1000B2F5806F1FBF1A6822F4C06242F480627E
:101C20001A60F1E703207047007000407000002048
:101C300040420F002DE9F041069D04460F4616462E
:101C4000984621688A683A4214BF01220022B242B3
:101C500002D10020BDE8F0816B1CF3D0FFF78EF9B4
:101C6000A0EB0800854201D3002DEAD1042384F8BB
:101C70003930E36B43F00103E3630120BDE8F081F9
:101C800037B50446FFF77AF90546002C49D094F899
:101C90003830012B47D0012384F8383094F83920AC
:101CA00002F0FF033AB984F83830204601F0F8FF1B
:101CB00041F2883323642068A1680268236C0139EB
:101CC00022F4706242EA0122026020210093002285
:101CD0002B462046FFF7AEFFF0B922686568116811
:101CE000E36821F07F4143EA056321F010010B43D3
:101CF0001360A169636955680B43216943EA014395
:101D00000A4929400B435360136843F001031360F1
:101D10000123E06384F83930002384F8383003B0BD
:101D200030BD0120FBE70220F9E700BFFEF8E0FF2D
:101D300037B51E4DAB6DDA00044618D5FFF73CFFF2
:101D4000B0F5007F23D1802C29D9A02C8CBF022094
:101D50000120174A136823F0070303431360136835
:101D600003F00703181A18BF012003B030BDAB6D94
:101D700043F08053AB65AB6D03F080530193019B3F
:101D8000FFF71AFFAB6D23F08053AB65D8E7802CCB
:101D900007D808D0A4F1700358425841D9E7002071
:101DA000D7E70320D5E70220D3E700BF00100240A9
:101DB00000200240224B9A68D96812F00C0205D02C
:101DC0000C2A15D101F00301012918D119681D4809
:101DD000090755BFD3F894101968C1F30321C1F363
:101DE000031150F821004AB30C2A09D00020704793
:101DF000042A22D0082A144818BF00207047002067
:101E0000DA6802F00302022A15D00F49032A08BF3C
:101E10000846DA68D968DB68C3F34163C1F3062179
:101E2000C2F302120133484301325B00B0FBF2F00F
:101E3000B0FBF3F070470548EBE70448704700BF7C
:101E400000100240FC5D000800127A000024F4003B
:101E50002DE9F743054608B9012047E0A64C036881
:101E6000A668E768DB0606F00C0607F0030773D5E3
:101E70001EB10C2E52D1012F50D12368980702D5E4
:101E8000AB69002BE8D02368286A190756BFD4F83D
:101E9000943023681B0903F0F003834229D2FFF733
:101EA00047FF0028D8D1236843F008032360236844
:101EB0002A6A23F0F003134323606368EA6923F47A
:101EC0007F4343EA02236360FFF774FFA3688B4AF2
:101ED000C3F30313D35C03F01F03D840884B18608F
:101EE000884B1868FFF702F8002835D003B0BDE82A
:101EF000F083236843F008032360236823F0F00392
:101F0000034323606368EA6923F47F4343EA0223BF
:101F10006360FFF70DFF0028D6D09DE7AB69002B6B
:101F200036D0236843F001032360FFF727F880468B
:101F300023689A0724D5236843F0080323602368A5
:101F40002A6A23F0F003134323606368EA6923F4E9
:101F50007F4343EA022363602B68D80729D42B68A8
:101F6000990767D42B68180700F19C802B685907E4
:101F700000F1CA80A86A002840F033810020B5E74C
:101F8000FEF7FCFFA0EB08000228D1D90320ADE743
:101F9000236823F001032360FEF7F0FF80462368E7
:101FA0009B07D9D5FEF7EAFFA0EB08000228F6D977
:101FB000ECE7082E03D00C2E08D1032F06D123689E
:101FC0009A03CCD56B68002BC9D145E76B68B3F594
:101FD000803F10D1236843F480332360FEF7CEFFA7
:101FE000804623689B03BAD4FEF7C8FFA0EB080025
:101FF0006428F6D9CAE7B3F5A02F04D1236843F4C7
:1020000080232360E6E7226822F48032226022687F
:1020100022F480222260002BE0D1FEF7AFFF804641
:10202000236898039BD5FEF7A9FFA0EB080064285E
:10203000F6D9ABE7042E03D00C2E10D1022F0ED10F
:102040002368590503D5EB68002B3FF405AF63689F
:102050002A6923F0F85343EA0263636082E7EB687E
:102060007BB1236843F480732360FEF787FF074644
:1020700023685A05EBD4FEF781FFC01B0228F7D96D
:1020800084E7236823F480732360FEF777FF074615
:1020900023685B057FF566AFFEF770FFC01B022863
:1020A000F6D973E76B699BB1D4F8943043F0010320
:1020B000C4F89430FEF762FF0746D4F894309A07CC
:1020C0003FF554AFFEF75AFFC01B0228F5D95DE774
:1020D000D4F8943023F00103C4F89430FEF74EFF97
:1020E0000746D4F894309B077FF540AFFEF746FFD4
:1020F000C01B0228F5D949E700100240E25D000844
:102100007000002004000020A36DD80029D4A36D26
:1021100043F08053A365A36D03F080530193019BAB
:102120004FF00108794F3B68D9051DD5AB68012BED
:102130002BD1D4F8903043F00103C4F89030FEF76F
:102140001DFF41F288390746D4F890309B0742D5ED
:10215000B8F1000F3FF40EAFA36D23F08053A365D9
:1021600008E74FF00008DDE73B6843F480733B600D
:10217000FEF704FF81463B68DA05D7D4FEF7FEFE82
:10218000A0EB09000228F6D900E7052B06D1D4F808
:10219000903043F00403C4F89030CAE7D4F890209C
:1021A00022F00102C4F89020D4F8902022F004021A
:1021B000C4F89020002BC2D1FEF7E0FE41F288392E
:1021C0000746D4F890309807C2D5FEF7D7FEC01B5B
:1021D0004845F6D9DAE6FEF7D1FEC01B4845B3D92B
:1021E000D4E60C2E5CD02368022823F08073236091
:1021F0003BD1FEF7C3FE0646236899012FD4E2685F
:10220000434B1340EA6A13436A6B43EA02232A6B87
:10221000013A43EA0213AA6B120943EA4243EA6B0A
:102220005208013A43EA42532A6C5208013A43EAFF
:102230004263E360236843F080732360E36843F004
:102240008073E360FEF79AFE054623689A013FF526
:1022500095AEFEF793FE401B0228F6D996E6FEF7F0
:102260008DFE801B0228C7D990E6236813F0205FFB
:1022700002BFE36823F00303E360E36823F088739D
:1022800023F48033E360FEF779FE054623689B0163
:102290007FF574AEFEF772FE401B0228F6D975E694
:1022A00001283FF423AEE368EA6A03F00301914298
:1022B0007FF4D2AD296B03F070020139B2EB011F3C
:1022C0007FF4CAAD696B03F4FE42B2EB012F7FF4D9
:1022D000C3ADAA6B073A03F4003118BF0122914243
:1022E0007FF4BAADEA6B520803F4C001013AB1EBD6
:1022F000425F7FF4B1AD2A6C5208013A03F0C0632B
:10230000B3EB426F14BF01200020EFE500700040E6
:102310008C809DF92DE9F0410E46044610B901204C
:10232000BDE8F081414A136803F007038B422AD3CA
:102330002368D90732D421688A075CD43B4A1368E2
:1023400003F007039E425ED311F0040F384D65D1B0
:102350000B0706D5AB68226923F4605343EAC20336
:10236000AB60FFF727FDAB68324AC3F30313BDE848
:10237000F041D35C03F01F03D8402F4B18602F4B64
:102380001868FEF7B3BD136823F007030B4313600F
:10239000136803F007039942C1D1C9E76268244D6D
:1023A000032A2B681BD113F0007FB8D0AB6823F051
:1023B00003031343AB60FEF7E1FD41F288380746A3
:1023C000AB68626803F00C03B3EB820FB3D0FEF787
:1023D000D5FDC01B4045F3D90320BDE8F081022A9A
:1023E00002D113F4003FE0E712B913F0020FDCE76B
:1023F00013F4806FD9E70E4AA068936823F0F003C6
:10240000034393609AE7136823F007033343136091
:10241000136803F007039E4281D195E7AB68E26839
:1024200023F4E0631343AB6092E700BF0020024057
:1024300000100240E25D000870000020040000204F
:10244000054B064A9B68C3F30223D35C044A106819
:1024500003F01F03D840704700100240F25D0008EF
:1024600070000020054B064A9B68C3F3C223D35C6F
:10247000044A106803F01F03D84070470010024060
:10248000F25D000870000020F8B5454BDA6812F0E4
:10249000030F05460E461C4600682AD0DA6802F093
:1024A000030282423CD1002A3AD0DB686A68C3F357
:1024B00002130133934233D1236823F080632360F6
:1024C000FEF75CFD074623681A0132D4AF68002E80
:1024D00036D0012E50D12269286922F4C00240086A
:1024E00022F4FE42013842EA072242EA40522261C7
:1024F00032E0022810D0032814D0012810D11B6824
:102500009F0738D5E3686A6823F07303013A1843DC
:1025100040EA0210E060CFE71B6813F4806FF1D14E
:102520000120F8BD1A689103ECD41B6813F4802FC6
:10253000F5E7FEF723FDC01B0228C4D90320F8BD30
:102540002169EB6821F41F3121F4407141EA072130
:102550001B0941EA43412161236843F08063236002
:10256000FEF70CFD064623681B0113D52369AA69F3
:10257000134323610020F8BD2369686923F0C06319
:10258000400823F4FE43013843EA072343EA40634B
:102590002361E1E7FEF7F2FC801B0228E3D9CDE7D7
:1025A00000100240F8B53D4BDA6812F0030F054603
:1025B0000E461C46006828D0DA6802F00302824208
:1025C0003AD1002A38D0DB686A68C3F302130133BA
:1025D000934231D1236823F080532360FEF7CEFC71
:1025E000074623689A0030D4A868002E34D0636967
:1025F000296923F0C063490823F4FE43013943EA03
:10260000002343EA4163636132E0022810D00328CB
:1026100014D0012810D11B689F0738D5E3686A6879
:1026200023F07303013A184340EA0210E060D1E757
:102630001B6813F4806FF1D10120F8BD1A68910373
:10264000ECD41B6813F4802FF5E7FEF797FCC01B52
:102650000228C6D90320F8BD6269EB6822F41F3254
:1026600022F4407242EA00221B0942EA43426261BC
:10267000236843F080532360FEF780FC06462368FE
:102680009B0005D563696A69134363610020F8BD47
:10269000FEF774FC801B0228F1D9DBE70010024032
:1026A0002DE9F347066816F40066044624D0416E0F
:1026B000B1F5800F2CD002D8C1B101261CE0B1F5D4
:1026C000000F0DD0B1F5400FF7D14D4A616ED2F831
:1026D000883023F440030B43C2F8883000260BE017
:1026E000474AD36843F48033D360EEE70430FFF702
:1026F000CBFE06460028E8D02368D80406D5A16E94
:10270000B1F1807F74D008D8A9B10126354621E007
:1027100000212030FFF746FFEBE7B1F1007F04D046
:10272000B1F1407FF1D1354609E0354AD36843F431
:102730008033D360F7E7201DFFF7A6FE0546002D86
:102740005CD12F4AA16ED2F8883023F040730B433E
:10275000C2F888302368990340F14F81284FBB6D40
:10276000DA0040F176814FF00008DFF89890D9F850
:10277000003043F48073C9F80030FEF7FFFB824657
:10278000D9F80030DB053FD5002D44D1D7F8903083
:1027900013F4407315D0D4F88420934211D0D7F8A5
:1027A0009030D7F8902042F48032C7F89020D7F8C4
:1027B000902023F4407322F48032C7F89020C7F8A9
:1027C0009030D80709D5FEF7D9FB41F28839054684
:1027D000D7F89030990740F10981D7F89030D4F8B4
:1027E000842023F440731343C7F89030354612E039
:1027F000002104F12000FFF7D5FE9FE72E46A9E750
:102800000010024000700040FEF7B8FBA0EB0A0089
:102810000228B5D90325B8F1000F03D0BB6D23F012
:102820008053BB652368DA0708D59049A06BD1F8BF
:10283000882022F003020243C1F888209F0708D5B0
:102840008A49E06BD1F8882022F00C020243C1F8DB
:1028500088205E0708D58549206CD1F8882022F0B1
:1028600030020243C1F88820180708D57F49606C00
:10287000D1F8882022F0C0020243C1F88820D9068E
:1028800008D57A49A06CD1F8882022F4407202431E
:10289000C1F888209A0608D57449E06CD1F88820E0
:1028A00022F440620243C1F888209F0508D56F4991
:1028B000E06DD1F8882022F440220243C1F888203C
:1028C0005E0508D56949206ED1F8882022F44012AF
:1028D0000243C1F88820580608D56449206DD1F814
:1028E000882022F440520243C1F88820190608D5F6
:1028F0005E49606DD1F8882022F440420243C1F85D
:102900008820DA0508D55949A06DD1F8882022F42D
:1029100040320243C1F888209B040FD5534AE16E30
:10292000D2F8883023F040630B43B1F1006FC2F856
:10293000883064D1D36843F48013D36023681F03C5
:102940000FD54A4A216FD2F8883023F040630B43F9
:10295000B1F1006FC2F888305CD1D36843F48013C2
:10296000D36023685E030FD5404A616FD2F8883088
:1029700023F040630B43B1F1006FC2F8883054D1AB
:10298000D36843F48013D3602368580412D53749C1
:10299000A26FD1F8883023F040531343B2F1805F27
:1029A000C1F888304CD10221201DFFF76DFD0028B1
:1029B00018BF05462268110408D52C49E06FD1F8EC
:1029C000883023F080430343C1F88830D30309D50E
:1029D000264AD4F88010D2F8883023F000430B4305
:1029E000C2F88830284602B0BDE8F087FEF7C6FA84
:1029F000401B48457FF6ECAE0CE7354612E7B1F1D7
:102A0000806F9BD10121201DFFF73EFD002818BFDC
:102A1000054693E7B1F1806FA3D10121201DFFF797
:102A200033FD002818BF05469BE7B1F1806FABD19D
:102A30000121201DFFF728FD002818BF0546A3E748
:102A4000B2F1005FB6D1022104F12000FFF7AAFD28
:102A5000ADE7BB6D43F08053BB65BB6D03F08053A6
:102A60000193019B4FF001087FE600BF0010024078
:102A7000026838B5D36823F0A003D3600446FEF79C
:102A80007DFA05462368DB689B0601D5002038BD2A
:102A9000FEF774FA401BB0F57A7FF3D9032038BDF6
:102AA000F8B50368DC6814F04004054618D14FF00F
:102AB000FF32DA60FEF762FA032706462B68DB680E
:102AC0005B0601D4032C01D12046F8BDFEF756FA6F
:102AD000801BB0F57A7F84BF85F821700324EDE771
:102AE0000024F1E738B50F4CE36823F08003E3607E
:102AF000A3689B06054606D4FFF7BAFF88B10320FA
:102B000085F8210038BDA36823F02003A360FFF7F8
:102B1000AFFF10B1032085F82100A36843F0200324
:102B2000A36038BD0028004038B50446002840D0D6
:102B300090F8213003F0FF021BB980F8202001F04B
:102B40002DF9022384F821302368CA225A625322C5
:102B50005A622046FFF7A4FF00282BD12368206982
:102B60009A6822F4E00222F040029A606268996852
:102B70000243A06902430A439A60E2681A611A6933
:102B8000A16842EA01421A612046FFF7ABFF88B90B
:102B900023686569DA6C22F00302DA64E269D96CB1
:102BA0002A430A43DA64FF225A62012384F821305F
:102BB00038BD012038BD0023092803D840EA03109E
:102BC000C0B270470A380133C0B2F5E7F8B590F8E3
:102BD0002030012B05460E4617464FF0020352D017
:102BE00080F821300122036880F82020CA225A622E
:102BF00053225A62FFF754FF68BB2B683078747811
:102C0000B1789B6897BB13F0400308BFF370FFF7E0
:102C1000D2FF02462046FFF7CEFF04460846FFF7E4
:102C2000CAFFF37840EA835040EA024040EA0420B9
:102C30002B6800F07F3020F0FE4018609A68306901
:102C400022F480229A60F268996802430A439A60EB
:102C50002846FFF747FF2B68FF225A6210B901236D
:102C600085F82130002385F82030F8BD13F04003AB
:102C70004FEA042408BFF37044EA0040F4780843A4
:102C800040EA8450D4E71846F8BDF8B590F82030F3
:102C9000012B05464FF0020043D0012385F8203078
:102CA00085F821004B78C8788E780C7892BBDA06CC
:102CB00003D523F010030A334B70FFF77CFF074660
:102CC0004878FFF778FF02463046FFF774FF40EA86
:102CD000443040EA074040EA02242B68CA225A6284
:102CE00053225A622846FFF7DBFE40B92B6824F0D6
:102CF0007F4424F0C0045C602846FFF7F3FE2B6895
:102D0000FF225A6210B9012385F82130002385F88B
:102D10002030F8BD1B0243EA0040304340EA44340F
:102D2000DBE7F8BD030903EB830300F00F0000EBC2
:102D30004300C0B2704738B50368986A48601869A4
:102D40001C6804F07F3323F0FE43C0F30E00C3F38E
:102D50000625886004F07F04C3F305409B0D0870CE
:102D60004D708C70CB7052B9FFF7DCFF08702846AD
:102D7000FFF7D8FF48702046FFF7D4FF8870002087
:102D800038BD38B503685C6824F07F4323F0C00386
:102D9000180CC3F3042504F03F04C3F34233C87096
:102DA0004D708C700B7052B9FFF7BCFFC87028468D
:102DB000FFF7B8FF48702046FFF7B4FF8870002087
:102DC00038BD00000268C169F8B50446836800692F
:102DD0001568034360690343BA480B432840034323
:102DE00013605368E06823F4405303435360B64BC9
:102DF000A0699A421CBF236A1843936823F4306386
:102E000003439360B14B9A4219D103F55843B04A3A
:102E1000D3F8883003F00303B1F5004FD35C40F0E2
:102E20003881082B00F28F80DFE813F01A01CA0006
:102E3000F9008D0014018D008D008D003600A54B2A
:102E40009A4207D103F5E633A34AD3F8883003F05A
:102E50000C03E1E7A14B9A4223D103F5E433D3F805
:102E6000883003F03003102B00F0F1800BD8002BDA
:102E700000F0F380B1F5004F4FF001024FF0000376
:102E800000F0F880A8E0202B00F0C680302BF1D1B4
:102E9000B1F5004F40F0B8806068430803F5803317
:102EA000C3E08F4B9A421ED103F5E233D3F888304A
:102EB00003F0C003402B00F0BB800AD87BB9824BE3
:102EC0009A4240F0CA80FFF7BBFA0023B0BB02462B
:102ED0003AE0802B00F09D80C02B00F0B0807A4B50
:102EE0009A42C7D12FE07F4B9A4211D103F5E033CC
:102EF000D3F8883003F44073B3F5807F00F09880F6
:102F0000DCD9B3F5007F00F08480B3F5407FE4E7BF
:102F10006D4B9A42AED103F5C833D3F8883003F431
:102F20004063B3F5806F00F08380C7D9B3F5006FBD
:102F30006FD0B3F5406FD0E76B480223626802EBB5
:102F40004201814205D901220023236663661046AF
:102F5000F8BDB0EB023FF6D8082B2ED8DFE803F01F
:102F6000052D1C2D242D2D2D2700FFF769FA6268F1
:102F70004FF4807156080027E1FB006700233046BC
:102F80003946FDF7CFFD0022584BA0F5407199421C
:102F9000D9D82368D860D7E75548550800230021C1
:102FA000401941F10001ECE7FEF704FFDFE75008AC
:102FB0000021002310F50000F3E701220020E3E7E1
:102FC000FFF750FA4EE0FFF73BFA626800EB52035E
:102FD000B3FBF2F39BB20022A3F110004FF6EF71A6
:102FE0008842B0D82168CB60AEE7FFF73BFAECE748
:102FF0006068430803F5740303F51053B3FBF0F363
:10300000E8E7FEF7D7FEE0E76068430803F5004312
:10301000F4E72D4B9A428FD0B1F5004FE8D16068AC
:10302000430803F1F47303F59043B3FBF0F31FE09F
:10303000254B9A420BD1FEF7BDFE042346E7224BF7
:103040009A427FF425AF4FF40040082376E7B1F5AC
:10305000004FD6D1FEF7AEFE04E0B1F5004FB2D17D
:10306000FFF7EEF961684A0802EB4003B3FBF1F3A6
:103070009BB20022A3F110004FF6EF7188423FF699
:1030800062AF23F00F012068C3F342030B43C36018
:103090005AE7082B3FF657AF01A252F823F000BFC2
:1030A000C72F0008EB2F0008F12F0008472F00085A
:1030B00003300008472F0008472F0008472F00085B
:1030C00009300008F369FFEF00800040003801403C
:1030D000C85C000800440040CC5C00080048004088
:1030E000004C0040005000400024F400FFFC0F00A2
:1030F000000024F4436ADA0710B506D50168846A33
:103100004A6822F4003222434A609C0706D50168CF
:10311000C46A4A6822F4803222434A60590706D5BD
:103120000168046B4A6822F4802222434A601A072D
:1031300006D50168446B4A6822F4004222434A6083
:10314000DC0606D50168846B8A6822F4805222432B
:103150008A60990606D50168C46B8A6822F4005219
:1031600022438A605A060FD50168046C4A6822F42B
:1031700080122243B4F5801F4A6005D14A68446C2E
:1031800022F4C00222434A601B0606D50268816C05
:10319000536823F400230B43536010BD2DE9F04125
:1031A000069D04460F46164698462168CA6937EAC6
:1031B00002030CBF01220022B24202D00020BDE86F
:1031C000F0816B1CF2D0FDF7D9FEA0EB0800854220
:1031D00001D3002DE9D123681A6822F4D0721A6055
:1031E0009A6822F001029A6020236367A367002394
:1031F00084F870300320BDE8F0812DE9F74398464C
:10320000436F202B04460E4691464BD1002947D0F0
:10321000002A45D090F87030012B43D0012380F86C
:10322000703000252123C5674367FDF7A7FEA3681B
:10323000A4F85090B3F5805F0746A4F8529003D1EC
:1032400023690BB935461E46B4F85220CDF80080EC
:1032500092B23B464AB940212046FFF79FFF50B942
:103260002023636784F8700006E000228021204656
:10327000FFF794FF18B1032003B0BDE8F083226884
:103280005EB935F8023BC3F308031385B4F8523036
:10329000013B9BB2A4F85230D6E716F8013BF4E7A5
:1032A0000120E9E70220E7E773B504460026C66778
:1032B000FDF764FE23681B681A07054615D42368CA
:1032C0001B685B070AD56FF07E43009300222B46F4
:1032D0004FF480012046FFF761FF90B920230020C2
:1032E000636784F87000A3670CE06FF07E4300937F
:1032F000324603464FF400112046FFF74FFF0028E7
:10330000DDD0032002B070BD10B5044640B3436F5A
:103310001BB980F8703001F0DFF92268242363675D
:10332000136823F0010313602046FFF74BFD0128CB
:1033300016D0636A13B12046FFF7DCFE23685A6893
:1033400022F490425A609A6822F02A029A601A681F
:1033500042F0010220461A60BDE81040FFF7A4BF0A
:10336000012010BD2248002208B54260C2604274AC
:1033700042614FF400521F4B82614FF0C042036024
:10338000C2610123402203724372037402624362EA
:10339000FDF746FF08B100F01BFC1748174B036010
:1033A00001230422037100238360C260036143612F
:1033B0008361C361026243620A22C36202238262A2
:1033C0000363FDF7B7FE08B100F002FC01220C49CF
:1033D0000748FDF797FF08B100F0FAFB08490448D9
:1033E000FDF7ADFF18B1BDE8084000F0F1BB08BD26
:1033F0004801002000610140E401002040600140DC
:103400000400020030B52D4C89B00546142200217D
:1034100003A801F028FA2368002B29D1284A136851
:103420000133012B1360274B08D11A6E42F08072D2
:103430001A661A6E02F080720192019ADA6C2248C2
:1034400042F01002DA64DB6C03F010030293029B7B
:103450004FF42073039302230493059303230693ED
:1034600003A906230793FEF78BF923680133236032
:103470002A68164B9A421ED1154C03F51F4344335C
:10348000236000236360A360E360802323614FF423
:10349000007363614FF40063A3612023E36120465E
:1034A0004FF400532362FEF77FF808B100F090FB61
:1034B000A562EC62AC6209B030BD00BF180100200B
:1034C0001C01002000100240001000480061014073
:1034D0009C01002010B51F4C88B01422002103A8C5
:1034E00001F0C1F92368002B31D11B4A1368013365
:1034F000012B1360194B08D11A6E42F080721A66C4
:103500001A6E02F080720192019ADA6C144842F04D
:103510001002DA64DB6C03F010030293029B4FF499
:10352000207303930223049305930323069303A9B3
:1035300006230793FEF724F9002211463D20FDF7EC
:1035400049FD3D20FDF77AFD23680133236008B073
:1035500010BD00BF180100201C0100200010024017
:1035600000100048124B07B59A6C42F001029A64B1
:103570009B6C002203F00103114601930E20019B76
:10358000FDF728FD0E20FDF759FD00221146102001
:10359000FDF720FD1020FDF751FD002211461120FE
:1035A000FDF718FD1120FDF749FD03B05DF804FBA0
:1035B000001002402DE9F04114228AB00DEB020008
:1035C000002101F050F9474BDFF82881DA6C464EB4
:1035D00042F00402DA64DA6C02F004020092009A0B
:1035E000DA6C42F00102DA64DA6C02F00102019254
:1035F000019ADA6C42F00202DA64DA6C02F002023A
:103600000292029ADA6C42F01002DA64DA6C02F08A
:1036100010020392039ADA6C42F00802DA64DB6C5F
:1036200003F008030493404600220421049BFEF7A4
:1036300083F9002230464FF480710024FEF77CF9B4
:10364000012505A92948059506940794FEF798F8E1
:103650002F230593264B069305A902234FF0904094
:1036600007930327FEF78CF8042305A9404605932A
:10367000069507950897FEF783F84FF4807305A920
:1036800030460593069507950897FEF779F8224688
:1036900021460620FDF79EFC0620FDF7CFFC2246C2
:1036A00021460720FDF796FC0720FDF7C7FC2246C0
:1036B00021460820FDF78EFC0820FDF7BFFC2246BE
:1036C00021460920FDF786FC0920FDF7B7FC2246BC
:1036D00021461720FDF77EFC1720FDF7AFFC0AB04E
:1036E000BDE8F081001002400010004800080048CA
:1036F00000001110000400480C4808B50C4B036092
:103700000C22002343608360C260036143618361D4
:10371000C361036203638362C3624362FEF7D0F94D
:1037200018B1BDE8084000F053BA08BD1C020020E3
:103730000024004070B514228AB0044600210DEB2D
:10374000020001F090F82268304B9A425CD103F5F8
:10375000F63302269A6D2E4842F400729A659A6DED
:1037600002F400720092009ADA6C42F00402DA6409
:10377000DA6C02F004020192019ADA6C42F0010262
:10378000DA64DA6C02F001020292029ADA6C42F018
:103790000202DA64DA6C02F002020392039ADA6C33
:1037A00042F00802DA64DB6C069603F00803049327
:1037B0000B25049B09954FF4FC7305A90024059380
:1037C000FDF7DEFF48F2C07305A94FF09040059366
:1037D0000696079408940995FDF7D2FF4FF233231C
:1037E00005A90C4805930696079408940995FDF7DA
:1037F000C7FF4FF47F4305A9074805930696079432
:1038000008940995FDF7BCFF0AB070BD0024004084
:103810000008004800040048000C0048012802D1BC
:103820000B4B18607047022803D10A4B01221A6023
:103830007047042802D10122074BF8E7082802D17B
:103840000122064BF3E72028F2D10122044BEEE7D8
:1038500020010020280100202C0100203001002040
:103860002401002010B532231446034892B2FFF71A
:10387000C4FC204610BD00BFB4230020000000009F
:103880002DE9F0472DED028BADF5844D84B048480D
:10389000DFF848A101F064F89FED438B454B1C68AD
:1038A0007CB1454801F05CF8444800224FF4807137
:1038B0000DF5844D04B0BDEC028BBDE8F047FEF77A
:1038C0003BB84FF400723E4904A800F0C1FF4FF42A
:1038D0008042214684A800F0C6FF224639493A4872
:1038E000FFF729FA224639493748FFF74AFA4FF4D9
:1038F00080713248FEF725F884AD2F4687ED008BA6
:103900000026B44213DBA31B5AF82300FCF70AFE7F
:1039100004AB03EBC603D3E90023FCF769FE0246C0
:103920000B46D7E90001FCF7B1FCC7E900010136FD
:10393000402EE6D10134B4F5006F07F10807DDD160
:103940000DF5505410340026002730463946FCF758
:1039500021FEF5E8028902460B4640464946FDF73E
:10396000D7F828B140464946FDF7F4F806460F4619
:10397000AC42EAD1164B1A68D317964277EB030391
:103980008CDB04211348FDF7DCFF10480D49C47897
:103990008B784A7809780294447801948078009072
:1039A0000D4800F069FF79E700000000000000000A
:1039B000105D0008300100205D5D00080010004827
:1039C000C85A000858220020B42200206C2200208F
:1039D00008000020000400482D5D00085802002067
:1039E00038B50C480C4C0D4D00F0BAFF23684BB1B4
:1039F0000B4800F0B5FF002204210848BDE838401C
:103A0000FDF79ABF28460421FDF79BFF3220FDF702
:103A1000BBFAEBE7D95C0008300100200004004845
:103A2000F75C000800B58BB028220021684600F042
:103A30001AFF094B09491A68684600F099FF684661
:103A400000F01AFF684600F005FD4FF47A70FDF7AC
:103A50009BFA0BB05DF804FB08000020755D0008C0
:103A600030B5B9B014254422002105A800F0FBFEB2
:103A70002A460021684600F0F6FE0021882216A89A
:103A800000F0F1FE18230593602301240D93072213
:103A900002230DEB05000A940B940F9310941194DC
:103AA00012951392002514931593FEF7D1F9032272
:103AB00080230F218DE82E006846214604954FF49F
:103AC0000074FEF727FC064B169316A8259536952D
:103AD0003794FEF7E5FD2046FEF776F839B030BDA5
:103AE0000200030080B5FDF727FA00F005FCFFF7A0
:103AF000B7FFFFF75FFDFFF735FDFFF7FDFD00F0B6
:103B0000B5F800F0CBFD00F001F9FFF72BFC2649DA
:103B1000264C2748274D284E284F1323CB700623C9
:103B20004B70002205238B70FFF7AFF8002221466F
:103B30001F48FFF700F9172323703B23637000220F
:103B4000322321461A48A370FFF740F84FF4006271
:103B50001B491C48FDF70EFC00F03CF82B68012BBC
:103B600003D100F04FF800232B603368012B03D101
:103B700000F052F8002333603B68012B03D100F0C2
:103B800055F800233B60104C2368012B03D100F053
:103B900057F8002323600D4C2368012BDED100F081
:103BA00059F800232360D9E76C2200205822002016
:103BB000B42200202C010020280100202401002034
:103BC0005802002048010020300100202001002080
:103BD000704700000A4B1B6810B51C682046FCF7B4
:103BE000F7FA062804DC2046BDE8104000F032BC9D
:103BF00020464FF4FA720121BDE8104000F042BCAB
:103C00000C000020034B1A68526802B11A60FFF7DB
:103C1000E1BF00BF0C000020034B1A68926802B19C
:103C20001A60FFF7D7BF00BF0C000020034B1A68D3
:103C3000126902B11A60FFF7CDBF00BF0C0000206F
:103C4000034B1A68D26802B11A60FFF7C3BF00BF06
:103C50000C00002008B5044B1B685B6903B1984752
:103C6000BDE80840FFF7B6BF0C0000200A480B4A29
:103C700008B5FF2380E80C00002301228260C360A6
:103C8000026143618361FDF7FBFF18B1BDE80840A5
:103C9000FFF79EBF08BD00BF70220020001000A0EB
:103CA00010B5044688B01422002103A800F0DBFD03
:103CB0002268144B9A4222D103F1204303F50033CA
:103CC00003A91A6D104842F480721A651A6D02F445
:103CD00080720192019ADA6C42F01002DA64DB6CB5
:103CE00003F010030293029B4FF47C4303930223DF
:103CF0000493032306930A230793FDF741FD08B0BD
:103D000010BD00BF001000A0001000487FB51422B5
:103D1000002101A800F0A7FD1E481F4A002380E8EB
:103D20000C007F228260FF220093C2600361436126
:103D30008361C361FEF7F8FE08B1FFF749FF17235F
:103D40008DF804303B2300228DF8053001A9322381
:103D500010488DF8063004920592FEF737FF08B13F
:103D6000FFF736FF03238DF8003004238DF8013070
:103D700017238DF8023000221323694605488DF879
:103D80000330FEF782FF08B1FFF722FF07B05DF8AE
:103D900004FB00BFB4220020002800400268054B4D
:103DA0009A4201BF044AD2F8903043F40043C2F86B
:103DB0009030704700280040001002402F2870B556
:103DC0006DD021D829285CD007D825286CD0282888
:103DD00055D0202806D1002431E02B285CD02CD3EC
:103DE0002D2856D0A0F14104E5B2192D98BFA74D5A
:103DF000A0F1610098BF35F81440C5B288BF002417
:103E0000192D1CD8A14C54E06D283CD006D8392877
:103E10004DD96428E6D14FF4734410E0B02840D067
:103E200004D86E28DED142F2102408E0B5282DD047
:103E3000FF28D7D14FF6DD7401E04AF2DD040129F5
:103E400008BF44F00204012A914908BF44F020044D
:103E5000C4F3032022134860C4F3031004F00F04DA
:103E6000CC600A6088600C46052B00F23A82DFE8DD
:103E700013F023007000C0001B017C01E801044620
:103E8000DDE71124DBE74BF21024D8E746F2840487
:103E9000D5E74FF42044D2E74AF21404CFE7C02418
:103EA000CDE74FF46C44CAE74FF43344C7E7794C8D
:103EB000303834F81040C2E7110102F0080301F075
:103EC00010011943930503F400031943130503F488
:103ED00080030B43704A71480021FDF745FD62687D
:103EE0006E48130102F0080103F010030B43910523
:103EF00001F4000112050B4302F480021343022176
:103F0000654AFDF731FDA2686448130102F008011B
:103F100003F010030B43910501F4000112050B435C
:103F200002F48002134304215B4AFDF71DFDE268A1
:103F3000130102F0080103F010030B43910501F493
:103F40000001120502F480020B431343524A06217A
:103F500006E11103930203F4805301F40051194365
:103F6000930103F040031943930003F020030B4334
:103F70004B4A4A480021FDF7F7FC626847481303A3
:103F8000910201F4805103F400530B43910101F0BD
:103F9000400192000B4302F0200213430221404AE9
:103FA000FDF7E2FCA2683D481303910201F4805141
:103FB00003F400530B43910101F0400192000B43C5
:103FC00002F0200213430421354AFDF7CDFCE268DC
:103FD0001303910201F4805103F400530B43910148
:103FE00001F04001920002F020020B4313432C4ADF
:103FF000ADE71107930603F0805301F00051194318
:10400000D3039BB21943D30203F480430B43254AE5
:1040100022480021FDF7A8FC62682048130791069A
:1040200001F0805103F000530B43D10389B2D20257
:104030000B4302F48042134302211A4AFDF794FC19
:10404000A26816481307910601F0805103F000534F
:104050000B43D10389B2D2020B4302F480421343D3
:104060000421104AFDF780FCE2681307910601F075
:10407000805103F000530B43D10389B2D20202F402
:1040800080420B431343074A61E700BF9A5D000873
:10409000D8220020CE5D0008E7FF3FFFE822002085
:1040A0009FCFFFFFFF3FFFCFD30603F0804343EADC
:1040B000C27300216FF040428A48FDF755FC226828
:1040C0008848C2F3800302F00202134301216FF01B
:1040D0000302FDF749FC62688248D30603F080437F
:1040E00043EAC27302216FF04042FDF73DFC626873
:1040F0007C48C2F3800302F00202134303216FF0F5
:104100000302FDF731FCA2687648D30603F0804332
:1041100043EAC27304216FF04042FDF725FCA26818
:104120007048C2F3800302F00202134305216FF0CE
:104130000302FDF719FCE2686A48D30603F08043E6
:1041400043EAC27306216FF04042FDF70DFCE268BE
:10415000C2F3800302F0020213436FF0030207214F
:104160006048BDE87040FDF7FFBB1306920502F002
:10417000807203F00073134300216FF040725948BE
:10418000FDF7F2FB226857485308D20002F00802FC
:1041900003F00403134301216FF00C02FDF7E4FB6D
:1041A000626850481306920502F0807203F00073B3
:1041B000134302216FF04072FDF7D6FB6268494855
:1041C0005308D20002F0080203F004031343032152
:1041D0006FF00C02FDF7C8FBA26842481306920577
:1041E00002F0807203F00073134304216FF04072F9
:1041F000FDF7BAFBA2683B485308D20002F0080260
:1042000003F00403134305216FF00C02FDF7ACFB30
:10421000E26834481306920502F0807203F00073DE
:10422000134306216FF04072FDF79EFBE2685308CE
:10423000D20002F0080203F0040313436FF00C02F3
:104240008DE7D301D10101F4007103F480730B43B6
:10425000510401F40031D2050B4302F08062134394
:104260000021214A1F48FDF77FFB62681D48D301EA
:10427000D10101F4007103F480730B43510401F484
:104280000031D2050B4302F0806213430221164A2B
:10429000FDF76AFBA2681348D301D10101F4007154
:1042A00003F480730B43510401F40031D2050B4336
:1042B00002F08062134304210B4AFDF755FBE268CC
:1042C000D301D10101F4007103F480730B43510455
:1042D00001F40031D20502F080620B431343024A1D
:1042E00035E670BDE8220020FFFCFDFB0148FDF72C
:1042F0009CBB00BFE8220020F0B5514B514D00247B
:1043000085E818004FF47013AB600C23BFB0EB606E
:104310004FF4A052402321462B61AA612B62142244
:104320004FF4804306A8EB626C61EC616C62AC6296
:104330002C6300F098FA214644220BA800F093FA6F
:10434000214604F1804404F5043488221CA800F0BE
:104350008AFAA36D43F08053A365A36D03F08053E5
:104360000093009B04230B930BA801230D93FDF7EF
:104370006FFD064600B1FEE74FF400331C931CA806
:104380004FF480733D93FEF78BF9E36C43F0010328
:10439000E364E36C03F001030193019BE36C43F0DE
:1043A0000203E364E36C03F002030293029BE36CF9
:1043B00043F00403E364E36C03F004030393039BFF
:1043C000E36C43F00803E364E36C089603F008032E
:1043D0000493049B48F2C0730693032302270993B6
:1043E00006A90B234FF090400A930797FDF7C8F9F1
:1043F0004FF2332306A914480693FDF7C1F94FF491
:10440000FC7306A911480693FDF7BAF906A94FF403
:104410007F430F480693FDF7B3F93846FCF7B4FD28
:10442000A36D43F40073A365A36D03F400730593B8
:104430002846059BFDF744FBFFF758FF3FB0F0BD52
:1044400000240040E8220020000400480008004842
:10445000000C004838B50546FFF748FF0024285DEA
:10446000E3B2013408B1052B04D90548BDE8384052
:10447000FDF7B7BA00221146FFF7A0FCEFE700BF37
:10448000E82200202DE9F347324F05468946904641
:10449000FFF72CFF00230093ADF804303B70002D94
:1044A0004AD02B465C1B13F8016BE4B2002EF9D105
:1044B0006846FFF7CFFF4046FCF766FDF3B24B4579
:1044C0003AD201233FE093FBF4F204FB123203F1F2
:1044D000010AAA5C8DF800209AFBF4F204FB12A2F8
:1044E000991CAA5C8DF8012091FBF4F204FB1212D6
:1044F000D91CAA5C8DF8022091FBF4F204FB121285
:10450000191DAA5C8DF8032091FBF4F204FB121232
:10451000AA5C8DF804205A1D92FBF4F304FB1323CC
:10452000EB5C8DF80530FFF7E1FE6846FFF792FF80
:104530003B7823B100233B7002B0BDE8F0874046D2
:10454000FCF722FD53465A1ED2B2A242BBD301361B
:10455000B4E700BF340100200A4B1A6E42F001029A
:104560001A661A6E82B002F001020092009A9A6DE9
:1045700042F080529A659B6D03F080530193019B3A
:1045800002B07047001002407047FEE7FEE7FEE70A
:10459000FEE7704770477047FCF7E4BC0120FDF769
:1045A000D7B90220FDF7D4B90420FDF7D1B908200E
:1045B000FDF7CEB90148FDF799B800BF9C01002076
:1045C0000148FDF793B800BF242300200148FDF700
:1045D0008DB800BF6C2300202020FDF7B9B9000082
:1045E0000148FCF71BBF00BF4801002070B50E4614
:1045F00015460C46A31B9D4201DC284670BDAFF357
:10460000008004F8010BF5E708B50A4B196802466B
:1046100009B9094919601868694602448A4206D9ED
:1046200000F0ECF80C2303604FF0FF3008BD1A6077
:1046300008BD00BF38010020382400204FF0FF30B3
:1046400070474FF400534B600020704701207047C3
:10465000002070470F49D1F8883043F47003C1F847
:1046600088300D4B1A68002042F001021A609860F1
:104670001A6822F0A85222F410221A604FF48052D5
:10468000DA601A6822F480221A6098614FF00063A1
:104690008B60704700ED00E00010024008B50C4848
:1046A0000C4B4FF4E13E80E808400C22002383606D
:1046B000C360036142618361C36103624362FEF7C9
:1046C00023FE18B1BDE80840FFF782BA08BD00BF5D
:1046D000B42300200044004070B5054688B0142281
:1046E000002103A800F0BFF82A68294B9A424DD157
:1046F00003F5E63302269A6D2648274C42F4003231
:104700009A659A6D02F400320192019ADA6C42F0D5
:104710000802DA64DB6C049603F008030293029B40
:1047200060230393012305930323069303A907231F
:104730000793FDF725F8194B802284E848002046AE
:104740000023A360E36022616361A361E3612362EC
:10475000FCF72AFF08B1FFF73BFA114BEC66A562A4
:10476000104C02264FF0100E84E8484080220023AF
:104770002046E36022616361A361E3612362FCF789
:1047800013FF08B1FFF724FAAC66A56208B070BD4C
:1047900000440040000C0048242300206C0002402C
:1047A000800002406C230020DFF834D0002103E0B9
:1047B0000C4B5B58435004310B480C4B42189A4247
:1047C000F6D30B4A02E0002342F8043B094B9A421D
:1047D000F9D3FFF73FFF00F017F8FFF783F9FEE783
:1047E00000800120D45E000800000020D8000020D6
:1047F000D800002038240020FEE70000014B186894
:10480000704700BF7400002070B50D4E0D4CA41B06
:10481000A4100025A54209D10B4E0C4C01F046F91D
:10482000A41BA4100025A54205D170BD56F8253063
:1048300098470135EEE756F8253098470135F2E7FD
:10484000CC5E0008CC5E0008CC5E0008D05E00089C
:1048500010B5431E0A44914200D110BD11F8014B1E
:1048600003F8014FF7E702440346934200D1704733
:1048700003F8011BF9E700000FB40A4B13B51C68DD
:1048800024B1A36913B9204600F048FA05AB049A95
:10489000A1680193204600F055FD02B0BDE810402C
:1048A00004B070477400002070B50E46054618B17C
:1048B00083690BB900F032FAAB69AC6813B92846CA
:1048C00000F02CFA234B9C4217D16C68A3891B077C
:1048D0001DD52369DBB1013EA36816F8011F013B1A
:1048E000A360E9B9002B2EDA22460A21284600F0FF
:1048F00063F8013011D00A2070BD174B9C4201D1E2
:10490000AC68E3E7154B9C4208BFEC68DEE7214644
:10491000284600F0A3F80028DDD04FF0FF3070BD2E
:10492000002B04DAA269934206DB0A2904D023682B
:104930005A1C22601970CFE72246284600F03CF846
:104940000130C9D1E9E723680A205A1C2260187097
:1049500070BD00BF505E0008705E0008305E000849
:10496000024B01461868FFF79FBF00BF740000208C
:104970000EB400B59CB04FF402711DABADF814102D
:10498000029006906FF000410A48049107914FF69B
:10499000FF7153F8042BADF816100068019302A9BB
:1049A00000F0B2FB029B00221A701CB05DF804EB11
:1049B00003B0704774000020F8B50E461446054653
:1049C00018B183690BB900F0A9F9214B9C422AD197
:1049D0006C68A369A360A3891A072ED5236963B302
:1049E00023692068C01A6369F6B29842374604DB2F
:1049F0002146284600F028F928BBA368013BA360A4
:104A000023685A1C22601E7063690130984204D0EA
:104A1000A389DB0719D50A2E17D12146284600F0B5
:104A200013F990B10FE00B4B9C4201D1AC68D0E779
:104A3000094B9C4208BFEC68CBE72146284600F0B2
:104A40000DF80028CCD04FF0FF373846F8BD00BF36
:104A5000505E0008705E0008305E0008324B70B592
:104A60001D6806460C4625B1AB6913B9284600F00F
:104A700055F92E4B9C420FD16C68B4F90C309AB2A8
:104A800015072CD4D00611D40922326043F040031C
:104A9000A3814FF0FF3070BD254B9C4201D1AC6823
:104AA000EBE7244B9C4208BFEC68E6E7510712D5C0
:104AB000616B41B104F14403994202D0304600F0E9
:104AC0001BFA00236363A38923F02403A38100233B
:104AD000636023692360A38943F00803A3812369EA
:104AE0004BB9A38903F42073B3F5007F03D02146AB
:104AF000304600F0C1F9A28912F001030CD0002366
:104B0000A36063695B42A361236953B9B4F90C30B4
:104B100013F08000BAD170BD920758BF6369A360DB
:104B2000F2E70020F7E700BF74000020505E0008A5
:104B3000705E0008305E00088A892DE9F041054664
:104B400010070C465AD44B68002B05DC0B6C002B6D
:104B500002DC0020BDE8F081E66A002EF9D00023D7
:104B600012F480522F682B6033D0606DA3895A07EE
:104B700005D56368C01A636B0BB1236CC01A0023A0
:104B80000246E66A216A2846B047431CA38906D13B
:104B900029681D294BD82B4ACA40D60747D5002281
:104BA0006260D9042269226004D5421C01D12B68BD
:104BB00003B96065616B2F600029CAD004F144031A
:104BC000994202D0284600F097F900206063BDE8C2
:104BD000F081216A01232846B047411CC6D12B68C9
:104BE000002BC3D01D2B01D0162B01D12F60B0E7B5
:104BF000A38943F04003A381BDE8F0810F69002F32
:104C0000A7D093070E6808BF4B690F6018BF002339
:104C1000A6EB07088B60B8F1000F9ADD43463A46D1
:104C2000216AA66A2846B047002807DCA38943F01A
:104C30004003A3814FF0FF30BDE8F0810744A8EBAB
:104C40000008E8E70100402038B50B6905460C462E
:104C5000DBB118B183690BB900F060F80C4B9C42D2
:104C600009D16C68B4F90C307BB121462846BDE807
:104C70003840FFF761BF074B9C4201D1AC68F1E7B8
:104C8000054B9C4208BFEC68ECE7002038BD00BF34
:104C9000505E0008705E0008305E0008014900F0B8
:104CA000A9B800BF494C0008002310B504460360B2
:104CB0004360836081814366C28103614361836194
:104CC000194608225C30FFF7CEFD054B6362054BA9
:104CD000A362054BE362054B2462236310BD00BF52
:104CE000BD580008DF580008175900083B59000854
:104CF00070B54A1E682555430E4605F1740100F053
:104D000049F9044640B1002180E842000C30A0601F
:104D100005F16802FFF7A7FD204670BD836910B555
:104D2000044633BB8364C3640365124B124A1B6899
:104D30008262984204BF0123836100F01FF8606023
:104D4000204600F01BF8A060204600F017F8002273
:104D5000E06004216068FFF7A7FF01220921A06835
:104D6000FFF7A2FF02221221E068FFF79DFF012357
:104D7000A36110BD2C5E00089D4C0008F8B51C4BCB
:104D80001E68B369074613B93046FFF7C7FF4836B8
:104D9000B4687368013B03D5336833B13668F7E70D
:104DA000B4F90C506DB16834F4E704213846FFF7CC
:104DB0009FFF30600028F1D10C233B600446204661
:104DC000F8BD4FF6FF73E3810123A381656625607B
:104DD000A560656025616561A5610822294604F129
:104DE0005C00FFF740FD6563A563A564E564E6E745
:104DF0002C5E00082DE9F8438046894600F14804FE
:104E0000002614B93046BDE8F883A5686768013FFD
:104E100001D52468F5E7AB89012B07D9B5F90E3028
:104E2000013303D029464046C84706436835EEE7BC
:104E300070B50E46B1F90E10002990B014461D460B
:104E400007DA00232B60B3891A0610D44FF480636D
:104E50000EE001AA00F098FD0028F2DB029A02F4AD
:104E60007042A2F500535A425A412A60EEE74023AD
:104E70000020236010B070BD8B8973B59D07064676
:104E80000C4607D504F147032360236101236361C6
:104E900002B070BD01AB6A46FFF7CAFF0099054634
:104EA000304600F077F848B9B4F90C309A05EFD4E1
:104EB00023F0030343F00203A381E3E70D4BB36246
:104EC000A389206043F08003A381009B6361019B61
:104ED00020615BB1B4F90E10304600F067FD28B1D7
:104EE000A38923F0030343F00103A381A3891D4396
:104EF000A581CDE79D4C000838B50546002945D071
:104F000051F8043C0C1F002BB8BFE41800F08AFDD8
:104F10001F4A1368104633B9636014602846BDE821
:104F2000384000F080BDA3420CD92168621893423A
:104F300004BF1A685B68636004BF52182260046093
:104F4000ECE713465A680AB1A242FAD91968581810
:104F5000A0420BD120680144581882421960DDD16B
:104F6000106852685A6001441960D7E702D90C23CF
:104F70002B60D3E7206821188A4204BF1168526869
:104F8000626004BF091821605C60C7E738BD00BFDC
:104F90003C01002070B5CD1C25F0030508350C2D13
:104FA00038BF0C25002D064601DBA94203D90C238E
:104FB0003360002070BD00F035FD234A146821469F
:104FC00091B9224C23681BB9304600F067FC206081
:104FD0002946304600F062FC431C26D10C23336086
:104FE000304600F020FDE4E70B685B1B1AD40B2B66
:104FF0000FD90B60CD50CC18304600F014FD04F1F1
:105000000B00231D20F00700C31A1BD05A42E250A8
:1050100070BD8C420DBF63684B686360136018BF3E
:105020000C46E9E70C464968CAE7C41C24F00304AF
:10503000A04205D0211A304600F030FC0130CDD01E
:105040002560D9E770BD00BF3C0100204001002071
:105050002DE9F0478E689E4282460C46914698465E
:1050600035D88A8912F4906F31D0256809696F1A92
:105070006569022305EB450595FBF3F508F101038E
:105080003B449D4238BF1D46530531D52946FFF7A5
:1050900081FF064650B90C23CAF80030A38943F0BB
:1050A0004003A3814FF0FF30BDE8F0873A46216905
:1050B000FFF7CEFBA38923F4906343F08003A38121
:1050C000266165613E44ED1B2660A5604646464567
:1050D00028BF464632464946206800F089FCA3684E
:1050E0009B1BA36023681E4426600020BDE8F08758
:1050F0002A4600F099FC06460028E1D12169504675
:10510000FFF7FAFEC7E700002DE9F04F9DB080469B
:1051100003938B891C060D4616460FD50B696BB998
:105120004021FFF737FF2860286128B90C23C8F811
:1051300000304FF0FF30C5E040236B61002309933E
:1051400020238DF8293030238DF82A304FF0010BC1
:1051500037463C4614F8013B002B3CD1B7EB060A1E
:105160000BD05346324629464046FFF771FF0130C7
:1051700000F0A380099B534409933B78002B00F077
:105180009C8000234FF0FF3204930793059206930F
:105190008DF853301A93052221785048FBF720F8F8
:1051A000671C049BD8B9D90644BF20228DF8532030
:1051B0001A0744BF2B228DF8532022782A2A16D0B2
:1051C000079A00210A20274601343B78303B092BFF
:1051D00051D9C9B111E0252BC0D02746B9E73F4AC4
:1051E000801A0BFA00F0184304903C46D3E7039A68
:1051F000111D12680391002A01DB079204E052425C
:1052000043F00203079204933B782E2B0ED17B7858
:105210002A2B07F1010132D1039B1A1D1B6803924F
:10522000002BB8BF4FF0FF33023705932C4C397871
:1052300003222046FAF7D4FF38B14023001B03FABB
:1052400000F0049B034304930137397825488DF817
:10525000281006227E1CFAF7C3FF002835D0224B07
:10526000FBB9039B073323F0070308330393099B20
:105270004B4409936CE700FB02320121A3E70023B2
:10528000059318460A240F4601313A78303A092A24
:1052900003D9002BCAD00590C8E704FB00200123E6
:1052A000F1E703AB00932A46104B04A94046AFF345
:1052B0000080B0F1FF3F8146D9D1AB895B063FF555
:1052C00038AF09981DB0BDE8F08F03AB00932A46B4
:1052D000064B04A9404600F0C1F9EAE7905E0008D9
:1052E000965E00089A5E0008000000005150000819
:1052F0009368013B002B10B4936009DA9469A342D0
:1053000002DBCBB20A2B03D15DF8044BFFF754BB91
:105310001368581C10601970C8B25DF8044B7047D0
:10532000F8B506460F461446D518AC4201D1002008
:1053300007E03A4614F8011B3046FFF7D9FF431C3B
:10534000F3D1F8BD2DE9F04F9DB00C4617460393FD
:10535000064618B183690BB9FFF7E0FC7C4B9C4211
:1053600057D17468A38918075DD52369002B5AD0DB
:105370000023099320238DF8293030238DF82A301B
:105380004FF0010BB846454615F8013B002B55D1AF
:10539000B8EB070A0BD053463A4621463046FFF792
:1053A000BFFF013000F0C480099B5344099398F873
:1053B0000030002B00F0BC8000234FF0FF3204933C
:1053C0000793059206938DF853301A930522297896
:1053D0006048FAF705FF05F10108049B002831D168
:1053E000D90644BF20228DF853201A0744BF2B2230
:1053F0008DF853202A782A2A2CD0079A00210A20D7
:10540000A846013598F80030303B092B6DD971B3AF
:1054100026E0514B9C4201D1B468A3E74F4B9C421C
:1054200008BFF4689EE721463046FFF717FB0028C7
:105430009ED04FF0FF301DB0BDE8F08F252BA7D0D8
:10544000A846A0E7434A801A0BFA00F018430490DC
:105450004546BBE7039A111D12680391002A01DB40
:10546000079204E0524243F002030792049398F833
:1054700000302E2B10D198F801302A2B08F10101B1
:1054800037D1039B1A1D1B680392002BB8BF4FF046
:10549000FF3308F102080593314D98F800100322FC
:1054A0002846FAF79DFE40B14023401B03FA00F066
:1054B000049B0343049308F1010898F8001029485D
:1054C0008DF82810062208F10107FAF789FE002856
:1054D00034D0254B03BB039B073323F0070308336A
:1054E0000393099B4B4409934CE700FB02320121D3
:1054F00086E70023059318460A258846013198F867
:105500000020303A092A03D9002BC5D00590C3E703
:1055100005FB00200123F0E703AB00932246134B69
:1055200004A93046AFF30080B0F1FF3F8146D8D1E7
:10553000A3895B063FF57DAF09987CE703AB009339
:1055400022460A4B04A9304600F088F8ECE700BF79
:10555000505E0008905E0008705E0008305E000833
:10556000965E00089A5E00080000000021530008C3
:105570002DE9F04791461F468A680B69DDF82080C7
:105580009342B8BF1346C9F8003091F8432006464D
:105590000C4612B10133C9F800302368990642BFA6
:1055A000D9F800300233C9F80030256815F0060537
:1055B00007D104F1190AE368D9F800209B1A9D422B
:1055C00029DB94F843302268003318BF0123920688
:1055D0002ED404F1430239463046C047013021D071
:1055E0002368E568D9F8002003F00603042B08BF00
:1055F000AD1AA36822690CBF25EAE5750025934220
:10560000C4BF9B1AED184FF000091A344D451BD149
:105610000020BDE8F0870123524639463046C04796
:10562000013003D14FF0FF30BDE8F0870135C2E70C
:10563000E1185A1C302081F84300224494F84510A8
:1056400082F843100233C4E701232246394630462C
:10565000C0470130E6D009F10109D7E72DE9F04351
:1056600017460A7E85B06E2A984606460C460C9B65
:1056700001F1430E00F0BC801AD8632A2ED00AD85C
:10568000002A00F0C880582A00F08A8004F1420500
:1056900084F842202AE0642A01D0692AF6D12168E0
:1056A0001A6811F0800F23D0111D1960136827E0CC
:1056B000732A00F0B48008D86F2A2AD0702AE5D166
:1056C0000A6842F020020A6003E0752A21D0782A95
:1056D000DCD1782284F845206E4964E01A6801F133
:1056E0004205111D1960136884F842300123A3E0BC
:1056F00011F0400F02F104011960D7D0B2F9003067
:10570000002B03DA2D225B4284F8432062490A22EF
:1057100017E02068196810F0800F03D0081D18608A
:105720000B6806E010F0400F01F104001860F7D09C
:105730000B8859496F2A14BF0A220822002084F8D6
:1057400043006568A560002DC0F29C80206820F0B1
:1057500004002060002B3FD1002D40F0958075465D
:10576000082A0BD12368DA0708D5236962689A42B0
:10577000DEBF302305F8013C05F1FF35AEEB050334
:105780002361CDF800803B4603AA21463046FFF74F
:10579000EFFE013055D14FF0FF3005B0BDE8F0838A
:1057A00081F845203C492268186812F0800F00F10A
:1057B00004051D6001D0036802E05506FBD503888F
:1057C000D00744BF42F0200222601BB9226822F0B9
:1057D000200222601022B1E77546B3FBF2F002FB13
:1057E0001033CB5C05F8013D03460028F5D1B7E73F
:1057F00008681A68496910F0800F04D0101D1860FD
:105800001368196007E010F0400F02F104001860FF
:105810001368F6D01980002323617546B1E71A6832
:10582000111D19601568626800212846FAF7D8FC36
:1058300008B1401B606063682361002384F8433033
:105840009FE723692A4639463046C0470130A2D037
:1058500023689B0707D5002504F11909E368039A1B
:105860009B1A9D4205DBE068039B9842B8BF18462F
:1058700093E701234A4639463046C04701308AD073
:105880000135EBE7002BA7D10B7884F8423004F107
:10589000420565E7B25E0008A15E000838B5064C17
:1058A0000023054608462360FEF7AEFE431C02D1E6
:1058B000236803B12B6038BD3424002010B50C469A
:1058C000B1F90E1000F0D6F80028ABBF636DA389C4
:1058D0001B1823F48053ACBF6365A38110BD2DE971
:1058E000F0411F468B89DB0505460C46164605D55B
:1058F00002230022B1F90E1000F068F8A389B4F970
:105900000E1023F48053A38132463B462846BDE85F
:10591000F04100F017B810B50C46B1F90E1000F0C8
:1059200055F8431CA38915BF606523F4805343F4E5
:105930008053A38118BFA38110BDB1F90E1000F0F0
:1059400013B8000038B5074C05460846114600223A
:1059500022601A46FDF786FF431C02D1236803B17B
:105960002B6038BD3424002038B5064C0023054692
:1059700008462360FEF762FE431C02D1236803B190
:105980002B6038BD3424002038B5074C0023054671
:10599000084611462360FEF754FE431C02D12368DB
:1059A00003B12B6038BD00BF3424002038B5064C4D
:1059B0000023054608462360FEF748FE431C02D13B
:1059C000236803B12B6038BD3424002038B5074C60
:1059D000054608461146002222601A46FEF738FEA8
:1059E000431C02D1236803B12B6038BD342400204E
:1059F000884210B501EB020303D8421E99420CD134
:105A000010BD9842F9D28118D21AD34200D110BDEC
:105A100013F8014D01F8014DF7E711F8014B02F8B9
:105A2000014FEBE770477047F8B5074614460E463E
:105A300021B91146BDE8F840FFF7ACBA22B9FFF72B
:105A40005BFA25462846F8BD00F026F884420FD9B7
:105A500021463846FFF79EFA05460028F2D0314627
:105A60002246FEF7F5FE31463846FFF745FAE9E7EC
:105A70003546E7E738B5074C05460846114600228B
:105A800022601A46FEF7B2FD431C02D1236803B11F
:105A90002B6038BD3424002051F8040C0028A0F1FC
:105AA0000400BCBF0B58C01870470000F8B500BF19
:105AB000F8BC08BC9E467047F8B500BFF8BC08BCEF
:045AC0009E46704747
:105AC800F38F7CE17434633FCD64948A87C6643F66
:105AD800549FA430B05D673F91543F395FF46A3FEB
