:020000040800F2
:1000000000800120F1530008D1510008D3510008AD
:10001000D5510008D7510008D95100080000000050
:10002000000000000000000000000000DB5100089C
:10003000DD51000800000000DF510008E151000818
:10004000415400084154000841540008415400083C
:100050004154000841540008E5510008EB510008E4
:10006000F1510008F75100084154000841540008BC
:100070004154000841540008FD5100084154000853
:100080000952000815520008415400084154000864
:10009000415400084154000841540008215200080E
:1000A00041540008415400084154000841540008DC
:1000B00041540008415400084154000841540008CC
:1000C00041540008415400084154000841540008BC
:1000D00041540008415400084154000841540008AC
:1000E000415400084154000841540008415400089C
:1000F000415400084154000841540008415400088C
:10010000415400084154000841540008415400087B
:10011000415400084154000841540008415400086B
:10012000415400084154000841540008415400085B
:100130004154000829520008415400084154000865
:10014000415400084154000841540008415400083B
:10015000415400084154000841540008415400082B
:10016000415400084154000841540008415400081B
:1001700041540008415400084154000800000000A8
:0801800041540008415400083D
:1001900010B5054C237833B9044B13B10448AFF3C1
:1001A00000800123237010BDF40000200000000037
:1001B000F466000808B5034B1BB103490348AFF3CD
:1001C000008008BD00000000F8000020F466000870
:1001D000034613F8012B002AFBD1181A0138704787
:1001E00001F0FF01102A2BDB10F0070F08D010F8E8
:1001F000013B013A8B422DD010F0070F42B3F6D1EC
:10020000F0B441EA012141EA014122F007047FF004
:1002100000070023F0E80256083C85EA010586EA5B
:10022000010685FA47F5A3FA87F586FA47F6A5FA97
:1002300087F68EB9EED1F0BC01F0FF0102F00702A3
:1002400032B110F8013B013A83EA010313B1F8D14E
:100250000020704701387047002D06BF354603382F
:10026000073815F0010F07D1013015F4807F02BF68
:10027000013015F4C03F0130F0BC0138704700BFB9
:1002800081F0004102E000BF83F0004330B54FEA47
:1002900041044FEA430594EA050F08BF90EA020FB4
:1002A0001FBF54EA000C55EA020C7FEA645C7FEA47
:1002B000655C00F0E2804FEA5454D4EB5555B8BF6A
:1002C0006D420CDD2C4480EA020281EA030382EADB
:1002D000000083EA010180EA020281EA0303362D6D
:1002E00088BF30BD11F0004F4FEA01314FF4801C40
:1002F0004CEA113102D0404261EB410113F0004F52
:100300004FEA03334CEA133302D0524263EB430308
:1003100094EA050F00F0A780A4F10104D5F1200EA6
:100320000DDB02FA0EFC22FA05F2801841F1000101
:1003300003FA0EF2801843FA05F359410EE0A5F1D5
:1003400020050EF1200E012A03FA0EFC28BF4CF006
:10035000020C43FA05F3C01851EBE37101F00045BC
:1003600007D54FF0000EDCF1000C7EEB00006EEBC9
:100370000101B1F5801F1BD3B1F5001F0CD3490853
:100380005FEA30004FEA3C0C04F101044FEA4452AA
:1003900012F5800F80F09A80BCF1004F08BF5FEA31
:1003A000500C50F1000041EB045141EA050130BD11
:1003B0005FEA4C0C404141EB010111F4801FA4F1B4
:1003C0000104E9D191F0000F04BF01460020B1FA09
:1003D00081F308BF2033A3F10B03B3F120020CDA41
:1003E0000C3208DD02F1140CC2F10C0201FA0CF01F
:1003F00021FA02F10CE002F11402D8BFC2F1200C84
:1004000001FA02F120FA0CFCDCBF41EA0C01904039
:10041000E41AA2BF01EB0451294330BD6FEA040482
:100420001F3C1CDA0C340EDC04F11404C4F120026D
:1004300020FA04F001FA02F340EA030021FA04F37F
:1004400045EA030130BDC4F10C04C4F1200220FAD6
:1004500002F001FA04F340EA0300294630BD21FA14
:1004600004F0294630BD94F0000F83F4801306BFDA
:1004700081F480110134013D4EE77FEA645C18BFCE
:100480007FEA655C29D094EA050F08BF90EA020F65
:1004900005D054EA000C04BF1946104630BD91EA5D
:1004A000030F1EBF0021002030BD5FEA545C05D160
:1004B0004000494128BF41F0004130BD14F580049F
:1004C0003CBF01F5801130BD01F0004545F0FE4113
:1004D00041F470014FF0000030BD7FEA645C1ABF48
:1004E000194610467FEA655C1CBF0B46024650EA7F
:1004F000013406BF52EA033591EA030F41F40021AB
:1005000030BD00BF90F0000F04BF0021704730B530
:100510004FF4806404F132044FF000054FF0000105
:1005200050E700BF90F0000F04BF0021704730B5C6
:100530004FF4806404F1320410F0004548BF40429B
:100540004FF000013EE700BF42004FEAE2014FEAF0
:1005500031014FEA02701FBF12F07F4393F07F4FCB
:1005600081F06051704792F0000F14BF93F07F4FFD
:10057000704730B54FF4607401F0004521F0004140
:1005800020E700BF50EA010208BF704730B54FF0C6
:1005900000050AE050EA010208BF704730B511F0CB
:1005A000004502D5404261EB41014FF4806404F103
:1005B00032045FEA915C3FF4DCAE4FF003025FEA85
:1005C000DC0C18BF03325FEADC0C18BF033202EB0D
:1005D000DC02C2F1200300FA03FC20FA02F001FA67
:1005E00003FE40EA0E0021FA02F11444C1E600BF06
:1005F00070B54FF0FF0C4CF4E06C1CEA11541DBFB9
:100600001CEA135594EA0C0F95EA0C0F00F0DEF883
:100610002C4481EA030621EA4C5123EA4C5350EA68
:10062000013518BF52EA033541F4801143F48013B9
:1006300038D0A0FB02CE4FF00005E1FB02E506F04A
:100640000042E0FB03E54FF00006E1FB03569CF09F
:10065000000F18BF4EF0010EA4F1FF04B6F5007FA5
:1006600064F5407404D25FEA4E0E6D4146EB060617
:1006700042EAC62141EA55514FEAC52040EA5E50A0
:100680004FEACE2EB4F1FD0C88BFBCF5E06F1ED84A
:10069000BEF1004F08BF5FEA500E50F1000041EB81
:1006A000045170BD06F0004646EA010140EA02002E
:1006B00081EA0301B4EB5C04C2BFD4EB0C0541EA50
:1006C000045170BD41F480114FF0000E013C00F365
:1006D000AB8014F1360FDEBF002001F0004170BD89
:1006E000C4F10004203C35DA0C341BDC04F11404A2
:1006F000C4F1200500FA05F320FA04F001FA05F22E
:1007000040EA020001F0004221F0004110EBD370FA
:1007100021FA04F642EB06015EEA430E08BF20EA26
:10072000D37070BDC4F10C04C4F1200500FA04F3C9
:1007300020FA05F001FA04F240EA020001F000415B
:1007400010EBD37041F100015EEA430E08BF20EACE
:10075000D37070BDC4F1200500FA05F24EEA020E16
:1007600020FA04F301FA05F243EA020321FA04F045
:1007700001F0004121FA04F220EA020000EBD370FC
:100780005EEA430E08BF20EAD37070BD94F0000FFC
:100790000FD101F00046400041EB010111F4801F30
:1007A00008BF013CF7D041EA060195F0000F18BFE1
:1007B000704703F00046520043EB030313F4801F1D
:1007C00008BF013DF7D043EA0603704794EA0C0FD7
:1007D0000CEA135518BF95EA0C0F0CD050EA4106ED
:1007E00018BF52EA4306D1D181EA030101F000416A
:1007F0004FF0000070BD50EA410606BF1046194692
:1008000052EA430619D094EA0C0F02D150EA01369D
:1008100013D195EA0C0F05D152EA03361CBF1046DE
:1008200019460AD181EA030101F0004141F0FE417D
:1008300041F470014FF0000070BD41F0FE4141F401
:10084000780170BD70B54FF0FF0C4CF4E06C1CEA01
:1008500011541DBF1CEA135594EA0C0F95EA0C0FB6
:1008600000F0A7F8A4EB050481EA030E52EA033571
:100870004FEA013100F088804FEA03334FF0805592
:1008800045EA131343EA12634FEA022245EA1115BF
:1008900045EA10654FEA00260EF000419D4208BF70
:1008A000964244F1FD0404F5407402D25B084FEA1D
:1008B0003202B61A65EB03055B084FEA32024FF4C9
:1008C00080104FF4002CB6EB020E75EB030E22BF26
:1008D000B61A754640EA0C005B084FEA3202B6EBE6
:1008E000020E75EB030E22BFB61A754640EA5C0095
:1008F0005B084FEA3202B6EB020E75EB030E22BF25
:10090000B61A754640EA9C005B084FEA3202B6EB25
:10091000020E75EB030E22BFB61A754640EADC00E4
:1009200055EA060E18D04FEA051545EA16754FEA46
:1009300006164FEAC30343EA52734FEAC2025FEA64
:100940001C1CC0D111F4801F0BD141EA00014FF0F3
:1009500000004FF0004CB6E711F4801F04BF0143C4
:100960000020B4F1FD0C88BFBCF5E06F3FF6AFAEE0
:10097000B5EB030C04BFB6EB020C5FEA500C50F170
:10098000000041EB045170BD0EF0004E4EEA1131F3
:1009900014EB5C04C2BFD4EB0C0541EA045170BDFA
:1009A00041F480114FF0000E013C90E645EA060E3E
:1009B0008DE60CEA135594EA0C0F08BF95EA0C0F6C
:1009C0003FF43BAF94EA0C0F0AD150EA01347FF4B4
:1009D00034AF95EA0C0F7FF425AF104619462CE78B
:1009E00095EA0C0F06D152EA03353FF4FDAE1046EE
:1009F000194622E750EA410618BF52EA43067FF43F
:100A0000C5AE50EA41047FF40DAF52EA43057FF4CE
:100A1000EBAE12E74FF0FF3C06E000BF4FF0010CD9
:100A200002E000BF4FF0010C4DF804CD4FEA410C3D
:100A30007FEA6C5C4FEA430C18BF7FEA6C5C1BD00A
:100A400001B050EA410C0CBF52EA430C91EA030F8B
:100A500002BF90EA020F0020704710F1000F91EAE8
:100A6000030F58BF994208BF90422CBFD8176FEAB6
:100A7000E37040F0010070474FEA410C7FEA6C5C84
:100A800002D150EA013C07D14FEA430C7FEA6C5C8B
:100A9000D6D152EA033CD3D05DF8040B704700BFB7
:100AA0008446104662468C461946634600E000BF05
:100AB00001B5FFF7B7FF002848BF10F1000F01BDD7
:100AC0004DF808EDFFF7F4FF0CBF012000205DF8A2
:100AD00008FB00BF4DF808EDFFF7EAFF34BF012027
:100AE00000205DF808FB00BF4DF808EDFFF7E0FFC0
:100AF00094BF012000205DF808FB00BF4DF808ED11
:100B0000FFF7CEFF94BF012000205DF808FB00BF77
:100B10004DF808EDFFF7C4FF34BF012000205DF859
:100B200008FB00BF53B94AB9002908BF00281CBF01
:100B30004FF0FF314FF0FF3000F0B6B9ADF1080CC7
:100B40006DE904CE00F042F8DDF804E0DDE90223AF
:100B500004B0704738B50022002304460D46FFF765
:100B6000B9FF28B920462946BDE8384000F00AB848
:100B7000204605F1004100F005F8404261EB4101DB
:100B800038BD00BFD0B500220E4B06460F46FFF71A
:100B90002FFD00F08BF90446FFF7B4FC00220A4B4E
:100BA000FFF726FD02460B4630463946FFF76CFB41
:100BB00000F07CF92346002242EA00021046194662
:100BC000D0BD00BF0000F03D0000F0412DE9F0472E
:100BD0008C460D460446089E002B51D18A4217468A
:100BE0006DD9B2FA82FEBEF1000F0BD0CEF1200C0F
:100BF00001FA0EF520FA0CFC02FA0EF74CEA050C8D
:100C000000FA0EF44FEA174A250CBCFBFAF81FFA5B
:100C100087F90AFB18CC45EA0C4508FB09F3AB42FF
:100C20000AD9ED1908F1FF3280F02381AB4240F27E
:100C30002081A8F102083D44ED1AA4B2B5FBFAF0F8
:100C40000AFB105544EA054400FB09F9A14509D9FE
:100C5000E41900F1FF3380F00A81A14540F20781D9
:100C600002383C44A4EB090440EA08400021002E6D
:100C700061D024FA0EF4002334607360BDE8F0877D
:100C80008B4207D9002E54D0002186E82100084667
:100C9000BDE8F087B3FA83F1002940F08E80AB42C3
:100CA00002D3824200F2FA80841A65EB0305012028
:100CB000AC46002E3FD086E81010BDE8F08712B990
:100CC0000127B7FBF2F7B7FA87FEBEF1000F34D168
:100CD000EB1B3A0C1FFA87FC0121B3FBF2F8250C41
:100CE00002FB183345EA03450CFB08F3AB4207D976
:100CF000ED1908F1FF3002D2AB4200F2D1808046FC
:100D0000ED1AA3B2B5FBF2F002FB105543EA05441D
:100D10000CFB00FCA44507D9E41900F1FF3302D213
:100D2000A44500F2B8801846A4EB0C0440EA084041
:100D30009DE731463046BDE8F087CEF1200405FA44
:100D40000EF307FA0EF720FA04F83A0C25FA04F429
:100D500048EA0308B4FBF2F14FEA184502FB1144DC
:100D60001FFA87FC45EA044501FB0CF3AB4200FA8D
:100D70000EF409D9ED1901F1FF3080F08A80AB4201
:100D800040F2878002393D44EB1A1FFA88F5B3FB25
:100D9000F2F002FB103345EA034500FB0CF3AB42D3
:100DA00007D9ED1900F1FF386FD2AB426DD9023887
:100DB0003D44EB1A40EA01418FE7C1F1200722FAD6
:100DC00007F88B4005FA01F448EA030320FA07FE0E
:100DD0004FEA134CFD404EEA040EB5FBFCF94FEA16
:100DE0001E440CFB19551FFA83F844EA054509FB1C
:100DF00008F4AC4202FA01F200FA01FA08D9ED183F
:100E000009F1FF3043D2AC4241D9A9F102091D4496
:100E10002D1B1FFA8EFEB5FBFCF00CFB10554EEAA5
:100E2000054400FB08F8A04507D9E41800F1FF3598
:100E300029D2A04527D902381C4440EA0940A4EB36
:100E40000804A0FB02894C45C6464D4615D312D076
:100E500056B1BAEB0E0364EB050404FA07F7CB4076
:100E60001F43CC40376074600021BDE8F08718460E
:100E7000F8E69046E0E6C245EAD2B8EB020E69EB2E
:100E800003050138E4E72846D7E7404691E7814665
:100E9000BEE7014678E702383C4445E7084608E7E4
:100EA000A8F102083D442BE7704700BF4A0011D269
:100EB00012F5001211D20DD56FF47873B3EB6252B4
:100EC0000ED44FEAC12343F0004343EA505323FAC0
:100ED00002F070474FF00000704750EA013002D135
:100EE0004FF0FF3070474FF00000704738B50F4BA0
:100EF0000546186808B9012038BD0D4A4FF47A73C9
:100F0000B3FBF0F31068B0FBF3F000F0A5F8044673
:100F10000028F0D10F2DEED8024629464FF0FF30C1
:100F200000F058F8034B20461D6038BD000000203B
:100F30008C00002004000020094A136843F48073E9
:100F400010B50320136000F033F80020FFF7CEFF48
:100F5000044618B904F024F9204610BD0124FBE72B
:100F600000200240034A0449136809680B441360D7
:100F7000704700BF6001002000000020014B18688E
:100F8000704700BF6001002038B50446FFF7F6FF48
:100F9000631C1CBF054B1B68054618BFE418FFF710
:100FA000EDFF401B8442FAD838BD00BF000000208E
:100FB000074AD36823F4E0631B041B0C43F0BF63B0
:100FC000000243F4003300F4E0600343D360704751
:100FD00000ED00E0174B30B5DC68C4F30224C4F127
:100FE0000703251D042B28BF0423062D4FF0010500
:100FF00005FA03F303F1FF338CBF033C00241940CF
:10100000A14005FA04F4013C2240002842EA010212
:101010004FEA0212ADBF00F1604000F00F00064B36
:1010200000F56140B5BFD2B2D2B21A5480F80023A5
:1010300030BD00BF00ED00E014ED00E0002808DB4B
:101040004209012300F01F0003FA00F0014B43F8AE
:101050002200704700E100E00138B0F1807F0AD241
:10106000064B074A5860F02182F82310002007221F
:1010700098601A6070470120704700BF10E000E0E0
:1010800000ED00E0426B036890F84C103AB91A6822
:1010900042F400321A6001291CD102231BE01A68B5
:1010A00022F001021A601A6842F400221A601A68DB
:1010B000032942F001021A60EDD1826B1AB91A6855
:1010C00042F002021A6090F84030012B0CBF436CD2
:1010D00001238364042380F84C307047144B9842FA
:1010E00017D02033984216D02033984215D02033A1
:1010F000984214D02033984213D02033984212D013
:101100002033984211D0203398420CBF0720002092
:10111000704700207047012070470220704703206D
:10112000704704207047052070470620704700BFB5
:101130000060014038B50446002867D00068344D8F
:10114000FFF7CCFF55F82030002B5FD1204602F08E
:10115000C5FC304B1A6801321A601B68012B19D18B
:101160002D4B1A6822F080421A601A68A1680A435F
:101170001A601A6822F47F021A602279012A05D1C6
:10118000E1681A68013942EA01421A601A6842F0BD
:1011900000421A6020686169036823F471430360A8
:1011A000236902680B43A1690B431343036003687F
:1011B000216A23F00F030360E36902680B431343C2
:1011C00003608368616AA26A23F45F0383608368B3
:1011D000013A0B4343EA024383604368226B03F006
:1011E00007034360436843EAC203E26A43EA022317
:1011F0004360036843F080030360012384F83430C4
:10120000FFF76CFF45F82040002038BD012038BDB5
:10121000100100203001002000600140704770473D
:1012200038B50446002869D00268354B9A4205D18A
:101230004068012863D0E068012860D000230122C3
:1012400023636264A2642365204602F0DFFB236807
:10125000207C1A6822F400221A60227A012A1A6875
:101260000CBF42F0005222F000521A60627A012A4A
:101270001A680CBF42F4001222F400121A601A68B5
:10128000E56822F4CE4222F008021A60022D01BF66
:101290001A6861690A431A601A6801280CBF42F093
:1012A000100222F010021A60627C012A1A680CBF38
:1012B00042F0200222F020021A605A6922F06342B2
:1012C00002F0FF225A61626A5969013A0A43E169F0
:1012D0000A43216A013942EA01425A616268626343
:1012E000A269A563E2631A6884F8400042F0010233
:1012F0001A60012384F84C30002038BD012038BD2D
:101300000061014090F84C30013BDBB2FD2B10B581
:1013100013D803681C6824F0E06424F480241C6063
:1013200009021C68012A01F07F4108BF41F48021B5
:10133000214319600263002010BD012010BD90F808
:101340004C30013BDBB2FD2B12D8036889B2196126
:10135000002341B990F840204364012A18BF0123BB
:10136000836408467047CA0748BF01334908F0E75D
:1013700001207047F8B5134605460A4651B34BB3F2
:1013800007683968890225D5416B49B9016B39B9BC
:10139000816AC86908B9012B1CD1C969202919D0F3
:1013A00095F84C6006F0FD06012E13D1A86A0D4990
:1013B000C1620D494163C1690C4C202918BF00244A
:1013C000046307F11C0100F051F9044620B1FF232A
:1013D00085F84C30012402E02846FFF753FE2046F2
:1013E000F8BD00BFF31300080F140008FF13000836
:1013F000704708B5806AFFF7FBFF08BD704708B566
:10140000806AFFF7FBFF08BD70477047704708B55B
:10141000806A03230365FFF7F9FF08BD0368996835
:101420005A682DE9F0410F07044609D5160707D57C
:101430000822DA6001230365FFF7E8FFBDE8F081C9
:101440004D0707D5500705D50422DA60022323652E
:101450002046F1E78F071BD5960719D52046FFF7E1
:10146000C7FF236B002B40F09980636B002B40F08B
:1014700095802268536823F00203536094F84C303F
:10148000022B0CBF0123032384F84C30BDE8F0810C
:10149000CD0721D512F001051ED02046FFF7B4FF7D
:1014A000A36C013BA364002B78D1A36B63B92268C2
:1014B000536823F00103536094F84C30032B0CBFA6
:1014C0000123022384F84C3094F84030012B08BFEC
:1014D000656CA564BDE8F081C8061BD5D70619D593
:1014E000986A10F0FF0257D001220021C60701D4EC
:1014F00007290AD101205AB901F10805A840D8628C
:101500002046FFF782FFBDE8F08101314008EDE79A
:101510008840F4E72248834240D111F47F0F20D065
:1015200055061ED59E681F4FC6F3074600254FF08F
:101530000108F2070ED557F8250058B103681B685B
:101540005B0607D5226805F1100308FA03F3D360A0
:10155000FFF764FE0135082D4FEA5606E9D1BDE8D4
:10156000F08111F07F4F19D0940617D582680023BF
:10157000120ED10701D4072B0BD103F11801012260
:101580008A40C260074A52F82300FFF748FEBDE8D0
:10159000F08101335208ECE7000AA6E7BDE8F081CC
:1015A000006101401001002030B500284ED00168D4
:1015B000274B99424FF0140440D8264A0A44B2FB04
:1015C000F4F292004264A3F207430364022380F81A
:1015D00025308468C36805690A6823432B4345693D
:1015E0002B4385692B43C5692B43056A22F4FF42CF
:1015F00022F070022B431343B4F5804F0B6014D0DC
:10160000026C154B9A420CBF14491549436C0A6889
:1016100003F01C030F249C4022EA04020A60426883
:101620000C6802FA03F323430B6000230122C36317
:1016300080F8243080F82520184630BD094B0B4433
:10164000B3FBF4F39B004364074BBEE7012030BDBE
:1016500007040240F8FFFDBF00000240A80002405E
:10166000A8040240F8FBFDBF00040240F0B590F86A
:101670002440012C38D090F825500124EDB2A54229
:1016800080F824404FF000064FF002042AD180F881
:1016900025400468C6632668076C26F001062660AC
:1016A000466C06F01C06B5407D6063608368056883
:1016B000102B036B0BBFA260A160E160E2604BB135
:1016C000236843F00E0323602B6843F001032B6073
:1016D0000020F0BD236823F004032360236843F057
:1016E0000A03F0E780F824600220F0BD90F825306E
:1016F000022B06D00423C363002380F8243001208A
:1017000070470368016C1A6822F00E021A601A68AA
:1017100022F001021A60436C012203F01C0302FA5A
:1017200003F34B60002380F8252080F8243018460E
:101730007047016C426C036870B402F01C020E68C2
:101740001D680424944026420ED015F0040F0BD0DF
:101750001A6892065EBF1A6822F004021A60036BD0
:101760004C6073B370BC184702249440264212D0D8
:1017700015F0020F0FD01A68950606D41A6822F0E9
:101780000A021A60012380F8253000234C6080F89B
:101790002430C36AE5E708249440344211D02C0772
:1017A0000FD51C6824F00E041C60012303FA02F21A
:1017B0004A60C36380F82530002380F82430436BEF
:1017C000CFE770BC704700002DE9F04F85B00B6883
:1017D000DFF8A881674C01930023019ADA4002D117
:1017E00005B0BDE8F08F0126019A9E4012EA060E70
:1017F00000F0B1804A6822F01007022F16D14FEA9C
:10180000D30900EB890903F0070AD9F820504FEA01
:101810008A0A4FF00F0C0CFA0AFC25EA0C0C0D6931
:1018200005FA0AF545EA0C05C9F820504FEA430CC1
:101830000325D0F800B005FA0CF5ED4302F0030AD9
:101840000BEA050B0AFA0CF9013F49EA0B09012FD3
:10185000C0F8009011D8876805EA0709CF6807FA31
:101860000CF747EA09078760476827EA0609C2F3C9
:1018700000179F4047EA09074760BAF1030F07D1F5
:10188000C76A27EA0606C2F3C0079F403E43C66206
:10189000C66835408E6806FA0CF63543C560D5003B
:1018A00059D5D8F8605045F00105C8F86050D8F80F
:1018B000605023F0030606F1804605F0010506F5A9
:1018C0008036039503F0030C039DB5684FEA8C0C3A
:1018D0000F2707FA0CF7B0F1904F25EA07073CD025
:1018E000254DA8423BD005F58065A84239D005F5C5
:1018F0008065A84237D005F58065A84235D005F54A
:101900008065A84233D005F58065A84214BF07253D
:10191000062505FA0CF53D43B56025686FEA0E060D
:10192000D70354BF35404EEA050525606568970327
:1019300054BF35404EEA05056560A568D70254BF1F
:1019400035404EEA0505A560E568920254BF354072
:101950004EEA0505E56001333FE70025D9E701259B
:10196000D7E70225D5E70325D3E70425D1E70525E9
:10197000CFE700BF0004014000040048001002400F
:101980002DE9F04F404CDFF808B100234FF0010A79
:101990004FF00F0831FA03F201D1BDE8F08F0AFAD7
:1019A00003F511EA050660D023F0030707F180472D
:1019B00007F5803703F0030EBA684FEA8E0E08FA77
:1019C0000EF9B0F1904F02EA090C50D02F4A904224
:1019D0004FD002F5806290424DD002F58062904275
:1019E0004BD002F58062904249D002F5806290426D
:1019F00047D058450CBF0622072202FA0EF2944542
:101A000010D12268F6433240226062683240626040
:101A1000A2683240A260E2681640E660BA6822EA34
:101A20000902BA60066803275A0007FA02F223FA8D
:101A300007F7164300EB8707066003F00706D7F8A1
:101A400020E0B60008FA06F62EEA06063E62866830
:101A5000D243164086604668ED432E404660C66815
:101A60003240C260C26A1540C562013392E700226B
:101A7000C3E70122C1E70222BFE70322BDE7042238
:101A8000BBE70522B9E700BF00040140000400489D
:101A9000001800480AB1816170478162704743694C
:101AA0000B4214BF816281617047000008B5044B8E
:101AB0005969014202D0586102F0B4F908BD00BF73
:101AC000000401402DE9F0411D4690F83530013BFE
:101AD000012B04460F4616462ED890F83530DBB25F
:101AE000012B09D0216801EB870100204B693340AD
:101AF0002B434B61BDE8F08190F83420012A4FF070
:101B000002001AD084F8343084F83500FFF736FA32
:101B1000804623689B685B07E4D5FFF72FFAA0EBAC
:101B20000800B0F57A7FF4D90223A363002384F878
:101B300034300320BDE8F0810120BDE8F081036866
:101B4000082270B5DA609A6842F004029A6004468E
:101B5000FFF714FA064623689D6815F0080506D0BD
:101B60000123002084F8353084F8340070BDFFF77D
:101B700005FA801BB0F57A7FEDD90423A36384F8BE
:101B80003450032070BD38B590F83530013B012B3F
:101B900004462CD890F83430012B4FF0020027D0A7
:101BA000012384F8343084F83500FFF7E7F905465F
:101BB00021688B6813F004030CD118461A1D01EB41
:101BC00082020133102B5060F8D12046BDE8384026
:101BD000FFF7B5BFFFF7D2F9401BB0F57A7FE7D921
:101BE0000223A363002384F83430032038BD01208E
:101BF00038BD38B50446FFF7C1F9054623689B6830
:101C00009B0601D5002038BDFFF7B8F9401BB0F5A1
:101C10007A7FF3D90123A363032038BD70B504464E
:101C2000002874D090F8353003F0FF021BB980F81B
:101C3000342002F083F80223226884F835301368D8
:101C400023F00103136000231846191D02EB8101E4
:101C50000133102B4860F8D19368A06843F0040367
:101C60009360636851680343A06A0343E06A0343D7
:101C7000E0690343206A0343A06921F07F710343B5
:101C800021F47F31606A21F47C71034321F001016A
:101C90000B4353602046FFF7ACFF054668BB206945
:101CA000E36822680343606911680343206B21F0F5
:101CB000FE0103430B431360136843F001031360F9
:101CC000FFF75CF9064623689B68DA070CD5FFF737
:101CD00055F9064623689B68DB0610D50023A363ED
:101CE000012384F8353008E0FFF748F9801BB0F590
:101CF0007A7FE8D90823A3630325284670BDFFF740
:101D00003DF9801BB0F57A7FE4D91023F3E7012574
:101D1000F3E70000024B186800F4C060704700BF92
:101D200000700040174B1A68B0F5007F02F4C062E3
:101D30001CD1B2F5007F15D01A6822F4C06242F4BB
:101D400000721A60104A116832224A430F49B2FBEE
:101D5000F1F2194601325869400500D522B94B69A4
:101D60005B050DD400207047013AF4E7B2F5806FAF
:101D70001FBF1A6822F4C06242F480621A60F1E761
:101D800003207047007000408C00002040420F008C
:101D90002DE9F0430446486A38B1B2F1406F1FBFE5
:101DA0008B6A256803F1FF332B6101F1180393E877
:101DB0000803002B4FD02468D1F82CC0D1F830E0B4
:101DC0004F6B0E684D690343B9F1000F23D088684B
:101DD000E0611343086943EA0903B8F1000F0ED02C
:101DE00043EA080343EA0C0343EA0E033B4303437D
:101DF000C8680343334343EA854363611DE043EA14
:101E00000C0343EA0E033B430343334343EA854356
:101E10006361BDE8F083B8F1000F15D043EA02001A
:101E200040EA080040EA0C00CB6840EA0E00384364
:101E30001843304340EA85406061B2F1406FE8D01A
:101E40004B68A361BDE8F083134343EA0C0343EA04
:101E50000E033B43D9E7B9F1000F1AD024688B6811
:101E6000E36140EA0903D1F82CC0D1F830E04F6BB0
:101E70000E694D691343B8F1000FE6D043EA08003C
:101E800040EA0C0343EA0E033B43C8683343034371
:101E9000B1E7B8F1000F0FD040EA0803C86A246820
:101EA00013430343086B0343486B0343C86803436E
:101EB000486943EA8043A0E70028AAD0CB6A246897
:101EC000034313430A6B13434A6B13434A6943EAC0
:101ED00082439DE72DE9F041069D04460F461646D4
:101EE000984621688A683A4214BF01220022B24211
:101EF00002D10020BDE8F0816B1CF3D0FFF73EF863
:101F0000A0EB0800854201D3002DEAD1042384F818
:101F10003930E36B43F00103E3630120BDE8F08156
:101F200037B50446FFF72AF80546002C49D094F847
:101F30003830012B47D0012384F8383094F8392009
:101F400002F0FF033AB984F83830204602F0E4FA90
:101F500041F2883323642068A1680268236C013948
:101F600022F4706242EA01220260202100930022E2
:101F70002B462046FFF7AEFFF0B92268656811686E
:101F8000E36821F07F4143EA056321F010010B4330
:101F90001360A169636955680B43216943EA0143F2
:101FA0000A4929400B435360136843F0010313604F
:101FB0000123E06384F83930002384F8383003B01B
:101FC00030BD0120FBE70220F9E700BFFEF8E0FF8B
:101FD00010B50446A0B190F83830012B12D0026839
:101FE000012380F83830136823F00103136002F0F6
:101FF000C9FA0020E06384F8390084F8380010BD85
:10200000012010BD022010BD2DE9F34704468A4689
:102010009146FEF7B3FF94F83830012B804635D057
:10202000012384F8383094F83960F6B29E424FF0BC
:10203000020729D10022E263034684F83970CDF803
:10204000009020212046FFF745FF0546A8B902462B
:1020500051462046FFF79CFEDAF824305BB9CDF8F4
:1020600000904346324639462046FFF733FF054687
:1020700018B92368DF6084F83960002384F83830A9
:10208000284602B0BDE8F0873D46F6E70225F7E7AF
:102090002DE9F7430446984689461646FEF76EFF3B
:1020A00094F83830012B074642D0012384F83830A9
:1020B00094F83950EDB29D4238D142230022E263B8
:1020C000CDF8008084F83930202103462046FFF700
:1020D00001FF28BB236832689A6272685A62B2684C
:1020E000DA621968326921F4400142F480020A433D
:1020F0001A60F368C9F828304FF00062494620465C
:10210000FFF746FECDF800803B462A4608212046D0
:10211000FFF7E0FE20B923680822DA6084F839501E
:10212000002384F8383003B0BDE8F0830220F7E7DD
:102130000220F8E737B50446FEF720FF054694F87D
:10214000390010F0020034D0002384F838302368BE
:102150001A6852070BD51A68606B22F004021A60E5
:10216000FFF7C4FA18B1E36B43F00403E36322689A
:10217000136843F002031360236C009301222B4683
:1021800002212046FFF7A6FE98B923680222DA60F2
:10219000236C009302462B4620212046FFF79AFE2F
:1021A00038B92268536923F040635361012384F8EE
:1021B000393003B030BD2DE9F34104468846174657
:1021C000FEF7DCFE94F83830012B064650D0012390
:1021D00084F8383094F839002568C0B2984245D167
:1021E0000023E363B8F1000F3BD0122384F83930A9
:1021F0002B69013363622B69C4F81C8001332362AD
:102200006B6923F040636B61636AB3B9009733462F
:10221000012202212046FFF75DFE28B92368022231
:10222000DA602046FFF786FF012384F83930002367
:1022300084F8383002B0BDE8F081009733460122BF
:1022400004212046FFF746FE0028EDD1E3691B7804
:1022500085F82030E3690133E361636A013B63621F
:10226000D2E7E36B43F00803E363E0E70220DEE735
:102270000220DFE72DE9F341044617468846FEF7C2
:102280007DFE2568AA6994F83830012B064652D0A5
:10229000012384F8383094F83900C0B2984248D10C
:1022A0000023E363B8F1000F3ED0222384F83930D5
:1022B0002B69013323632B69C4F828800133E3625F
:1022C0006B6923F0406343F080636B61AA61236B09
:1022D000B3B900973346012202212046FFF7FAFDE9
:1022E00028B923680222DA602046FFF723FF012382
:1022F00084F83930002384F8383002B0BDE8F0812A
:1023000000973346012206212046FFF7E3FD00280F
:10231000EDD1A36A95F820201A70A36A0133A36255
:10232000236B013B2363D2E7E36B43F00803E363D2
:10233000E0E70220DEE70220DFE7000037B51E4DB0
:10234000AB6DDA00044618D5FFF7E4FCB0F5007F6A
:1023500023D1802C29D9A02C8CBF02200120174A20
:10236000136823F0070303431360136803F00703A4
:10237000181A18BF012003B030BDAB6D43F0805375
:10238000AB65AB6D03F080530193019BFFF7C2FC7B
:10239000AB6D23F08053AB65D8E7802C07D808D00D
:1023A000A4F1700358425841D9E70020D7E7032031
:1023B000D5E70220D3E700BF001002400020024012
:1023C000224B9A68D96812F00C0205D00C2A15D15C
:1023D00001F00301012918D119681D48090755BFEB
:1023E000D3F894101968C1F30321C1F3031150F815
:1023F00021004AB30C2A09D000207047042A22D0B9
:10240000082A144818BF002070470020DA6802F03C
:102410000302022A15D00F49032A08BF0846DA68CA
:10242000D968DB68C3F34163C1F30621C2F302122A
:102430000133484301325B00B0FBF2F0B0FBF3F034
:1024400070470548EBE70448704700BF00100240A2
:10245000B86A000800127A000024F4002DE9F7435E
:10246000054608B9012047E0A64C0368A668E7685E
:10247000DB0606F00C0607F0030773D51EB10C2E21
:1024800052D1012F50D12368980702D5AB69002B98
:10249000E8D02368286A190756BFD4F89430236817
:1024A0001B0903F0F003834229D2FFF747FF0028FE
:1024B000D8D1236843F00803236023682A6A23F0F5
:1024C000F003134323606368EA6923F47F4343EA1C
:1024D00002236360FFF774FFA3688B4AC3F30313FF
:1024E000D35C03F01F03D840884B1860884B1868F2
:1024F000FEF7FCFC002835D003B0BDE8F08323686C
:1025000043F008032360236823F0F00303432360B0
:102510006368EA6923F47F4343EA02236360FFF7B9
:102520000DFF0028D6D09DE7AB69002B36D023687D
:1025300043F001032360FEF721FD804623689A07DC
:1025400024D5236843F00803236023682A6A23F014
:10255000F003134323606368EA6923F47F4343EA8B
:10256000022363602B68D80729D42B68990767D4A6
:102570002B68180700F19C802B68590700F1CA806E
:10258000A86A002840F033810020B5E7FEF7F6FC8A
:10259000A0EB08000228D1D90320ADE7236823F07F
:1025A00001032360FEF7EAFC804623689B07D9D528
:1025B000FEF7E4FCA0EB08000228F6D9ECE7082EB1
:1025C00003D00C2E08D1032F06D123689A03CCD553
:1025D0006B68002BC9D145E76B68B3F5803F10D11C
:1025E000236843F480332360FEF7C8FC80462368E9
:1025F0009B03BAD4FEF7C2FCA0EB08006428F6D90E
:10260000CAE7B3F5A02F04D1236843F480232360E5
:10261000E6E7226822F480322260226822F48022D7
:102620002260002BE0D1FEF7A9FC804623689803C6
:102630009BD5FEF7A3FCA0EB08006428F6D9ABE716
:10264000042E03D00C2E10D1022F0ED12368590571
:1026500003D5EB68002B3FF405AF63682A6923F0CC
:10266000F85343EA0263636082E7EB687BB1236857
:1026700043F480732360FEF781FC074623685A0504
:10268000EBD4FEF77BFCC01B0228F7D984E7236854
:1026900023F480732360FEF771FC074623685B0513
:1026A0007FF566AFFEF76AFCC01B0228F6D973E718
:1026B0006B699BB1D4F8943043F00103C4F89430B3
:1026C000FEF75CFC0746D4F894309A073FF554AF08
:1026D000FEF754FCC01B0228F5D95DE7D4F894300E
:1026E00023F00103C4F89430FEF748FC0746D4F801
:1026F00094309B077FF540AFFEF740FCC01B0228DB
:10270000F5D949E7001002409E6A00088C000020BD
:1027100004000020A36DD80029D4A36D43F080539A
:10272000A365A36D03F080530193019B4FF0010853
:10273000794F3B68D9051DD5AB68012B2BD1D4F857
:10274000903043F00103C4F89030FEF717FC41F2DB
:1027500088390746D4F890309B0742D5B8F1000F6E
:102760003FF40EAFA36D23F08053A36508E74FF04D
:102770000008DDE73B6843F480733B60FEF7FEFB37
:1027800081463B68DA05D7D4FEF7F8FBA0EB0900D9
:102790000228F6D900E7052B06D1D4F8903043F093
:1027A0000403C4F89030CAE7D4F8902022F0010264
:1027B000C4F89020D4F8902022F00402C4F89020AD
:1027C000002BC2D1FEF7DAFB41F288390746D4F874
:1027D00090309807C2D5FEF7D1FBC01B4845F6D90B
:1027E000DAE6FEF7CBFBC01B4845B3D9D4E60C2E86
:1027F0005CD02368022823F0807323603BD1FEF76E
:10280000BDFB0646236899012FD4E268434B134071
:10281000EA6A13436A6B43EA02232A6B013A43EAEA
:102820000213AA6B120943EA4243EA6B5208013AC7
:1028300043EA42532A6C5208013A43EA4263E36096
:10284000236843F080732360E36843F08073E360A0
:10285000FEF794FB054623689A013FF595AEFEF717
:102860008DFB401B0228F6D996E6FEF787FB801BFE
:102870000228C7D990E6236813F0205F02BFE368FF
:1028800023F00303E360E36823F0887323F48033C9
:10289000E360FEF773FB054623689B017FF574AE8A
:1028A000FEF76CFB401B0228F6D975E601283FF4C1
:1028B00023AEE368EA6A03F0030191427FF4D2ADEC
:1028C000296B03F070020139B2EB011F7FF4CAAD2E
:1028D000696B03F4FE42B2EB012F7FF4C3ADAA6B28
:1028E000073A03F4003118BF012291427FF4BAADD8
:1028F000EA6B520803F4C001013AB1EB425F7FF486
:10290000B1AD2A6C5208013A03F0C063B3EB426FD9
:1029100014BF01200020EFE5007000408C809DF97D
:102920002DE9F0410E46044610B90120BDE8F081C2
:10293000414A136803F007038B422AD32368D9075F
:1029400032D421688A075CD43B4A136803F007033A
:102950009E425ED311F0040F384D65D10B0706D5AA
:10296000AB68226923F4605343EAC203AB60FFF70C
:1029700027FDAB68324AC3F30313BDE8F041D35CD3
:1029800003F01F03D8402F4B18602F4B1868FEF739
:10299000ADBA136823F007030B431360136803F009
:1029A00007039942C1D1C9E76268244D032A2B6805
:1029B0001BD113F0007FB8D0AB6823F0030313439F
:1029C000AB60FEF7DBFA41F288380746AB68626815
:1029D00003F00C03B3EB820FB3D0FEF7CFFAC01BAA
:1029E0004045F3D90320BDE8F081022A02D113F457
:1029F000003FE0E712B913F0020FDCE713F4806F39
:102A0000D9E70E4AA068936823F0F003034393606C
:102A10009AE7136823F0070333431360136803F046
:102A200007039E4281D195E7AB68E26823F4E06337
:102A30001343AB6092E700BF002002400010024049
:102A40009E6A00088C00002004000020054B064A06
:102A50009B68C3F30223D35C044A106803F01F038E
:102A6000D840704700100240AE6A00088C00002079
:102A7000054B064A9B68C3F3C223D35C044A106823
:102A800003F01F03D840704700100240AE6A0008F0
:102A90008C000020F8B5454BDA6812F0030F0546AC
:102AA0000E461C4600682AD0DA6802F00302824211
:102AB0003CD1002A3AD0DB686A68C3F302130133C1
:102AC000934233D1236823F080632360FEF756FAE4
:102AD000074623681A0132D4AF68002E36D0012E83
:102AE00050D12269286922F4C002400822F4FE4233
:102AF000013842EA072242EA4052226132E00228CB
:102B000010D0032814D0012810D11B689F0738D596
:102B1000E3686A6823F07303013A184340EA02103D
:102B2000E060CFE71B6813F4806FF1D10120F8BD9E
:102B30001A689103ECD41B6813F4802FF5E7FEF7B5
:102B40001DFAC01B0228C4D90320F8BD2169EB6817
:102B500021F41F3121F4407141EA07211B0941EAA8
:102B600043412161236843F080632360FEF706FA46
:102B7000064623681B0113D52369AA691343236101
:102B80000020F8BD2369686923F0C063400823F47E
:102B9000FE43013843EA072343EA40632361E1E748
:102BA000FEF7ECF9801B0228E3D9CDE700100240C4
:102BB000F8B53D4BDA6812F0030F05460E461C4689
:102BC000006828D0DA6802F0030282423AD1002A73
:102BD00038D0DB686A68C3F302130133934231D102
:102BE000236823F080532360FEF7C8F90746236863
:102BF0009A0030D4A868002E34D06369296923F084
:102C0000C063490823F4FE43013943EA002343EA41
:102C10004163636132E0022810D0032814D00128F8
:102C200010D11B689F0738D5E3686A6823F07303E7
:102C3000013A184340EA0210E060D1E71B6813F440
:102C4000806FF1D10120F8BD1A689103ECD41B68A4
:102C500013F4802FF5E7FEF791F9C01B0228C6D9BF
:102C60000320F8BD6269EB6822F41F3222F440723F
:102C700042EA00221B0942EA43426261236843F0B0
:102C800080532360FEF77AF9064623689B0005D53A
:102C900063696A69134363610020F8BDFEF76EF94A
:102CA000801B0228F1D9DBE7001002402DE9F34731
:102CB000066816F40066044624D0416EB1F5800F14
:102CC0002CD002D8C1B101261CE0B1F5000F0DD007
:102CD000B1F5400FF7D14D4A616ED2F8883023F438
:102CE00040030B43C2F8883000260BE0474AD36804
:102CF00043F48033D360EEE70430FFF7CBFE0646A3
:102D00000028E8D02368D80406D5A16EB1F1807FF1
:102D100074D008D8A9B10126354621E00021203021
:102D2000FFF746FFEBE7B1F1007F04D0B1F1407F40
:102D3000F1D1354609E0354AD36843F48033D36096
:102D4000F7E7201DFFF7A6FE0546002D5CD12F4AB0
:102D5000A16ED2F8883023F040730B43C2F888305C
:102D60002368990340F14F81284FBB6DDA0040F191
:102D700076814FF00008DFF89890D9F8003043F4DE
:102D80008073C9F80030FEF7F9F88246D9F80030B0
:102D9000DB053FD5002D44D1D7F8903013F44073B4
:102DA00015D0D4F88420934211D0D7F89030D7F8BA
:102DB000902042F48032C7F89020D7F8902023F476
:102DC000407322F48032C7F89020C7F89030D807BB
:102DD00009D5FEF7D3F841F288390546D7F8903087
:102DE000990740F10981D7F89030D4F8842023F472
:102DF00040731343C7F89030354612E0002104F1C8
:102E00002000FFF7D5FE9FE72E46A9E700100240FD
:102E100000700040FEF7B2F8A0EB0A000228B5D916
:102E20000325B8F1000F03D0BB6D23F08053BB65C1
:102E30002368DA0708D59049A06BD1F8882022F0E2
:102E400003020243C1F888209F0708D58A49E06B36
:102E5000D1F8882022F00C020243C1F888205E07D6
:102E600008D58549206CD1F8882022F03002024331
:102E7000C1F88820180708D57F49606CD1F88820F0
:102E800022F0C0020243C1F88820D90608D57A4949
:102E9000A06CD1F8882022F440720243C1F8882047
:102EA0009A0608D57449E06CD1F8882022F4406273
:102EB0000243C1F888209F0508D56F49E06DD1F81D
:102EC000882022F440220243C1F888205E0508D5FC
:102ED0006949206ED1F8882022F440120243C1F8DB
:102EE0008820580608D56449206DD1F8882022F43E
:102EF00040520243C1F88820190608D55E49606D2A
:102F0000D1F8882022F440420243C1F88820DA0533
:102F100008D55949A06DD1F8882022F440320243E7
:102F2000C1F888209B040FD5534AE16ED2F888304F
:102F300023F040630B43B1F1006FC2F8883064D1D5
:102F4000D36843F48013D36023681F030FD54A4A24
:102F5000216FD2F8883023F040630B43B1F1006F4A
:102F6000C2F888305CD1D36843F48013D3602368FF
:102F70005E030FD5404A616FD2F8883023F040637A
:102F80000B43B1F1006FC2F8883054D1D36843F4D9
:102F90008013D3602368580412D53749A26FD1F843
:102FA000883023F040531343B2F1805FC1F888307A
:102FB0004CD10221201DFFF76DFD002818BF0546EA
:102FC0002268110408D52C49E06FD1F8883023F02D
:102FD00080430343C1F88830D30309D5264AD4F887
:102FE0008010D2F8883023F000430B43C2F88830B9
:102FF000284602B0BDE8F087FDF7C0FF401B4845FA
:103000007FF6ECAE0CE7354612E7B1F1806F9BD14D
:103010000121201DFFF73EFD002818BF054693E75C
:10302000B1F1806FA3D10121201DFFF733FD0028EE
:1030300018BF05469BE7B1F1806FABD10121201D80
:10304000FFF728FD002818BF0546A3E7B2F1005F8F
:10305000B6D1022104F12000FFF7AAFDADE7BB6D58
:1030600043F08053BB65BB6D03F080530193019B1C
:103070004FF001087FE600BF00100240026838B53B
:10308000D36823F0A003D3600446FDF777FF05461D
:103090002368DB689B0601D5002038BDFDF76EFF75
:1030A000401BB0F57A7FF3D9032038BDF8B503682B
:1030B000DC6814F04004054618D14FF0FF32DA60A6
:1030C000FDF75CFF032706462B68DB685B0601D42F
:1030D000032C01D12046F8BDFDF750FF801BB0F551
:1030E0007A7F84BF85F821700324EDE70024F1E79F
:1030F00038B50F4CE36823F08003E360A3689B06B8
:10310000054606D4FFF7BAFF88B1032085F82100F1
:1031100038BDA36823F02003A360FFF7AFFF10B111
:10312000032085F82100A36843F02003A36038BD85
:103130000028004038B50446002840D090F82130DF
:1031400003F0FF021BB980F8202001F079FA022376
:1031500084F821302368CA225A6253225A622046D8
:10316000FFF7A4FF00282BD1236820699A6822F476
:10317000E00222F040029A60626899680243A06906
:1031800002430A439A60E2681A611A69A16842EA36
:1031900001421A612046FFF7ABFF88B923686569D1
:1031A000DA6C22F00302DA64E269D96C2A430A433A
:1031B000DA64FF225A62012384F8213038BD0120ED
:1031C00038BD0023092803D840EA0310C0B2704775
:1031D0000A380133C0B2F5E7F8B590F82030012B7A
:1031E00005460E4617464FF0020352D080F82130B4
:1031F0000122036880F82020CA225A6253225A62B0
:10320000FFF754FF68BB2B6830787478B1789B68FF
:1032100097BB13F0400308BFF370FFF7D2FF0246DD
:103220002046FFF7CEFF04460846FFF7CAFFF378B3
:1032300040EA835040EA024040EA04202B6800F054
:103240007F3020F0FE4018609A68306922F48022B6
:103250009A60F268996802430A439A602846FFF729
:1032600047FF2B68FF225A6210B9012385F82130ED
:10327000002385F82030F8BD13F040034FEA042402
:1032800008BFF37044EA0040F478084340EA8450F1
:10329000D4E71846F8BDF8B590F82030012B054664
:1032A0004FF0020043D0012385F8203085F821003B
:1032B0004B78C8788E780C7892BBDA0603D523F069
:1032C00010030A334B70FFF77CFF07464878FFF77F
:1032D00078FF02463046FFF774FF40EA443040EA88
:1032E000074040EA02242B68CA225A6253225A62DB
:1032F0002846FFF7DBFE40B92B6824F07F4424F01A
:10330000C0045C602846FFF7F3FE2B68FF225A6278
:1033100010B9012385F82130002385F82030F8BD4D
:103320001B0243EA0040304340EA4434DBE7F8BD87
:10333000030903EB830300F00F0000EB4300C0B26E
:103340007047006838B503690468C3F30E038B60E7
:1033500004F07F3323F0FE43C3F30540C3F3062597
:1033600004F07F049B0D08704D708C70CB7052B9C7
:10337000FFF7DEFF08702846FFF7DAFF48702046A7
:10338000FFF7D6FF8870002038BD38B503685C6849
:1033900024F07F4323F0C003180CC3F3042504F08A
:1033A0003F04C3F34233C8704D708C700B7052B938
:1033B000FFF7BEFFC8702846FFF7BAFF48702046E7
:1033C000FFF7B6FF8870002038BD00000268C169B1
:1033D000F8B50446836800691568034360690343D0
:1033E000BA480B432840034313605368E06823F452
:1033F000405303435360B64BA0699A421CBF236AF3
:103400001843936823F4306303439360B14B9A42AB
:1034100019D103F55843B04AD3F8883003F00303B9
:10342000B1F5004FD35C40F03881082B00F28F805B
:10343000DFE813F01A01CA00F9008D0014018D00B5
:103440008D008D003600A54B9A4207D103F5E63377
:10345000A34AD3F8883003F00C03E1E7A14B9A426A
:1034600023D103F5E433D3F8883003F03003102B75
:1034700000F0F1800BD8002B00F0F380B1F5004F85
:103480004FF001024FF0000300F0F880A8E0202B7D
:1034900000F0C680302BF1D1B1F5004F40F0B8807C
:1034A0006068430803F58033C3E08F4B9A421ED116
:1034B00003F5E233D3F8883003F0C003402B00F06B
:1034C000BB800AD87BB9824B9A4240F0CA80FFF792
:1034D000BDFA0023B0BB02463AE0802B00F09D808D
:1034E000C02B00F0B0807A4B9A42C7D12FE07F4BBF
:1034F0009A4211D103F5E033D3F8883003F44073D6
:10350000B3F5807F00F09880DCD9B3F5007F00F040
:103510008480B3F5407FE4E76D4B9A42AED103F56A
:10352000C833D3F8883003F44063B3F5806F00F0FC
:103530008380C7D9B3F5006F6FD0B3F5406FD0E784
:103540006B480223626802EB4201814205D90122E5
:103550000023236663661046F8BDB0EB023FF6D841
:10356000082B2ED8DFE803F0052D1C2D242D2D2D42
:103570002700FFF76BFA62684FF480715608002746
:10358000E1FB0067002330463946FDF7CBFA002205
:10359000584BA0F540719942D9D82368D860D7E735
:1035A0005548550800230021401941F10001ECE77E
:1035B000FEF706FFDFE750080021002310F50000AA
:1035C000F3E701220020E3E7FFF752FA4EE0FFF7AE
:1035D0003DFA626800EB5203B3FBF2F39BB20022A8
:1035E000A3F110004FF6EF718842B0D82168CB608C
:1035F000AEE7FFF73DFAECE76068430803F57403B4
:1036000003F51053B3FBF0F3E8E7FEF7D9FEE0E76C
:103610006068430803F50043F4E72D4B9A428FD0CE
:10362000B1F5004FE8D16068430803F1F47303F586
:103630009043B3FBF0F31FE0254B9A420BD1FEF70A
:10364000BFFE042346E7224B9A427FF425AF4FF496
:103650000040082376E7B1F5004FD6D1FEF7B0FE63
:1036600004E0B1F5004FB2D1FFF7F0F961684A0804
:1036700002EB4003B3FBF1F39BB20022A3F1100075
:103680004FF6EF7188423FF662AF23F00F012068DA
:10369000C3F342030B43C3605AE7082B3FF657AF0F
:1036A00001A252F823F000BFCF350008F33500081F
:1036B000F93500084F3500080B3600084F35000873
:1036C0004F3500084F35000811360008F369FFEF49
:1036D00000800040003801401069000800440040AC
:1036E0001469000800480040004C004000500040B1
:1036F0000024F400FFFC0F00000024F4436ADA0702
:1037000010B506D50168846A4A6822F40032224363
:103710004A609C0706D50168C46A4A6822F4803270
:1037200022434A60590706D50168046B4A6822F4AF
:10373000802222434A601A0706D50168446B4A6812
:1037400022F4004222434A60DC0606D50168846BFD
:103750008A6822F4805222438A60990606D501685D
:10376000C46B8A6822F4005222438A605A060FD53D
:103770000168046C4A6822F480122243B4F5801F69
:103780004A6005D14A68446C22F4C00222434A6070
:103790001B0606D50268816C536823F400230B4393
:1037A000536010BD2DE9F041069D04460F461646B4
:1037B00098462168CA6937EA02030CBF0122002239
:1037C000B24202D00020BDE8F0816B1CF2D0FDF7C0
:1037D000D5FBA0EB0800854201D3002DE9D1236879
:1037E0001A6822F4D0721A609A6822F001029A6074
:1037F00020236367A367002384F870300320BDE8AB
:10380000F0812DE9F7439846436F202B04460E467E
:1038100091464BD1002947D0002A45D090F870300E
:10382000012B43D0012380F8703000252123C56788
:103830004367FDF7A3FBA368A4F85090B3F5805F3E
:103840000746A4F8529003D123690BB935461E46AA
:10385000B4F85220CDF8008092B23B464AB94021DC
:103860002046FFF79FFF50B92023636784F870005C
:1038700006E0002280212046FFF794FF18B10320C4
:1038800003B0BDE8F08322685EB935F8023BC3F3AC
:1038900008031385B4F85230013B9BB2A4F85230B0
:1038A000D6E716F8013BF4E70120E9E70220E7E755
:1038B00073B504460026C667FDF760FB23681B68E6
:1038C0001A07054615D423681B685B070AD56FF0F5
:1038D0007E43009300222B464FF480012046FFF7E1
:1038E00061FF90B920230020636784F87000A3670C
:1038F0000CE06FF07E430093324603464FF4001114
:103900002046FFF74FFF0028DDD0032002B070BD36
:1039100010B5044640B3436F1BB980F8703001F016
:10392000FFFC226824236367136823F001031360FC
:103930002046FFF74BFD012816D0636A13B12046DD
:10394000FFF7DCFE23685A6822F490425A609A68B6
:1039500022F02A029A601A6842F0010220461A6098
:10396000BDE81040FFF7A4BF012010BD224800228F
:1039700008B54260C260427442614FF400521F4B6E
:1039800082614FF0C0420360C26101234022037292
:103990004372037402624362FDF742FC08B100F017
:1039A000A9FA1748174B036001230422037100236F
:1039B0008360C260036143618361C36102624362E9
:1039C0000A22C362022382620363FDF7B3FB08B1DC
:1039D00000F090FA01220C490748FDF793FC08B16A
:1039E00000F088FA08490448FDF7A9FC18B1BDE8C1
:1039F000084000F07FBA08BD64010020006101406A
:103A000000020020406001400400020030B52D4C4F
:103A100089B005461422002103A801F048FD23685F
:103A2000002B29D1284A13680133012B1360274B3F
:103A300008D11A6E42F080721A661A6E02F0807215
:103A40000192019ADA6C224842F01002DA64DB6CCF
:103A500003F010030293029B4FF42073039302239D
:103A6000049305930323069303A906230793FDF705
:103A7000ABFE2368013323602A68164B9A421ED19D
:103A8000154C03F51F434433236000236360A36098
:103A9000E360802323614FF4007363614FF400639C
:103AA000A3612023E36120464FF400532362FDF716
:103AB0007BFD08B100F01EFAA562EC62AC6209B0B1
:103AC00030BD00BF3401002038010020001002404A
:103AD0000010004800610140B801002010B51F4CE3
:103AE00088B01422002103A801F0E1FC2368002B18
:103AF00031D11B4A13680133012B1360194B08D1D4
:103B00001A6E42F080721A661A6E02F0807201928A
:103B1000019ADA6C144842F01002DA64DB6C03F0AC
:103B200010030293029B4FF4207303930223049328
:103B300005930323069303A906230793FDF744FE89
:103B4000002211463D20FDF745FA3D20FDF776FAAB
:103B500023680133236008B010BD00BF340100208A
:103B6000380100200010024000100048124B07B539
:103B70009A6C42F001029A649B6C002203F00103EC
:103B8000114601930E20019BFDF724FA0E20FDF74C
:103B900055FA002211461020FDF71CFA1020FDF7FF
:103BA0004DFA002211461120FDF714FA1120FDF7FD
:103BB00045FA03B05DF804FB001002402DE9F04126
:103BC00014228AB00DEB0200002101F070FC474B7B
:103BD000DFF82881DA6C464E42F00402DA64DA6CCF
:103BE00002F004020092009ADA6C42F00102DA64F8
:103BF000DA6C02F001020192019ADA6C42F00202E0
:103C0000DA64DA6C02F002020292029ADA6C42F092
:103C10001002DA64DA6C02F010020392039ADA6C92
:103C200042F00802DA64DB6C03F0080304934046B8
:103C300000220421049BFDF72DFF002230464FF4A3
:103C400080710024FDF726FF012505A92948059567
:103C500006940794FDF7B8FD2F230593264B069392
:103C600005A902234FF0904007930327FDF7ACFD11
:103C7000042305A940460593069507950897FDF787
:103C8000A3FD4FF4807305A930460593069507956B
:103C90000897FDF799FD224621460620FDF79AF97F
:103CA0000620FDF7CBF9224621460720FDF792F9C1
:103CB0000720FDF7C3F9224621460820FDF78AF9BF
:103CC0000820FDF7BBF9224621460920FDF782F9BD
:103CD0000920FDF7B3F9224621461720FDF77AF9AE
:103CE0001720FDF7ABF90AB0BDE8F08100100240E3
:103CF00000100048000800480000111000040048AF
:103D00000C4808B50C4B03600C2200234360836011
:103D1000C260036143618361C361036203638362C1
:103D2000C3624362FDF77AFF18B1BDE8084000F0B6
:103D3000E1B808BD380200200024004070B514220C
:103D40008AB0044600210DEB020001F0B0FB2268AE
:103D5000304B9A425CD103F5F63302269A6D2E4819
:103D600042F400729A659A6D02F400720092009A11
:103D7000DA6C42F00402DA64DA6C02F004020192B6
:103D8000019ADA6C42F00102DA64DA6C02F00102A4
:103D90000292029ADA6C42F00202DA64DA6C02F001
:103DA00002020392039ADA6C42F00802DA64DB6CD6
:103DB000069603F0080304930B25049B09954FF422
:103DC000FC7305A900240593FDF7FEFC48F2C073BF
:103DD00005A94FF09040059306960794089409951D
:103DE000FDF7F2FC4FF2332305A90C480593069624
:103DF000079408940995FDF7E7FC4FF47F4305A964
:103E0000074805930696079408940995FDF7DCFC8E
:103E10000AB070BD002400400008004800040048BB
:103E2000000C0048012802D10B4B18607047022893
:103E300003D10A4B01221A607047042802D10122E3
:103E4000074BF8E7082802D10122064BF3E72028A8
:103E5000F2D10122044BEEE73C0100204401002096
:103E6000480100204C0100204001002010B5322301
:103E70001446034892B2FFF7C4FC204610BD00BFB1
:103E80001424002000B58BB028220021684601F0E0
:103E90000EFB084B08491A68684601F08DFB68461E
:103EA00000F02AFF4FF47A70FDF76EF80BB05DF862
:103EB00004FB00BF0C000020FD69000800B58BB0BA
:103EC00028220021684601F0F2FA084B08491A68D6
:103ED000684601F071FB684600F00EFF4FF47A70FF
:103EE000FDF752F80BB05DF804FB00BF080000209E
:103EF000FD690008014801F057BB00BF21690008B7
:103F000010B5B8B014244422002105A801F0CFFA5E
:103F100022460021684601F0CAFA8822002116A82C
:103F200001F0C5FA18236022059301230A930B932D
:103F30000D921093022211930DEB040007230F92B0
:103F40001294139314921592FEF788FA08B1FFF7B2
:103F5000D1FF0F210024032280238DE81E00684634
:103F600001210494FEF7DCFC08B1FFF7C3FF0B4B03
:103F7000169316A84FF40073259436943793FEF7E2
:103F800095FE08B1FFF7B6FF4FF40070FDF7CAFECB
:103F900008B1FFF7AFFF38B010BD00BF020003004B
:103FA00080B5FCF7C9FF00F0F9FDFFF7A9FFFFF7A7
:103FB00005FEFFF7DBFDFFF7A3FE00F093FA01F02B
:103FC00091F900F0F5FAFFF7D1FC2949294C2A486C
:103FD0001323CB7006234B7000220C238B70FFF74A
:103FE0005AF9002221462448FFF7ABF90022214666
:103FF000214822706270A270FFF7EEF84FF4006261
:104000001E491F48FDF7B6F908B1FFF773FF00F02E
:1040100057FF08B1FFF76EFF00F018FA194D1A4E5E
:104020001A4F2B68012B03D100F028FA00232B60D4
:104030003368012B03D100F02BFA002333603B6877
:10404000012B03D100F02EFA00233B60104C2368B3
:10405000012B03D100F030FA002323600D4C2368BC
:10406000012BDED100F032FA00232360D9E700BF34
:104070008822002074220020D02200207402002018
:10408000640100204801002044010020400100207C
:104090004C0100203C0100202DE9F04F2DED028B5A
:1040A000ADF5844D87B04FF40072894906A801F040
:1040B000F3F90020ADF808008DF80A0001F042F88D
:1040C00008B1FFF717FF834C834800222146FFF712
:1040D0005CF9E3786278A178804801F0F1F9A3787F
:1040E0008DF8083063788DF809300322E3788DF875
:1040F0000A30002102A800F0D5FF10B1784801F085
:1041000053FA9FED718BDFF808B20325754B1C68DD
:1041100064B3754800F0F0FD4FF4FA70FCF734FF1B
:10412000002204217148FDF7B5FC0322002103A8F9
:1041300000F088FF002840F086809DF80E309DF842
:104140000D209DF80C106A4801F0BAF9DFF8C4811F
:10415000DFF8B091DFF8C0A10324AC4277D30DF5AE
:10416000844D07B0BDEC028BBDE8F08F614800F0D4
:10417000C3FD0DF5067A574687ED008B0026B44245
:1041800013DBA31B5BF82300FCF7CCF906AB03EBB6
:10419000C603D3E90023FCF72BFA02460B46D7E906
:1041A0000001FCF773F8C7E900010136402EE6D1A3
:1041B0000134B4F5006F07F10807DDD10DF5505457
:1041C00018340026002730463946FCF7E3F9FAE8B0
:1041D000028902460B4640464946FCF799FC28B145
:1041E00040464946FCF7B6FC06460F46A245EAD1D2
:1041F000414B1A68D317964277EB030386DB3F4C9B
:104200003A480421FDF74BFC002221463248FFF7D3
:1042100098F8A37862782178394801F051F9237829
:104220008DF8083063788DF809300322A3788DF873
:104230000A30294602A800F035FF10B1284801F0E5
:10424000B3F9033562E72F4801F0AEF97EE7414646
:10425000032704A8B4FBF7F6324601F0ADF904A831
:1042600000F04AFD4FF4FA70FCF78EFE3A46214604
:1042700003A800F0E7FEF0B99DF80E109DF80D3090
:104280009DF80C2000912048314601F019F99DF865
:104290000E109DF80D309DF80C20009104A81B49CC
:1042A00001F08AF904A800F027FD4FF47A70FCF7BA
:1042B0006BFE033451E7484601F076F9504600F0B2
:1042C0001BFDF6E7AFF300800000000000000000D7
:1042D0001067000888220020D0220020876900088B
:1042E000A26900084C010020D169000800040048C0
:1042F000D8690008B06900080C0000207422002072
:10430000B7690008EA690008006A0008176A00082F
:1043100074020020F96900081E6A00082DE9F043C4
:104320003D4885B001F040F94FF4805000F00AFF9D
:1043300008B1FFF7DFFD394E394FDFF804814FF444
:1043400080543368DBB13748374FDFF8F880DFF847
:10435000F89000F0D1FC4FF4FA70FCF715FE002243
:1043600004213248FDF796FB4FF480550026AC42FD
:1043700025D82F4801F018F905B0BDE8F08338467C
:1043800000F0BAFC4FF47A70FCF7FEFD04AD46F283
:10439000A81101FB048145F8101D264801F090F892
:1043A00004222146284600F07DFE10B1224801F08B
:1043B000FBF804211D480434FDF771FBC1E7013609
:1043C0003246394602A801F0F7F802A800F094FC42
:1043D0004FF4FA70FCF7D8FD042229460DEB0200D9
:1043E00000F030FE88B90199124801F069F8019A8D
:1043F000124902A801F0E0F802A800F07DFC4FF499
:104400007A70FCF7C1FD0435B1E7404601F0CCF805
:10441000484600F071FCF6E7306900084C010020C6
:10442000B0690008D1690008F96900080004004873
:104430006E69000857690008A2690008FD69000854
:10444000A006E7F9EA6900081E6A00080A4B1B6823
:1044500010B51C682046FBF7BBFE062804DC20468E
:10446000BDE8104000F048BC2046C8220121BDE84C
:10447000104000F059BC00BF10000020034B1A6828
:10448000526802B11A60FFF7E1BF00BF10000020C0
:10449000034B1A68926802B11A60FFF7D7BF00BFDA
:1044A00010000020034B1A68126902B11A60FFF76E
:1044B000CDBF00BF10000020034B1A68D26802B1C4
:1044C0001A60FFF7C3BF00BF1000002008B5044BFF
:1044D0001B685B6903B19847BDE80840FFF7B6BFAA
:1044E000100000200A480B4A08B5FF2380E80C00A2
:1044F000002301228260C360026143618361FDF792
:104500000FFD18B1BDE80840FFF7F4BC08BD00BFBF
:104510008C220020001000A010B5044688B01422A0
:10452000002103A800F0C3FF2268144B9A4222D155
:1045300003F1204303F5003303A91A6D104842F438
:1045400080721A651A6D02F480720192019ADA6C17
:1045500042F01002DA64DB6C03F010030293029B5A
:104560004FF47C43039302230493032306930A230B
:104570000793FDF729F908B010BD00BF001000A097
:10458000001000480268074B9A4209D1064A0748C2
:10459000136D23F4807313654FF47C41FDF7F0B97C
:1045A000704700BF001000A000100240001000483B
:1045B0007FB51422002101A800F079FF1E481F4A90
:1045C000002380E80C007F228260FF220093C260FB
:1045D000036143618361C361FEF7ACFD08B1FFF77E
:1045E00089FC17238DF804303B2300228DF8053019
:1045F00001A9322310488DF8063004920592FEF787
:10460000EBFD08B1FFF776FC03238DF8003004239F
:104610008DF8013017238DF80230002213236946EC
:1046200005488DF80330FEF736FE08B1FFF762FC4F
:1046300007B05DF804FB00BFD02200200028004036
:104640000268054B9A4201BF044AD2F8903043F405
:104650000043C2F89030704700280040001002402C
:104660002F2870B56DD021D829285CD007D82528EF
:104670006CD0282855D0202806D1002431E02B28E2
:104680005CD02CD32D2856D0A0F14104E5B2192DD1
:1046900098BFA74DA0F1610098BF35F81440C5B28E
:1046A00088BF0024192D1CD8A14C54E06D283CD0A3
:1046B00006D839284DD96428E6D14FF4734410E068
:1046C000B02840D004D86E28DED142F2102408E091
:1046D000B5282DD0FF28D7D14FF6DD7401E04AF27E
:1046E000DD04012908BF44F00204012A914908BFF2
:1046F00044F02004C4F3032022134860C4F30310E1
:1047000004F00F04CC600A6088600C46052B00F2B0
:104710003A82DFE813F023007000C0001B017C0127
:10472000E8010446DDE71124DBE74BF21024D8E76B
:1047300046F28404D5E74FF42044D2E74AF2140449
:10474000CFE7C024CDE74FF46C44CAE74FF43344BD
:10475000C7E7794C303834F81040C2E7110102F055
:10476000080301F010011943930503F400031943F2
:10477000130503F480030B43704A71480021FDF7D1
:10478000A1F962686E48130102F0080103F01003FA
:104790000B43910501F4000112050B4302F4800262
:1047A00013430221654AFDF78DF9A268644813019D
:1047B00002F0080103F010030B43910501F400011E
:1047C00012050B4302F48002134304215B4AFDF7F8
:1047D00079F9E268130102F0080103F010030B43BA
:1047E000910501F40001120502F480020B4313430A
:1047F000524A062106E11103930203F4805301F4A7
:1048000000511943930103F040031943930003F04F
:1048100020030B434B4A4A480021FDF753F96268D5
:1048200047481303910201F4805103F400530B43F2
:10483000910101F0400192000B4302F0200213436A
:104840000221404AFDF73EF9A2683D481303910258
:1048500001F4805103F400530B43910101F0400136
:1048600092000B4302F0200213430421354AFDF766
:1048700029F9E2681303910201F4805103F4005313
:104880000B43910101F04001920002F020020B4322
:1048900013432C4AADE71107930603F0805301F050
:1048A00000511943D3039BB21943D30203F480434D
:1048B0000B43254A22480021FDF704F9626820488D
:1048C0001307910601F0805103F000530B43D1030D
:1048D00089B2D2020B4302F48042134302211A4AE6
:1048E000FDF7F0F8A26816481307910601F0805111
:1048F00003F000530B43D10389B2D2020B4302F4FD
:10490000804213430421104AFDF7DCF8E2681307E4
:10491000910601F0805103F000530B43D10389B29B
:10492000D20202F480420B431343074A61E700BFFF
:10493000566A0008F42200208A6A0008E7FF3FFF59
:10494000042300209FCFFFFFFF3FFFCFD30603F0DC
:10495000804343EAC27300216FF040428A48FDF76A
:10496000B1F822688848C2F3800302F002021343C0
:1049700001216FF00302FDF7A5F862688248D306B3
:1049800003F0804343EAC27302216FF04042FDF717
:1049900099F862687C48C2F3800302F00202134374
:1049A00003216FF00302FDF78DF8A2687648D30665
:1049B00003F0804343EAC27304216FF04042FDF7E5
:1049C00081F8A2687048C2F3800302F00202134328
:1049D00005216FF00302FDF775F8E2686A48D30617
:1049E00003F0804343EAC27306216FF04042FDF7B3
:1049F00069F8E268C2F3800302F0020213436FF029
:104A0000030207216048BDE87040FDF75BB813065C
:104A1000920502F0807203F00073134300216FF0DF
:104A200040725948FDF74EF8226857485308D200A3
:104A300002F0080203F00403134301216FF00C029B
:104A4000FDF740F8626850481306920502F0807244
:104A500003F00073134302216FF04072FDF732F848
:104A6000626849485308D20002F0080203F00403C8
:104A7000134303216FF00C02FDF724F8A2684248AB
:104A80001306920502F0807203F0007313430421B1
:104A90006FF04072FDF716F8A2683B485308D20049
:104AA00002F0080203F00403134305216FF00C0227
:104AB000FDF708F8E26834481306920502F08072A8
:104AC00003F00073134306216FF04072FCF7FAFF06
:104AD000E2685308D20002F0080203F00403134313
:104AE0006FF00C028DE7D301D10101F4007103F4E2
:104AF00080730B43510401F40031D2050B4302F0E3
:104B0000806213430021214A1F48FCF7DBFF6268E3
:104B10001D48D301D10101F4007103F480730B43EC
:104B2000510401F40031D2050B4302F080621343BB
:104B30000221164AFCF7C6FFA2681348D301D1012F
:104B400001F4007103F480730B43510401F400314C
:104B5000D2050B4302F08062134304210B4AFCF799
:104B6000B1FFE268D301D10101F4007103F4807355
:104B70000B43510401F40031D20502F080620B4373
:104B80001343024A35E670BD04230020FFFCFDFB01
:104B90000148FCF7F8BF00BF04230020F0B5514BDB
:104BA000514D002485E818004FF47013AB600C23BE
:104BB000BFB0EB604FF4A052402321462B61AA61A5
:104BC0002B6214224FF4804306A8EB626C61EC6107
:104BD0006C62AC622C6300F06AFC214644220BA894
:104BE00000F065FC214604F1804404F50434882279
:104BF0001CA800F05CFCA36D43F08053A365A36D7B
:104C000003F080530093009B04230B930BA8012314
:104C10000D93FDF723FC064600B1FEE74FF4003389
:104C20001C931CA84FF480733D93FEF73FF8E36C90
:104C300043F00103E364E36C03F001030193019B80
:104C4000E36C43F00203E364E36C03F002030293BA
:104C5000029BE36C43F00403E364E36C03F004039E
:104C60000393039BE36C43F00803E364E36C08964F
:104C700003F008030493049B48F2C07306930323D4
:104C80000227099306A90B234FF090400A93079738
:104C9000FCF79AFD4FF2332306A914480693FCF75C
:104CA00093FD4FF4FC7306A911480693FCF78CFDA5
:104CB00006A94FF47F430F480693FCF785FD38465D
:104CC000FCF762F9A36D43F40073A365A36D03F4CD
:104CD000007305932846059BFCF7A0FFFFF758FFDC
:104CE0003FB0F0BD00240040042300200004004831
:104CF00000080048000C004838B50546FFF748FF9B
:104D00000024285DE3B2013408B1052B04D905481D
:104D1000BDE83840FCF713BF00221146FFF7A0FCA6
:104D2000EFE700BF042300202DE9F347324F05468B
:104D300089469046FFF72CFF00230093ADF804301E
:104D40003B70002D4AD02B465C1B13F8016BE4B27C
:104D5000002EF9D16846FFF7CFFF4046FCF714F963
:104D6000F3B24B453AD201233FE093FBF4F204FB4C
:104D7000123203F1010AAA5C8DF800209AFBF4F2CA
:104D800004FB12A2991CAA5C8DF8012091FBF4F29D
:104D900004FB1212D91CAA5C8DF8022091FBF4F2DC
:104DA00004FB1212191DAA5C8DF8032091FBF4F28A
:104DB00004FB1212AA5C8DF804205A1D92FBF4F336
:104DC00004FB1323EB5C8DF80530FFF7E1FE68462A
:104DD000FFF792FF3B7823B100233B7002B0BDE8A0
:104DE000F0874046FCF7D0F853465A1ED2B2A24292
:104DF000BBD30136B4E700BF5001002000B595B029
:104E00004FF480730C930523069300230D930E93A8
:104E10000B93119312931393009304934FF08072AA
:104E200010230F92029301224FF480030192039208
:104E300005936A46034606A90448FDF729F90030A0
:104E400018BF012015B05DF804FB00BF402300200F
:104E500000B595B04FF480730C930623069341F28E
:104E60008832002306A915480D930E930F930B93D8
:104E7000119312931393FDF7C7F8E0B9022300933F
:104E8000019301230393102302934FF480030593AE
:104E9000052306934FF0807304900F936A4641F206
:104EA000883306A90548FDF7F3F8003018BF012044
:104EB00015B05DF804FB0120FAE700BF4023002095
:104EC000F0B55C4C5C4B236093B02046FDF780F856
:104ED0000546002866D1594B59481A6D42F4807234
:104EE0001A651A6D02F480720292029A1A6B42F4E9
:104EF00080721A631A6B22F480721A63DA6C42F0C1
:104F00001002DA64DB6C03F010030393039B4FF48D
:104F1000006304930223059303230126079304A946
:104F20000A2308930696FCF74FFC4FF4744304A938
:104F3000434804930695FCF747FC04236660A3608E
:104F4000E5604FF0807797FAA7F3B3FA83F3013B5C
:104F5000204623616561A561FCF7E2FF10BB4FF4B9
:104F6000807566230B900C900D9009900F90109017
:104F7000119041F2883204A920460A950493FDF766
:104F800043F868B9992341F2883204A92046049372
:104F9000FDF73AF820B941F28830FFF72FFF18B13A
:104FA000042544E0012542E085230B900C900990F4
:104FB0000F901090119041F2883204A920460A9572
:104FC00004930D970E96FDF71FF80028E8D141F2E3
:104FD00088320DF107012046FDF74CF90028DFD19A
:104FE000FFF736FF05460028DAD181230493F0222B
:104FF00092FAA2F29DF807300C21B2FA82F201FA7D
:1050000002F203F00F03134304A941F28832204651
:105010008DF80730FCF7F8FF0028C1D141F2883243
:105020000DF107012046FDF7C6F80028B8D1284643
:1050300013B0F0BD40230020001000A0001002407B
:105040000010004810B58EB04FF480730693EB2328
:10505000009301914FF440634FF040710793099121
:105060004FF400530C2104460393059100230A9248
:10507000694641F288320A4808930B930C930D93CA
:10508000FCF7C2FF50B941F2883221460448FDF7CF
:10509000F1F8003018BF01200EB010BD0120FBE771
:1050A000402300202DE9F0418EB04FF48073CCB244
:1050B00006931223C4F5807400934FF44063944226
:1050C00007934FF4005328BF14468D1803934FF0F5
:1050D00040720023DFF86880089307460E46099265
:1050E00005930B930C930D9301960A94FFF7B0FE72
:1050F00018B101200EB0BDE8F08141F28832694656
:105100000F48FCF781FF0028F3D141F2883239467D
:105110004046FDF750F80028EBD141F28830FFF708
:105120006DFE0028E5D1264406F580739D42274494
:1051300034BFAC1B4FF48074B542D5D8DAE700BF5A
:105140004023002000B58FB04FF4807306932023D6
:1051500000934FF4806307934FF4005303930023AD
:1051600001900893099305930B930C930D93FFF70C
:105170006FFE18B101200FB05DF804FB41F28832D8
:1051800069460648FCF740FF0028F3D14FF4487009
:10519000FFF734FE003018BF0120ECE74023002069
:1051A0000A4B1A6E42F001021A661A6E82B002F0C1
:1051B00001020092009A9A6D42F080529A659B6DAE
:1051C00003F080530193019B02B07047001002402E
:1051D0007047FEE7FEE7FEE7FEE77047704770475F
:1051E000FBF7C0BE0120FCF761BC0220FCF75EBCEF
:1051F0000420FCF75BBC0820FCF758BC0148FCF716
:1052000098BA00BFB80100200148FCF792BA00BF6D
:10521000842300200148FCF78CBA00BFCC23002077
:105220002020FCF743BC00000148FCF7F7B800BFA2
:105230006401002070B50E4615460C46A31B9D4226
:1052400001DC284670BDAFF3008004F8010BF5E7E0
:1052500008B50A4B1968024609B909491960186866
:10526000694602448A4206D900F0ECF80C23036038
:105270004FF0FF3008BD1A6008BD00BF5401002088
:10528000982400204FF0FF3070474FF400534B60DC
:105290000020704701207047002070470F49D1F867
:1052A000883043F47003C1F888300D4B1A68002031
:1052B00042F001021A6098601A6822F0A85222F4A3
:1052C00010221A604FF48052DA601A6822F48022A9
:1052D0001A6098614FF000638B60704700ED00E04A
:1052E0000010024008B50C480C4B4FF4E13E80E83A
:1052F00008400C2200238360C36003614261836124
:10530000C36103624362FEF703FB18B1BDE80840C6
:10531000FEF7F0BD08BD00BF14240020004400408B
:1053200070B5054688B01422002103A800F0BFF82C
:105330002A68294B9A424DD103F5E63302269A6D2D
:105340002648274C42F400329A659A6D02F40032E6
:105350000192019ADA6C42F00802DA64DB6C04967E
:1053600003F008030293029B602303930123059338
:105370000323069303A907230793FCF725FA194B88
:10538000802284E8480020460023A360E360226175
:105390006361A361E3612362FCF706F908B1FEF7DC
:1053A000A9FD114BEC66A562104C02264FF0100EC1
:1053B00084E84840802200232046E3602261636144
:1053C000A361E3612362FCF7EFF808B1FEF792FDF9
:1053D000AC66A56208B070BD00440040000C0048F7
:1053E000842300206C00024080000240CC23002077
:1053F000DFF834D0002103E00C4B5B5843500431FC
:105400000B480C4B42189A42F6D30B4A02E0002399
:1054100042F8043B094B9A42F9D3FFF73FFF00F0F3
:1054200017F8FEF7BDFDFEE700800120906B000835
:1054300000000020F4000020F40000209824002048
:10544000FEE70000014B1868704700BF9000002085
:1054500070B50D4E0D4CA41BA4100025A54209D11A
:105460000B4E0C4C01F046F9A41BA4100025A542DC
:1054700005D170BD56F8253098470135EEE756F84E
:10548000253098470135F2E7886B0008886B0008E3
:10549000886B00088C6B000810B5431E0A449142CB
:1054A00000D110BD11F8014B03F8014FF7E702449A
:1054B0000346934200D1704703F8011BF9E700004F
:1054C0000FB40A4B13B51C6824B1A36913B9204665
:1054D00000F048FA05AB049AA1680193204600F059
:1054E00055FD02B0BDE8104004B0704790000020A8
:1054F00070B50E46054618B183690BB900F032FA53
:10550000AB69AC6813B9284600F02CFA234B9C42D7
:1055100017D16C68A3891B071DD52369DBB1013E38
:10552000A36816F8011F013BA360E9B9002B2EDA2E
:1055300022460A21284600F063F8013011D00A20E3
:1055400070BD174B9C4201D1AC68E3E7154B9C4200
:1055500008BFEC68DEE72146284600F0A3F80028E3
:10556000DDD04FF0FF3070BD002B04DAA26993420A
:1055700006DB0A2904D023685A1C22601970CFE781
:105580002246284600F03CF80130C9D1E9E72368FB
:105590000A205A1C2260187070BD00BF0C6B0008F6
:1055A0002C6B0008EC6A0008024B01461868FFF7F4
:1055B0009FBF00BF900000200EB400B59CB04FF418
:1055C00002711DABADF81410029006906FF000410F
:1055D0000A48049107914FF6FF7153F8042BADF878
:1055E00016100068019302A900F0B2FB029B002292
:1055F0001A701CB05DF804EB03B0704790000020F7
:10560000F8B50E461446054618B183690BB900F08B
:10561000A9F9214B9C422AD16C68A369A360A38994
:105620001A072ED5236963B323692068C01A6369FA
:10563000F6B29842374604DB2146284600F028F9A6
:1056400028BBA368013BA36023685A1C22601E701C
:1056500063690130984204D0A389DB0719D50A2E6B
:1056600017D12146284600F013F990B10FE00B4BFB
:105670009C4201D1AC68D0E7094B9C4208BFEC6862
:10568000CBE72146284600F00DF80028CCD04FF09B
:10569000FF373846F8BD00BF0C6B00082C6B0008C4
:1056A000EC6A0008324B70B51D6806460C4625B101
:1056B000AB6913B9284600F055F92E4B9C420FD127
:1056C0006C68B4F90C309AB215072CD4D00611D4FA
:1056D0000922326043F04003A3814FF0FF3070BDD8
:1056E000254B9C4201D1AC68EBE7244B9C4208BFA0
:1056F000EC68E6E7510712D5616B41B104F1440350
:10570000994202D0304600F01BFA00236363A3895C
:1057100023F02403A3810023636023692360A3890A
:1057200043F00803A38123694BB9A38903F42073D1
:10573000B3F5007F03D02146304600F0C1F9A289BD
:1057400012F001030CD00023A36063695B42A361E4
:10575000236953B9B4F90C3013F08000BAD170BD8D
:10576000920758BF6369A360F2E70020F7E700BF24
:10577000900000200C6B00082C6B0008EC6A0008FD
:105780008A892DE9F041054610070C465AD44B682A
:10579000002B05DC0B6C002B02DC0020BDE8F08147
:1057A000E66A002EF9D0002312F480522F682B6095
:1057B00033D0606DA3895A0705D56368C01A636B3F
:1057C0000BB1236CC01A00230246E66A216A284600
:1057D000B047431CA38906D129681D294BD82B4A01
:1057E000CA40D60747D500226260D90422692260E8
:1057F00004D5421C01D12B6803B96065616B2F6031
:105800000029CAD004F14403994202D0284600F08E
:1058100097F900206063BDE8F081216A01232846E2
:10582000B047411CC6D12B68002BC3D01D2B01D023
:10583000162B01D12F60B0E7A38943F04003A38169
:10584000BDE8F0810F69002FA7D093070E6808BF4D
:105850004B690F6018BF0023A6EB07088B60B8F1F7
:10586000000F9ADD43463A46216AA66A2846B047A9
:10587000002807DCA38943F04003A3814FF0FF30E9
:10588000BDE8F0810744A8EB0008E8E701004020EC
:1058900038B50B6905460C46DBB118B183690BB905
:1058A00000F060F80C4B9C4209D16C68B4F90C30E4
:1058B0007BB121462846BDE83840FFF761BF074B62
:1058C0009C4201D1AC68F1E7054B9C4208BFEC68F3
:1058D000ECE7002038BD00BF0C6B00082C6B000803
:1058E000EC6A0008014900F0A9B800BF915800080F
:1058F000002310B5044603604360836081814366E2
:10590000C281036143618361194608225C30FFF75D
:10591000CEFD054B6362054BA362054BE362054B6D
:105920002462236310BD00BF0565000827650008D9
:105930005F6500088365000870B54A1E68255543F9
:105940000E4605F1740100F049F9044640B100210A
:1059500080E842000C30A06005F16802FFF7A7FD67
:10596000204670BD836910B5044633BB8364C364AD
:105970000365124B124A1B688262984204BF0123DE
:10598000836100F01FF86060204600F01BF8A06003
:10599000204600F017F80022E06004216068FFF75D
:1059A000A7FF01220921A068FFF7A2FF022212210E
:1059B000E068FFF79DFF0123A36110BDE86A0008BE
:1059C000E5580008F8B51C4B1E68B369074613B9C3
:1059D0003046FFF7C7FF4836B4687368013B03D50C
:1059E000336833B13668F7E7B4F90C506DB16834F9
:1059F000F4E704213846FFF79FFF30600028F1D11B
:105A00000C233B6004462046F8BD4FF6FF73E3814C
:105A10000123A38165662560A560656025616561D8
:105A2000A5610822294604F15C00FFF740FD65638B
:105A3000A563A564E564E6E7E86A00082DE9F84394
:105A40008046894600F14804002614B93046BDE876
:105A5000F883A5686768013F01D52468F5E7AB893D
:105A6000012B07D9B5F90E30013303D02946404642
:105A7000C84706436835EEE770B50E46B1F90E101B
:105A8000002990B014461D4607DA00232B60B38925
:105A90001A0610D44FF480630EE001AA00F098FDBE
:105AA0000028F2DB029A02F47042A2F500535A4237
:105AB0005A412A60EEE740230020236010B070BDF9
:105AC0008B8973B59D0706460C4607D504F147033D
:105AD000236023610123636102B070BD01AB6A469C
