:020000040800F2
:1000000000800120D90400081D0D00081F0D000804
:10001000210D0008230D0008250D00080000000038
:10002000000000000000000000000000270D000894
:10003000290D0008000000002B0D00082D0D000800
:1000400029050008290500082905000829050008D8
:1000500029050008290500082905000829050008C8
:1000600029050008290500082905000829050008B8
:1000700029050008290500082905000829050008A8
:100080002905000829050008290500082905000898
:100090002905000829050008290500082905000888
:1000A0002905000829050008290500082905000878
:1000B0002905000829050008290500082905000868
:1000C0002905000829050008290500082905000858
:1000D0002905000829050008290500082905000848
:1000E0002905000829050008290500082905000838
:1000F0002905000829050008290500082905000828
:100100002905000829050008290500082905000817
:100110002905000829050008290500082905000807
:1001200029050008310D00082905000829050008E7
:1001300029050008290500082905000829050008E7
:1001400029050008290500082905000829050008D7
:1001500029050008290500082905000829050008C7
:1001600029050008290500082905000829050008B7
:1001700029050008290500082905000800000000DD
:0801800029050008290500080B
:1001880010B5054C237833B9044B13B10448AFF3C9
:1001980000800123237010BD04000020000000002F
:1001A8004031000808B5034B1BB103490348AFF3BE
:1001B800008008BD00000000080000204031000851
:1001C80053B94AB9002908BF00281CBF4FF0FF31B6
:1001D8004FF0FF3000F07AB9ADF1080C6DE904CEAC
:1001E80000F006F8DDF804E0DDE9022304B070470A
:1001F8002DE9F0478C460D460446089E002B51D148
:100208008A4217466DD9B2FA82FEBEF1000F0BD0B2
:10021800CEF1200C01FA0EF520FA0CFC02FA0EF7CA
:100228004CEA050C00FA0EF44FEA174A250CBCFB01
:10023800FAF81FFA87F90AFB18CC45EA0C4508FBBF
:1002480009F3AB420AD9ED1908F1FF3280F0238196
:10025800AB4240F22081A8F102083D44ED1AA4B255
:10026800B5FBFAF00AFB105544EA054400FB09F90E
:10027800A14509D9E41900F1FF3380F00A81A145AD
:1002880040F2078102383C44A4EB090440EA0840E4
:100298000021002E61D024FA0EF40023346073602C
:1002A800BDE8F0878B4207D9002E54D0002186E89C
:1002B80021000846BDE8F087B3FA83F1002940F031
:1002C8008E80AB4202D3824200F2FA80841A65EB38
:1002D80003050120AC46002E3FD086E81010BDE88B
:1002E800F08712B90127B7FBF2F7B7FA87FEBEF11C
:1002F800000F34D1EB1B3A0C1FFA87FC0121B3FB2A
:10030800F2F8250C02FB183345EA03450CFB08F309
:10031800AB4207D9ED1908F1FF3002D2AB4200F227
:10032800D1808046ED1AA3B2B5FBF2F002FB10555E
:1003380043EA05440CFB00FCA44507D9E41900F185
:10034800FF3302D2A44500F2B8801846A4EB0C048F
:1003580040EA08409DE731463046BDE8F087CEF1D7
:10036800200405FA0EF307FA0EF720FA04F83A0CFF
:1003780025FA04F448EA0308B4FBF2F14FEA1845F9
:1003880002FB11441FFA87FC45EA044501FB0CF304
:10039800AB4200FA0EF409D9ED1901F1FF3080F0F3
:1003A8008A80AB4240F2878002393D44EB1A1FFA3B
:1003B80088F5B3FBF2F002FB103345EA034500FB76
:1003C8000CF3AB4207D9ED1900F1FF386FD2AB42FD
:1003D8006DD902383D44EB1A40EA01418FE7C1F17B
:1003E800200722FA07F88B4005FA01F448EA0303CC
:1003F80020FA07FE4FEA134CFD404EEA040EB5FB07
:10040800FCF94FEA1E440CFB19551FFA83F844EA1D
:10041800054509FB08F4AC4202FA01F200FA01FAB8
:1004280008D9ED1809F1FF3043D2AC4241D9A9F1FE
:1004380002091D442D1B1FFA8EFEB5FBFCF00CFBB8
:1004480010554EEA054400FB08F8A04507D9E41802
:1004580000F1FF3529D2A04527D902381C4440EACB
:100468000940A4EB0804A0FB02894C45C6464D464A
:1004780015D312D056B1BAEB0E0364EB050404FA97
:1004880007F7CB401F43CC40376074600021BDE8BC
:10049800F0871846F8E69046E0E6C245EAD2B8EB9F
:1004A800020E69EB03050138E4E72846D7E7404622
:1004B80091E78146BEE7014678E702383C4445E7C4
:1004C800084608E7A8F102083D442BE7704700BF3B
:1004D800DFF834D0002103E00C4B5B584350043163
:1004E8000B480C4B42189A42F6D30B4A02E0002301
:1004F80042F8043B094B9A42F9D300F01BFC02F086
:10050800EFFD00F045F9FEE700800120C431000846
:100518000000002004000020040000205C020020ED
:10052800FEE70000F8B5194D06460024012736FA03
:1005380004F304D11548BDE8F84000F09EBE07FA60
:1005480004F33340013B072B0DD8DFE803F0040E1A
:100558000C140C0C0C194FF480736FF48072062184
:10056800284600F04AFE0134E1E74FF480736FF447
:1005780080720421F4E74FF000736FF00072EEE729
:100588004FF000736FF00072F3E700BFB80000206F
:10059800014800F096BE00BFB8000020F0B5514BEE
:1005A800514D002485E818004FF47013AB600C23FC
:1005B800BFB0EB604FF4A052402321462B61AA61E3
:1005C8002B6214224FF4804306A8EB626C61EC6145
:1005D8006C62AC622C6302F0A7FD214644220BA892
:1005E80002F0A2FD214604F1804404F50434882277
:1005F8001CA802F099FDA36D43F08053A365A36D79
:1006080003F080530093009B04230B930BA8012352
:100618000D9301F06FF8064600B1FEE74FF4003382
:100628001C931CA84FF480733D9301F0ABFCE36C62
:1006380043F00103E364E36C03F001030193019BBE
:10064800E36C43F00203E364E36C03F002030293F8
:10065800029BE36C43F00403E364E36C03F00403DC
:100668000393039BE36C43F00803E364E36C08968D
:1006780003F008030493049B48F2C0730693032312
:100688000227099306A90B234FF090400A93079776
:1006980000F0D2FC4FF2332306A91448069300F069
:1006A800CBFC4FF4FC7306A91148069300F0C4FC78
:1006B80006A94FF47F430F48069300F0BDFC384667
:1006C80000F098FBA36D43F40073A365A36D03F4D6
:1006D800007305932846059B00F041FEFFF758FF7D
:1006E8003FB0F0BD00240040B800002000040048DE
:1006F80000080048000C0048F0B5B9B014264422A0
:10070800002105A802F010FD32460021684602F0DB
:100718000BFD8822002116A802F006FD18230124EB
:1007280002250593072760230DEB06000D9312960B
:100738000A9400260B940F9510941194139714950E
:10074800159500F0D7FF032280230F218DE84E0076
:1007580068462146049601F0F3F90C4B169348239A
:1007680025962F9619934FF400764FF4803316A8E8
:100778001D933796179418941A971B951C9501F09A
:1007880001FC304600F06CFE39B0F0BD02080200F2
:100798002DE9F043984D8DB000F008FBFFF7ACFF52
:1007A800FFF7FCFE1422002107A802F0BDFCEB6C49
:1007B800924843F01003EB64EB6C03F010030293D0
:1007C800029BEB6C43F00403EB64EB6C03F0040353
:1007D8000393039BEB6C43F00103EB64EB6C03F0B6
:1007E80001030493049BEB6C43F00203EB64EB6C92
:1007F80003F002030593059BEB6C43F00803EB64DD
:10080800EB6C03F00803069300224FF48471069BF7
:1008180000F0EEFC002204217948002400F0E8FCF6
:100828004FF001080823022607A974480793CDF85A
:1008380020800A96099400F0FFFB07A97148CDF8BB
:100848001C800894099400F0F7FB2F2307A94FF0A8
:1008580090400793032709960894042600F0ECFBC0
:1008680007A96748CDF82080CDF8248007960A9715
:1008780000F0E2FB4FF4807307A960480793CDF8B6
:100888002080CDF824800A9700F0D6FBAB6C43F0AB
:100898000203AB64AB6C03F00203214622460193CA
:1008A8003920019B00F0C6FA392000F0F7FA5648C3
:1008B800564B84600C2580E81800C56004614461CB
:1008C8008461C461046204638462C462446200F0A7
:1008D80046FD4F484F4BC0F808804FF0FF0980E8AD
:1008E8000802C0F81080C4604461846100F014FEFE
:1008F80049484A4B0360802343634FF47A53C361EA
:1009080040230364202343644FF4803383644FF609
:10091800FF730366046344608463C4638460046192
:1009280044618461C46044628462C462C4640465CE
:1009380044658465C66502F083F83948394A4561DB
:100948004FF4E13380E80C008460C4600461846182
:10095800C4610462446202F090FB1422214607A895
:1009680002F0E2FB304D314B009485E81800284630
:100978007F23AB60C5F80C902C616C61AC61EC61B5
:1009880001F0F8FE3B234FF017088DF81D30224682
:10099800322307A928468DF81E308DF81C800A944A
:1009A8000B9401F0B0FF13232246694628468DF8C0
:1009B80000708DF801608DF802808DF8033001F029
:1009C80039FF0134FFF7E4FD04F00304642000F06C
:1009D80011FA022C0CD0032C0CD0012C14BF0120CE
:1009E8000220FFF79FFD4FF47A7000F003FAE8E762
:1009F8000420F6E70820F4E7001002400010004841
:100A0800000400480008004860010020002400405D
:100A180014020020001000A03400002024540140DB
:100A28009C01002000440040F40000200028004001
:100A3800704700000A4B1A6E42F001021A661A6EDD
:100A480082B002F001020092009A9A6D42F0805240
:100A58009A659B6D03F080530193019B02B0704728
:100A68000010024070B514228AB0044600210DEB34
:100A7800020002F059FB2268304B9A425CD103F520
:100A8800F63302269A6D2E4842F400729A659A6DE2
:100A980002F400720092009ADA6C42F00402DA64FE
:100AA800DA6C02F004020192019ADA6C42F0010257
:100AB800DA64DA6C02F001020292029ADA6C42F00D
:100AC8000202DA64DA6C02F002020392039ADA6C28
:100AD80042F00802DA64DB6C069603F0080304931C
:100AE8000B25049B09954FF4FC7305A90024059375
:100AF80000F0A2FA48F2C07305A94FF090400593A0
:100B0800069607940894099500F096FA4FF2332355
:100B180005A90C480593069607940894099500F0D2
:100B28008BFA4FF47F4305A9074805930696079467
:100B38000894099500F080FA0AB070BD00240040BE
:100B48000008004800040048000C004810B504469E
:100B580088B01422002103A802F0E6FA2268144B98
:100B68009A4222D103F1204303F5003303A91A6DF9
:100B7800104842F480721A651A6D02F4807201926C
:100B8800019ADA6C42F01002DA64DB6C03F01003AD
:100B98000293029B4FF47C430393022304930323A1
:100BA80006930A23079300F047FA08B010BD00BF68
:100BB800001000A0001000480268054B9A4201BFCF
:100BC800044AD2F8903043F40043C2F8903070479A
:100BD800002800400010024010B5044688B01422D6
:100BE800002103A802F0A0FA2268134B9A4221D1EF
:100BF80003F5E63303A99A6D104842F400329A656A
:100C08009A6D02F400320192019ADA6C42F00802FD
:100C1800DA64DB6C03F008030293029B60230393FE
:100C280002230493012305930323069307230793C1
:100C380000F002FA08B010BD00440040000C004863
:100C48002DE9F04102682C4B9A4286B0064650D1F5
:100C58002A4B1A684AB92A49086E40F400100866F7
:100C6800096E01F40011009100992648013200250F
:100C78001A600D24022703234FF0800801A904936A
:100C88000594CDF804800297039500F0D5F94FF448
:100C9800007301A91B4801930594029703950495D5
:100CA80000F0CAF9082301A917480193059402978F
:100CB800164C0395049500F0BFF91549E56010231B
:100CC800012284E80E004FF4807363614FF480635F
:100CD800A3612023E36120464FF40053C4F8108039
:100CE800236200F0FDF808B1FFF7A2FE3467A662A0
:100CF800F46606B0BDE8F0812454014020000020CD
:100D080000100240001000480004004818010020AC
:100D18001C0402407047FEE7FEE7FEE7FEE7704767
:100D28007047704700F058B8014800F03BB900BF61
:100D3800180100200F49D1F8883043F47003C1F836
:100D480088300D4B1A68002042F001021A60986042
:100D58001A6822F0A85222F410221A604FF4805226
:100D6800DA601A6822F480221A6098614FF00063F2
:100D78008B60704700ED00E00010024038B50A4B68
:100D8800054618684FF47A73B0FBF3F000F092F858
:100D9800044638B9024629464FF0FF3000F04AF8B9
:100DA800204638BD012038BD00000020094A1368DC
:100DB80043F4807310B50320136000F029F8002075
:100DC800FFF7DCFF044618B9FFF734FE204610BDD4
:100DD8000124FBE700200240024A13680133136034
:100DE800704700BF58020020014B1868704700BFC9
:100DF8005802002038B50446FFF7F6FF631C054685
:100E080018BF0134FFF7F0FF401B8442FAD838BD01
:100E1800074AD36823F4E0631B041B0C43F0BF6349
:100E2800000243F4003300F4E0600343D3607047EA
:100E380000ED00E0174B30B5DC68C4F30224C4F1C0
:100E48000703251D042B28BF0423062D4FF0010599
:100E580005FA03F303F1FF338CBF033C0024194068
:100E6800A14005FA04F4013C2240002842EA0102AC
:100E78004FEA0212AFBF00F1604000F00F00064BCE
:100E8800D2B2A5BF00F56140D2B21A5480F800234F
:100E980030BD00BF00ED00E014ED00E04209012381
:100EA80000F01F0003FA00F0014B43F822007047DE
:100EB80000E100E00138B0F1807F0AD2064B074A12
:100EC8005860F02182F823100020072298601A60E9
:100ED80070470120704700BF10E000E000ED00E01F
:100EE80030B500284ED00168274B99424FF01404C2
:100EF80040D8264A0A44B2FBF4F292004264A3F2B4
:100F080007430364022380F825308468C3680569B1
:100F18000A6823432B4345692B4385692B43C569DD
:100F28002B43056A22F4FF4222F070022B4313433D
:100F3800B4F5804F0B6014D0026C154B9A420CBF6D
:100F480014491549436C0A6803F01C030F249C409C
:100F580022EA04020A6042680C6802FA03F3234397
:100F68000B6000230122C36380F8243080F8252019
:100F7800184630BD094B0B44B3FBF4F39B004364A4
:100F8800074BBEE7012030BD07040240F8FFFDBF54
:100F980000000240A8000240A8040240F8FBFDBF80
:100FA80000040240016C426C036870B402F01C0239
:100FB8000E681D680424944026420ED015F0040FD4
:100FC8000BD01A6892065EBF1A6822F004021A60F3
:100FD800036B4C6073B370BC1847022494402642DC
:100FE80012D015F0020F0FD01A68950606D41A68A9
:100FF80022F00A021A60012380F8253000234C6091
:1010080080F82430C36AE5E708249440344211D0BC
:101018002C070FD51C6824F00E041C60012303FA6A
:1010280002F24A60C36380F82530002380F8243038
:10103800436BCFE770BC70472DE9F04F85B00B6864
:10104800DFF8A881674C01930023019ADA4002D1A6
:1010580005B0BDE8F08F0126019A9E4012EA060EFF
:1010680000F0B1804A6822F01007022F16D14FEA2B
:10107800D30900EB890903F0070AD9F820504FEA91
:101088008A0A4FF00F0C0CFA0AFC25EA0C0C0D69C1
:1010980005FA0AF545EA0C05C9F820504FEA430C51
:1010A8000325D0F800B005FA0CF5ED4302F0030A69
:1010B8000BEA050B0AFA0CF9013F49EA0B09012F63
:1010C800C0F8009011D8876805EA0709CF6807FAC1
:1010D8000CF747EA09078760476827EA0609C2F359
:1010E80000179F4047EA09074760BAF1030F07D185
:1010F800C76A27EA0606C2F3C0079F403E43C66296
:10110800C66835408E6806FA0CF63543C560D500CA
:1011180059D5D8F8605045F00105C8F86050D8F89E
:10112800605023F0030606F1804605F0010506F538
:101138008036039503F0030C039DB5684FEA8C0CC9
:101148000F2707FA0CF7B0F1904F25EA07073CD0B4
:10115800254DA8423BD005F58065A84239D005F554
:101168008065A84237D005F58065A84235D005F5D9
:101178008065A84233D005F58065A84214BF0725CD
:10118800062505FA0CF53D43B56025686FEA0E069D
:10119800D70354BF35404EEA0505256065689703B7
:1011A80054BF35404EEA05056560A568D70254BFAF
:1011B80035404EEA0505A560E568920254BF354002
:1011C8004EEA0505E56001333FE70025D9E701252B
:1011D800D7E70225D5E70325D3E70425D1E7052579
:1011E800CFE700BF0004014000040048001002409F
:1011F8000AB181617047816270472DE9F0411D464F
:1012080090F83530012B04460F46164603D090F867
:101218003530022B2ED194F83530DBB2012B09D0B2
:10122800216801EB870100204B6933402B434B6158
:10123800BDE8F08194F83420012A4FF002001AD05A
:1012480084F8343084F83500FFF7CEFD80462368F3
:101258009B685B07E4D5FFF7C7FDA0EB0800B0F576
:101268007A7FF4D90223A363002384F8343003205F
:10127800BDE8F0810120BDE8F0810368082270B55F
:10128800DA609A6842F004029A600446FFF7ACFDFF
:10129800064623689D6815F0080506D0012300203E
:1012A80084F8353084F8340070BDFFF79DFD801B4D
:1012B800B0F57A7FEDD90423A36384F83450032072
:1012C80070BD38B590F83530012B044603D090F83E
:1012D8003530022B2CD194F83430012B4FF002001A
:1012E80027D0012384F8343084F83500FFF77CFDDB
:1012F800054621688B6813F004030CD118461A1DA3
:1013080001EB82020133102B5060F8D12046FFF721
:10131800B4FF002038BDFFF767FD401BB0F57A7FAA
:10132800E7D90223A363002384F83430032038BDAF
:10133800012038BD38B50446FFF756FD0546236839
:101348009B689B0601D5002038BDFFF74DFD401B6B
:10135800B0F57A7FF3D90123A363032038BD38B5EC
:101368000446002871D090F8353003F0FF021BB90D
:1013780080F83420FFF776FB0223226884F83530A2
:10138800136823F00103136000231846191D02EBAC
:1013980081010133102B4860F8D19368A06843F0AD
:1013A80004039360636851680343A06A0343E06AD7
:1013B8000343E0690343206A0343A06921F07F7176
:1013C800034321F47F31606A21F47C7121F001012B
:1013D80003430B4353602046FFF7ACFF2069E368E3
:1013E80022680343606911680343206B21F0FE0102
:1013F80003430B431360136843F001031360FFF7C3
:10140800F3FC054623689B68DA070CD5FFF7ECFC6C
:10141800054623689B68DB060FD500200123A063DF
:1014280084F8353038BDFFF7DFFC401BB0F57A7F14
:10143800E8D90823A363032038BDFFF7D5FC401B78
:10144800B0F57A7FE5D91023F4E7012038BD000014
:10145800024B186800F4C060704700BF007000407D
:10146800174B1A68B0F5007F02F4C0621CD1B2F5C0
:10147800007F15D01A6822F4C06242F400721A6024
:10148800104A116832224A430F49B2FBF1F2194659
:1014980001325869400500D522B94B695B050DD466
:1014A80000207047013AF4E7B2F5806F1FBF1A6851
:1014B80022F4C06242F480621A60F1E703207047A8
:1014C800007000400000002040420F002DE9F0416C
:1014D800069D04460F461646984621688A683A4291
:1014E80014BF01220022B24202D10020BDE8F081DF
:1014F8006B1CF3D0FFF778FCA0EB0800854201D302
:10150800002DEAD1042384F83930E36B43F001035A
:10151800E3630120BDE8F08137B50446FFF764FCBA
:101528000546002C49D094F83830012B47D00123C8
:1015380084F8383094F8392002F0FF033AB984F877
:1015480038302046FFF702FB41F2883323642068D5
:10155800A1680268236C013922F4706242EA012210
:1015680002602021009300222B462046FFF7AEFFA1
:10157800F0B9226865681168E36821F07F4143EAA1
:10158800056321F010010B431360A1696369556875
:101598000B43216943EA01430A4929400B4353603D
:1015A800136843F0010313600123E06384F83930C2
:1015B800002384F8383003B030BD0120FBE7022057
:1015C800F9E700BFFEF8E0FF37B51E4DAB6DDA0056
:1015D800044618D5FFF73CFFB0F5007F23D1802CD7
:1015E80029D9A02C8CBF02200120174A136823F0A8
:1015F800070303431360136803F00703181A18BF9F
:10160800012003B030BDAB6D43F08053AB65AB6DCB
:1016180003F080530193019BFFF71AFFAB6D23F092
:101628008053AB65D8E7802C07D808D0A4F17003A5
:1016380058425841D9E70020D7E70320D5E70220D0
:10164800D3E700BF0010024000200240254B9A68F3
:10165800D96812F00C0205D00C2A15D101F003014B
:10166800012918D119682048090755BFD3F89410E3
:101678001968C1F30321C1F3031150F8210082B3A3
:101688000C2A09D000207047042A29D0082A1748B4
:1016980018BF002070470020D968DA6801F00301FC
:1016A800C2F30212022902F1010205D0032912D065
:1016B800D968C1F3062103E0D9680D48C1F30621B2
:1016C800DB68B0FBF2F0C3F34163013348435B00CE
:1016D800B0FBF3F07047D9680448C1F30621EFE77F
:1016E80003487047001002407031000800127A0069
:1016F8000024F4002DE9F743054618B9012003B08A
:10170800BDE8F083A54C0368A668E768DB0606F029
:101718000C0607F003073CD51EB10C2E63D1012F30
:1017280061D12368980702D5AB69002BE6D02368FE
:10173800286A190756BFD4F8943023681B0903F0A8
:10174800F00383423AD2FFF73FFF0028D6D123683F
:1017580043F00803236023682A6A23F0F003134345
:1017680023606368EA6923F47F4343EA02236360E2
:10177800FFF76CFFA3688A4AC3F30313D35C03F033
:101788001F03D840874B18600020FFF7F7FA00289E
:10179800B5D12B68D8075DD42B68990700F19C80D8
:1017A8002B68180700F1D0802B68590700F1FC80DE
:1017B800AB6A002B40F065810020A0E7236843F066
:1017C80008032360236823F0F0030343236063685E
:1017D800EA6923F47F4343EA02236360FFF7F4FED8
:1017E8000028C5D08AE7AB691BB3236843F001031F
:1017F8002360FFF7F9FA804623689A0711D5236812
:1018080043F00803236023682A6A23F0F003134394
:1018180023606368EA6923F47F4343EA0223636031
:10182800B7E7FFF7E1FAA0EB08000228E4D90320A4
:1018380065E7236823F001032360FFF7D5FA8046A4
:1018480023689B07A5D5FFF7CFFAA0EB080002286D
:10185800F6D9ECE7082E03D00C2E08D1032F06D1B9
:1018680023689A0398D56B68002B95D146E76B6877
:10187800B3F5803F10D1236843F480332360FFF72A
:10188800B3FA804623689B0386D4FFF7ADFAA0EB32
:1018980008006428F6D9CAE7B3F5A02F04D1236855
:1018A80043F480232360E6E7226822F48032226032
:1018B800226822F480222260002BE0D1FFF794FAFC
:1018C8008046236898037FF567AFFFF78DFAA0EB92
:1018D80008006428F5D9AAE7042E03D00C2E10D1ED
:1018E800022F0ED12368590503D5EB68002B3FF46E
:1018F80005AF63682A6923F0F85343EA026363601B
:101908004EE7EB687BB1236843F480732360FFF7ED
:101918006BFA074623685A05EBD4FFF765FAC01B34
:101928000228F7D983E7236823F480732360FFF73D
:101938005BFA074623685B057FF532AFFFF754FA79
:10194800C01B0228F6D972E76B699BB1D4F89430B2
:1019580043F00103C4F89430FFF746FA0746D4F879
:1019680094309A073FF520AFFFF73EFAC01B0228D4
:10197800F5D95CE7D4F8943023F00103C4F8943027
:10198800FFF732FA0746D4F894309B077FF50CAF7F
:10199800FFF72AFAC01B0228F5D948E700100240D1
:1019A8005831000800000020A36DD80029D4A36D89
:1019B80043F08053A365A36D03F080530193019B0B
:1019C8004FF001085D4F3B68D9051DD5AB68012B69
:1019D8002BD1D4F8903043F00103C4F89030FFF7CE
:1019E80003FA41F288390746D4F890309B0742D56C
:1019F800B8F1000F3FF4DCAEA36D23F08053A3656C
:101A0800D6E64FF00008DDE73B6843F480733B609F
:101A1800FFF7EAF981463B68DA05D7D4FFF7E4F91E
:101A2800A0EB09000228F6D901E7052B06D1D4F866
:101A3800903043F00403C4F89030CAE7D4F89020FB
:101A480022F00102C4F89020D4F8902022F0040279
:101A5800C4F89020002BC2D1FFF7C6F941F28839AB
:101A68000746D4F890309807C2D5FFF7BDF9C01BD8
:101A78004845F6D9DBE6FFF7B7F9C01B4845B3D9A7
:101A8800D5E60C2E3FF43AAE022B236823F0807380
:101A9800236037D1FFF7A8F90646236899012BD4AC
:101AA8006A6BEB6A43EA02232A6B013A43EA0213A0
:101AB800AA6B120943EA4243EA6B5208013A43EA25
:101AC80042532A6C5208013A43EA4263E3602368AE
:101AD80043F080732360E36843F08073E360FFF7AB
:101AE80083F9054623689A013FF566AEFFF77CF94E
:101AF800401B0228F6D99AE6FFF776F9801B0228E0
:101B0800CBD994E6236813F0205F02BFE36823F083
:101B18000303E360E36823F0887323F48033E3600E
:101B2800FFF762F9054623689B017FF545AEFFF78D
:101B38005BF9401B0228F6D979E600BF0070004027
:101B48002DE9F0410E46044610B90120BDE8F081A8
:101B5800404A136803F007038B4229D32368D90747
:101B680031D421688A075BD43A4A136803F0070323
:101B78009E425DD311F0040F374D64D10B0706D593
:101B8800AB68226923F4605343EAC203AB60FFF7F2
:101B98005DFDAB68314AC3F30313BDE8F041D35C84
:101BA80003F01F03D8402E4B18600020FFF7E6B85B
:101BB800136823F007030B431360136803F007034C
:101BC8009942C2D1CAE76268234D032A2B681BD108
:101BD80013F0007FB9D0AB6823F003031343AB6065
:101BE800FFF702F941F288380746AB68626803F0EC
:101BF8000C03B3EB820FB4D0FFF7F6F8C01B4045D7
:101C0800F3D90320BDE8F081022A02D113F4003F82
:101C1800E0E712B913F0020FDCE713F4806FD9E79D
:101C28000D4AA068936823F0F003034393609BE791
:101C3800136823F0070333431360136803F00703A3
:101C48009E4282D196E7AB68E26823F4E0631343CF
:101C5800AB6093E7002002400010024058310008B2
:101C680000000020054B064A9B68C3F30223D35C9F
:101C7800044A106803F01F03D84070470010024060
:101C88006831000800000020054B064A9B68C3F332
:101C9800C223D35C044A106803F01F03D84070477E
:101CA800001002406831000800000020B0F5006F05
:101CB8002C4B08D1D3F8882002F44002B2F5400F2B
:101CC8004CD129487047B0F5805F21D1D3F88820DE
:101CD80002F04072B2F1407FF3D0B2F1007F16D12A
:101CE800D86810F480303CD0D868C0F302100130B6
:101CF800B1FBF0F1D868DB68C0F3062013F4003FAD
:101D080014BF112307234843B0FBF3F0704772B99F
:101D1800186910F4803024D0D868C0F3021001305C
:101D2800B1FBF0F118691B69C0F30620E6E7B2F5CC
:101D3800800F02D0B2F1807F0ED1586910F4803044
:101D48000FD0D868C0F302100130B1FBF0F1586928
:101D58005B69C0F30620D1E700207047B2F5000F99
:101D6800BDE770470010024068FF1F00F8B5454BFB
:101D7800DA6812F0030F05460E461C4600682AD0A2
:101D8800DA6802F0030282423CD1002A3AD0DB68CA
:101D98006A68C3F302130133934233D1236823F0F3
:101DA80080632360FFF720F8074623681A0132D4BE
:101DB800AF68002E36D0012E50D12269286922F44E
:101DC800C002400822F4FE42013842EA072242EAF1
:101DD8004052226132E0022810D0032814D0012892
:101DE80010D11B689F0738D5E3686A6823F073032E
:101DF800013A184340EA0210E060CFE71B6813F489
:101E0800806FF1D10120F8BD1A689103ECD41B68EA
:101E180013F4802FF5E7FEF7E7FFC01B0228C4D9AB
:101E28000320F8BD2169EB6821F41F3121F44071CA
:101E380041EA07211B0941EA43412161236843F034
:101E480080632360FEF7D0FF064623681B0113D585
:101E58002369AA69134323610020F8BD23696869CF
:101E680023F0C063400823F4FE43013843EA072304
:101E780043EA40632361E1E7FEF7B6FF801B0228CF
:101E8800E3D9CDE700100240F8B53D4BDA6812F00F
:101E9800030F05460E461C46006828D0DA6802F093
:101EA800030282423AD1002A38D0DB686A68C3F359
:101EB80002130133934231D1236823F08053236006
:101EC800FEF792FF074623689A0030D4A868002ED0
:101ED80034D06369296923F0C063490823F4FE43B9
:101EE800013943EA002343EA4163636132E002288F
:101EF80010D0032814D0012810D11B689F0738D5AB
:101F0800E3686A6823F07303013A184340EA021051
:101F1800E060D1E71B6813F4806FF1D10120F8BDB0
:101F28001A689103ECD41B6813F4802FF5E7FEF7C9
:101F38005BFFC01B0228C6D90320F8BD6269EB68A5
:101F480022F41F3222F4407242EA00221B0942EABC
:101F580043426261236843F080532360FEF744FFE5
:101F6800064623689B0005D563696A691343636164
:101F78000020F8BDFEF738FF801B0228F1D9DBE707
:101F8800001002402DE9F347066816F4006604467F
:101F980024D0416EB1F5800F2CD002D8C1B10126F2
:101FA8001CE0B1F5000F0DD0B1F5400FF7D14D4A47
:101FB800616ED2F8883023F440030B43C2F88830AE
:101FC80000260BE0474AD36843F48033D360EEE73A
:101FD8000430FFF7CBFE06460028E8D02368D80473
:101FE80006D5A16EB1F1807F74D008D8A9B10126B9
:101FF800354621E000212030FFF746FFEBE7B1F13D
:10200800007F04D0B1F1407FF1D1354609E0354A6F
:10201800D36843F48033D360F7E7201DFFF7A6FEAB
:102028000546002D5CD12F4AA16ED2F8883023F0E6
:1020380040730B43C2F888302368990340F14F81FD
:10204800284FBB6DDA0040F176814FF00008DFF8C9
:102058009890D9F8003043F48073C9F80030FEF73F
:10206800C3FE8246D9F80030DB053FD5002D44D1A8
:10207800D7F8903013F4407315D0D4F884209342E5
:1020880011D0D7F89030D7F8902042F48032C7F8B2
:102098009020D7F8902023F4407322F48032C7F8B8
:1020A8009020C7F89030D80709D5FEF79DFE41F279
:1020B80088390546D7F89030990740F10981D7F853
:1020C8009030D4F8842023F440731343C7F8903039
:1020D800354612E0002104F12000FFF7D5FE9FE706
:1020E8002E46A9E70010024000700040FEF77CFE73
:1020F800A0EB0A000228B5D90325B8F1000F03D0D8
:10210800BB6D23F08053BB652368DA0708D5904977
:10211800A06BD1F8882022F003020243C1F888207E
:102128009F0708D58A49E06BD1F8882022F00C0275
:102138000243C1F888205E0708D58549206CD1F88C
:10214800882022F030020243C1F88820180708D5F9
:102158007F49606CD1F8882022F0C0020243C1F8A0
:102168008820D90608D57A49A06CD1F8882022F4AD
:1021780040720243C1F888209A0608D57449E06C79
:10218800D1F8882022F440620243C1F888209F05D4
:1021980008D56F49E06DD1F8882022F44022024327
:1021A800C1F888205E0508D56949206ED1F88820D5
:1021B80022F440120243C1F88820580608D5644921
:1021C800206DD1F8882022F440520243C1F88820BB
:1021D800190608D55E49606DD1F8882022F440427E
:1021E8000243C1F88820DA0508D55949A06DD1F80D
:1021F800882022F440320243C1F888209B040FD57E
:10220800534AE16ED2F8883023F040630B43B1F1B2
:10221800006FC2F8883064D1D36843F48013D36068
:1022280023681F030FD54A4A216FD2F8883023F05C
:1022380040630B43B1F1006FC2F888305CD1D368BA
:1022480043F48013D36023685E030FD5404A616F5F
:10225800D2F8883023F040630B43B1F1006FC2F825
:10226800883054D1D36843F48013D360236858046A
:1022780012D53749A26FD1F8883023F04053134361
:10228800B2F1805FC1F888304CD10221201DFFF7E0
:102298006DFD002818BF05462268110408D52C4991
:1022A800E06FD1F8883023F080430343C1F88830C9
:1022B800D30309D5264AD4F88010D2F8883023F001
:1022C80000430B43C2F88830284602B0BDE8F087C7
:1022D800FEF78AFD401B48457FF6ECAE0CE7354615
:1022E80012E7B1F1806F9BD10121201DFFF73EFD60
:1022F800002818BF054693E7B1F1806FA3D10121EB
:10230800201DFFF733FD002818BF05469BE7B1F1F4
:10231800806FABD10121201DFFF728FD002818BFD1
:102328000546A3E7B2F1005FB6D1022104F120000F
:10233800FFF7AAFDADE7BB6D43F08053BB65BB6DEE
:1023480003F080530193019B4FF001087FE600BF23
:1023580000100240B0F5003FC74B1DD1D3F89020C4
:1023680002F44072B2F5007F00F0C681B2F5407FFA
:102378000BD0B2F5807F3AD1D3F8903013F0020F2A
:102388000CBF00204FF4004070471B68BB4813F493
:10239800003F08BF00207047DA6802F00302022AF3
:1023A80027D0032A2CD0012A2FD1196811F0020155
:1023B8000DD01A6811074CBF1A68D3F89420B04999
:1023C8004CBFC2F30312C2F3032251F82210B0F536
:1023D800007F00F0838155D8102800F01D8129D88E
:1023E800022800F0E48012D8012800F0D2800020F2
:1023F80070471A68A34912F4806F08BF0021E6E706
:102408001A68A14912F4003FF7E70021DFE7042822
:1024180000F0F2800828EAD1D3F8882002F0C00240
:10242800402A00F0408140F2EE80802A00F0478187
:10243800C02AA0E7402800F0388112D82028D6D139
:10244800D3F8882002F44062B2F5806F00F02B8147
:1024580040F2D980B2F5006F00F03181B2F5406FDB
:1024680089E7802800F03081B0F5807FBFD1D3F8AC
:10247800882002F44032B2F5803F00F01481B2F5B2
:10248800003F1BE1B0F5804F00F0D48037D8B0F59D
:10249800006F4CD013D8B0F5806FA8D1D3F888203E
:1024A80002F44012B2F5801F00F0268140F2AB80A2
:1024B800B2F5001F00F00381B2F5401F5BE7B0F5ED
:1024C800805F34D0B0F5005F91D1D3F8882002F056
:1024D8004062B2F1006F40D0B2F1406F29D0B2F142
:1024E800806F84D1186810F0006081D0186910F4EA
:1024F80080103FF47DAFDA6818691B693AE0B0F5DF
:10250800803F00F0CC800CD8B0F5004F7FF46FAF5F
:10251800D3F8882012F0804278D0002A40F0CF808B
:1025280065E7B0F5802FD0D0B0F5002FCCE7FFF7E6
:10253800BDBB186810F002003FF45AAF1A681207C2
:102548004CBF1B68D3F894304D4A4CBFC3F30313F8
:10255800C3F3032352F823007047186810F0007083
:102568003FF446AFD86810F480103FF441AFDA6802
:10257800D868DB68C2F30212C0F306200132B1FB4F
:10258800F2F14843C3F3415101314900B0FBF1F086
:102598007047D3F8882002F00302022A00F08F80E7
:1025A800032A3FF4E9AE012A7DD0FFF76DBBD3F8CB
:1025B800882002F00C020C2A3FF619AF01A151F84D
:1025C80022F000BF15260008F7230008F7230008AB
:1025D800F7230008AF260008F7230008F7230008B0
:1025E800F7230008C7260008F7230008F723000888
:1025F800F723000881230008D3F8882002F030026E
:10260800102A50D004D8002A7FF4F1AEFFF72ABB75
:10261800202A54D0302AAEE6D3F8882002F440723B
:10262800B2F5807F3FD0EED9B2F5007F47D0B2F542
:10263800407FA0E6D3F8882002F04052B2F1005F54
:1026480024D0B2F1405F2ED0B2F1805F7FF4CFAEDC
:10265800186910F080703FF4CBAEDA6818691B690E
:10266800C2F30212C0F306200132B1FBF2F1484373
:10267800C3F3416188E700BF0010024090D0030017
:10268800703100080024F40000127A00586910F034
:1026980080703FF4ADAEDA6858695B69E0E7D3F85B
:1026A8008830002B81DAFEF7D1BFD3F8882002F4F6
:1026B8004052B2F5805FF6D0B2F5005FA3D11B6837
:1026C800124813F4806F64E6D3F8882002F440427D
:1026D800B2F5804FE7D0B2F5004FEFE7D3F8882086
:1026E80002F44022B2F5802F06D08CD9B2F5002F23
:1026F800E5D0B2F5402F3EE6D3F8943013F0020F40
:102708000CBF00204FF4FA40704700BF0024F400CB
:10271800026838B5D36823F0A003D3600446FEF7F7
:1027280063FB05462368DB689B0601D5002038BD9E
:10273800FEF75AFB401BB0F57A7FF3D9032038BD6A
:1027480038B50368DA685206044601D5002038BD5A
:102758004FF0FF32DA60FEF747FB05462368DB6877
:102768005B06F3D4FEF740FB401BB0F57A7FF5D942
:10277800032038BD38B50446D8B190F8213003F0AD
:10278800FF021BB980F82020FEF716FA022384F80E
:1027980021302368CA225A6253225A622046FFF720
:1027A800CFFF2368054638B1FF225A62042384F814
:1027B80021300125284638BD9A68206922F4E002B4
:1027C80022F040029A60626899680243A069024355
:1027D8000A439A60E2681A611A69A16842EA0142EA
:1027E8001A61DA6822F08002DA609B689B0605D4D9
:1027F8002046FFF78DFF08B12368D5E72368606995
:10280800DA6C22F00302DA64E269D96C02430A4303
:10281800DA64FF225A62012384F82130CAE70023D0
:10282800092803D840EA0310C0B270470A380133B8
:10283800C0B2F5E7F8B590F82030012B05464FF007
:10284800020634D0012380F8203080F821604B78CC
:10285800C8788E780C78002A4ED1DA0603D523F092
:1028680010030A334B70FFF7DAFF07464878FFF783
:10287800D6FF02463046FFF7D2FF40EA443040EA2E
:10288800074040EA02242B68CA225A6253225A623D
:102898002846FFF755FF2B68064650B1FF225A62BB
:1028A800042385F82130002385F82030012630469E
:1028B800F8BD24F07F4424F0C0045C60DA6822F09C
:1028C8008002DA609B689B060CD42846FFF720FF3D
:1028D80040B12B68FF225A62042385F8213085F81D
:1028E8002060E3E72B68FF225A62012385F8213034
:1028F800002385F82030DAE71B0243EA0040304322
:1029080040EA4434BFE790F82030012B2DE9F0412C
:1029180005460E4690464FF0020717D0036880F828
:102928002170CA22012480F820405A6253225A6238
:10293800FFF706FF2B68074658B1FF225A620423A7
:1029480085F82130002385F8203001273846BDE876
:10295800F08130787478B1789B68B8F1000F38D17D
:102968005A0658BFF770FFF75AFF02462046FFF78E
:1029780056FF04460846FFF752FFF37840EA8350B3
:1029880040EA024040EA04202B6800F07F3020F043
:10299800FE4018609A68306922F480229A60F268D2
:1029A800996802430A439A60DA6822F08002DA6082
:1029B8009C6814F0200418D12846FFF7A9FEA0B19E
:1029C8002B68FF225A62042385F8213085F82040BD
:1029D800BBE75B064FEA042458BFF77044EA00409F
:1029E800F478084340EA8450CEE72B68FF225A6205
:1029F800012385F82130002385F82030A6E7000060
:102A08000E4B01681A6841F65833B2FBF3F20B68B3
:102A180023F4803392000B603AB9D0F8803043F049
:102A28004003C0F88030032070470B6813F48033EC
:102A380002F1FF32F0D11846704700BF00000020B5
:102A4800F8B5044610B901252846F8BD90F87D3040
:102A580003F0FF021BB980F87C20FEF7F1F820464E
:102A6800FFF7CEFF05460028EDD1022384F87D301C
:102A7800E368012B00F09480022B0CBF2023002375
:102A8800A268022A00F09080032A00F08B80012AB5
:102A98000CBF4FF48066002622684A498A4203D058
:102AA8004948824240F0838048480360E369B3B1F3
:102AB8008A4202D0444B9A427BD14FF40060FFF720
:102AC80049FCE3690A225B025043B0FBF3F0B0FB18
:102AD800F2F302FB1300092808BF0133236263687D
:102AE800E26B33F0020167D1012A18BF4FF400717D
:102AF8002268374817683840276B10603B43676B7C
:102B080010683B43A76B3B43676A3B4327693B43DA
:102B180067693B430343206A43EA005333430B434B
:102B280013605368A06A23F4604323F00F035360D3
:102B3800A36951680343E06A03430B4353609168F8
:102B4800244BA06C0B409360236D91680343E06CA9
:102B580003430B43216C01390B43616C013943EA90
:102B680001239360D36823F47D6323F00F031B04D0
:102B78001B0CD360D168636DA06D03430B43216EBA
:102B880043EA0143E16D013943EA0123D36000239D
:102B98000122C4F8803084F87C3084F87D2053E723
:102BA80010236DE743F001034FF4006674E70A4809
:102BB8007BE74FF4805082E7012A14BF00214FF4CD
:102BC800007195E704540140245401400054014029
:102BD80010C005FF0080F8FF005801400268C16975
:102BE800F8B50446836800691568034360690343C0
:102BF800BA480B432840034313605368E06823F442
:102C0800405303435360B64BA0699A421CBF236AE2
:102C18001843936823F4306303439360B14B9A429B
:102C280019D103F55843B04AD3F8883003F00303A9
:102C3800B1F5004FD35C40F03881082B00F28F804B
:102C4800DFE813F01A01CA00F9008D0014018D00A5
:102C58008D008D003600A54B9A4207D103F5E63367
:102C6800A34AD3F8883003F00C03E1E7A14B9A425A
:102C780023D103F5E433D3F8883003F03003102B65
:102C880000F0F1800BD8002B00F0F380B1F5004F75
:102C98004FF001024FF0000300F0F880A8E0202B6D
:102CA80000F0C680302BF1D1B1F5004F40F0B8806C
:102CB8006068430803F58033C3E08F4B9A421ED106
:102CC80003F5E233D3F8883003F0C003402B00F05B
:102CD800BB800AD87BB9824B9A4240F0CA80FEF783
:102CE800C1FF0023B0BB02463AE0802B00F09D8074
:102CF800C02B00F0B0807A4B9A42C7D12FE07F4BAF
:102D08009A4211D103F5E033D3F8883003F44073C5
:102D1800B3F5807F00F09880DCD9B3F5007F00F030
:102D28008480B3F5407FE4E76D4B9A42AED103F55A
:102D3800C833D3F8883003F44063B3F5806F00F0EC
:102D48008380C7D9B3F5006F6FD0B3F5406FD0E774
:102D58006B480223626802EB4201814205D90122D5
:102D68000023236663661046F8BDB0EB023FF6D831
:102D7800082B2ED8DFE803F0052D1C2D242D2D2D32
:102D88002700FEF76FFF62684FF48071560800272E
:102D9800E1FB0067002330463946FDF711FA0022AF
:102DA800584BA0F540719942D9D82368D860D7E725
:102DB8005548550800230021401941F10001ECE76E
:102DC800FEF744FCDFE750080021002310F500005F
:102DD800F3E701220020E3E7FEF756FF4EE0FEF797
:102DE80041FF626800EB5203B3FBF2F39BB200228F
:102DF800A3F110004FF6EF718842B0D82168CB607C
:102E0800AEE7FEF741FFECE76068430803F574039B
:102E180003F51053B3FBF0F3E8E7FEF717FCE0E720
:102E28006068430803F50043F4E72D4B9A428FD0BE
:102E3800B1F5004FE8D16068430803F1F47303F576
:102E48009043B3FBF0F31FE0254B9A420BD1FEF7FA
:102E5800FDFB042346E7224B9A427FF425AF4FF44B
:102E68000040082376E7B1F5004FD6D1FEF7EEFB18
:102E780004E0B1F5004FB2D1FEF7F4FE61684A08EC
:102E880002EB4003B3FBF1F39BB20022A3F1100065
:102E98004FF6EF7188423FF662AF23F00F012068CA
:102EA800C3F342030B43C3605AE7082B3FF657AFFF
:102EB80001A252F823F000BFE72D00080B2E0008EE
:102EC800112E0008672D0008232E0008672D000822
:102ED800672D0008672D0008292E0008F369FFEF09
:102EE8000080004000380140A03100080044004044
:102EF800A431000800480040004C00400050004049
:102F08000024F400FFFC0F00000024F4436ADA07F1
:102F180010B506D50168846A4A6822F40032224353
:102F28004A609C0706D50168C46A4A6822F4803260
:102F380022434A60590706D50168046B4A6822F49F
:102F4800802222434A601A0706D50168446B4A6802
:102F580022F4004222434A60DC0606D50168846BED
:102F68008A6822F4805222438A60990606D501684D
:102F7800C46B8A6822F4005222438A605A060FD52D
:102F88000168046C4A6822F480122243B4F5801F59
:102F98004A6005D14A68446C22F4C00222434A6060
:102FA8001B0606D50268816C536823F400230B4383
:102FB800536010BD2DE9F041069D04460F461646A4
:102FC80098462168CA6937EA02030CBF0122002229
:102FD800B24202D00020BDE8F0816B1CF2D09DB94E
:102FE80023681A6822F4D0721A609A6822F00102E3
:102FF8009A60202384F8713084F87230002384F8B2
:1030080070300320BDE8F081FDF7EEFEA0EB08006C
:103018008542D6D2E4E773B5044600264667FDF735
:10302800E3FE23681B681A07054617D423681B6844
:103038005B070AD56FF07E43009300222B464FF4BE
:1030480080012046FFF7B6FFA0B92023002084F8AE
:10305800713084F8700084F872300CE06FF07E43B1
:103068000093324603464FF400112046FFF7A2FFB3
:103078000028DBD0032002B070BD10B5044660B351
:1030880090F8713003F0FF021BB980F87020FDF74B
:10309800A3FD2268242384F87130136823F0010308
:1030A80013602046FFF79AFD012816D0636A13B112
:1030B8002046FFF72BFF23685A6822F490425A6093
:1030C8009A6822F02A029A601A6842F001022046A1
:1030D8001A60BDE81040FFF79EBF012010BD000038
:1030E80070B50D4E0D4CA41BA4100025A54209D1A6
:1030F8000B4E0C4C00F020F8A41BA4100025A54290
:1031080005D170BD56F8253098470135EEE756F8D9
:10311800253098470135F2E7BC310008BC3100087A
:10312800BC310008C031000802440346934200D174
:10313800704703F8011BF9E7F8B500BFF8BC08BCF5
:103148009E467047F8B500BFF8BC08BC9E4670475D
:10315800000000000000000001020304060708093F
:103168000000000001020304A0860100400D0300D6
:10317800801A060000350C0040420F0080841E00B3
:1031880000093D0000127A000024F40000366E01A8
:103198000048E801006CDC0201040208001010106D
:0C31A800041010100210101008000000AD
:0831B40044D0FF7F0100000080
:0431BC00AD01000859
:0431C0008901000879
:0431C40000093D00C1
:04000005080004D912
:00000001FF
