:020000040800F2
:100000000080012081050008D90C0008DB0C0008E5
:10001000DD0C0008DF0C0008E10C00080000000007
:10002000000000000000000000000000E30C0008D9
:10003000E50C000800000000E70C0008E90C0008CF
:10004000D1050008D1050008D1050008D105000838
:10005000D1050008D1050008D1050008D105000828
:10006000D1050008D1050008D1050008D105000818
:10007000D1050008D1050008D1050008D105000808
:10008000D1050008D1050008D1050008D1050008F8
:10009000D1050008D1050008D1050008D1050008E8
:1000A000D1050008D1050008D1050008D1050008D8
:1000B000D1050008D1050008D1050008D1050008C8
:1000C000D1050008D1050008D1050008D1050008B8
:1000D000D1050008D1050008D1050008D1050008A8
:1000E000D1050008D1050008D1050008D105000898
:1000F000D1050008D1050008D1050008D105000888
:10010000D1050008D1050008D1050008D105000877
:10011000D1050008D1050008D1050008D105000867
:10012000D1050008ED0C0008D1050008D105000834
:10013000D1050008D1050008D1050008D105000847
:10014000D1050008D1050008D1050008D105000837
:10015000D1050008D1050008D1050008D105000827
:10016000D1050008D1050008D1050008D105000817
:10017000D1050008D1050008D105000800000000E5
:08018000D1050008D1050008BB
:1001900010B5054C237833B9044B13B10448AFF3C1
:1001A00000800123237010BD6800002000000000C3
:1001B0005439000808B5034B1BB103490348AFF39A
:1001C000008008BD000000006C00002054390008C9
:1001D00001F0FF01102A2BDB10F0070F08D010F8F8
:1001E000013B013A8B422DD010F0070F42B3F6D1FC
:1001F000F0B441EA012141EA014122F007047FF015
:1002000000070023F0E80256083C85EA010586EA6B
:10021000010685FA47F5A3FA87F586FA47F6A5FAA7
:1002200087F68EB9EED1F0BC01F0FF0102F00702B3
:1002300032B110F8013B013A83EA010313B1F8D15E
:100240000020704701387047002D06BF354603383F
:10025000073815F0010F07D1013015F4807F02BF78
:10026000013015F4C03F0130F0BC0138704700BFC9
:1002700053B94AB9002908BF00281CBF4FF0FF310D
:100280004FF0FF3000F07AB9ADF1080C6DE904CE03
:1002900000F006F8DDF804E0DDE9022304B0704761
:1002A0002DE9F0478C460D460446089E002B51D19F
:1002B0008A4217466DD9B2FA82FEBEF1000F0BD00A
:1002C000CEF1200C01FA0EF520FA0CFC02FA0EF722
:1002D0004CEA050C00FA0EF44FEA174A250CBCFB59
:1002E000FAF81FFA87F90AFB18CC45EA0C4508FB17
:1002F00009F3AB420AD9ED1908F1FF3280F02381EE
:10030000AB4240F22081A8F102083D44ED1AA4B2AC
:10031000B5FBFAF00AFB105544EA054400FB09F965
:10032000A14509D9E41900F1FF3380F00A81A14504
:1003300040F2078102383C44A4EB090440EA08403B
:100340000021002E61D024FA0EF400233460736083
:10035000BDE8F0878B4207D9002E54D0002186E8F3
:1003600021000846BDE8F087B3FA83F1002940F088
:100370008E80AB4202D3824200F2FA80841A65EB8F
:1003800003050120AC46002E3FD086E81010BDE8E2
:10039000F08712B90127B7FBF2F7B7FA87FEBEF173
:1003A000000F34D1EB1B3A0C1FFA87FC0121B3FB81
:1003B000F2F8250C02FB183345EA03450CFB08F361
:1003C000AB4207D9ED1908F1FF3002D2AB4200F27F
:1003D000D1808046ED1AA3B2B5FBF2F002FB1055B6
:1003E00043EA05440CFB00FCA44507D9E41900F1DD
:1003F000FF3302D2A44500F2B8801846A4EB0C04E7
:1004000040EA08409DE731463046BDE8F087CEF12E
:10041000200405FA0EF307FA0EF720FA04F83A0C56
:1004200025FA04F448EA0308B4FBF2F14FEA184550
:1004300002FB11441FFA87FC45EA044501FB0CF35B
:10044000AB4200FA0EF409D9ED1901F1FF3080F04A
:100450008A80AB4240F2878002393D44EB1A1FFA92
:1004600088F5B3FBF2F002FB103345EA034500FBCD
:100470000CF3AB4207D9ED1900F1FF386FD2AB4254
:100480006DD902383D44EB1A40EA01418FE7C1F1D2
:10049000200722FA07F88B4005FA01F448EA030323
:1004A00020FA07FE4FEA134CFD404EEA040EB5FB5E
:1004B000FCF94FEA1E440CFB19551FFA83F844EA75
:1004C000054509FB08F4AC4202FA01F200FA01FA10
:1004D00008D9ED1809F1FF3043D2AC4241D9A9F156
:1004E00002091D442D1B1FFA8EFEB5FBFCF00CFB10
:1004F00010554EEA054400FB08F8A04507D9E4185A
:1005000000F1FF3529D2A04527D902381C4440EA22
:100510000940A4EB0804A0FB02894C45C6464D46A1
:1005200015D312D056B1BAEB0E0364EB050404FAEE
:1005300007F7CB401F43CC40376074600021BDE813
:10054000F0871846F8E69046E0E6C245EAD2B8EBF6
:10055000020E69EB03050138E4E72846D7E7404679
:1005600091E78146BEE7014678E702383C4445E71B
:10057000084608E7A8F102083D442BE7704700BF92
:10058000DFF834D0002103E00C4B5B5843500431BA
:100590000B480C4B42189A42F6D30B4A02E0002358
:1005A00042F8043B094B9A42F9D300F0A5FB02F054
:1005B00087FD00F081F8FEE7008001205C3A00082A
:1005C0000000002068000020680000209C0200203D
:1005D000FEE7000008B50A4B1968024609B9094947
:1005E00019601868694602448A4206D902F062FD21
:1005F0000C2303604FF0FF3008BD1A6008BD00BF38
:10060000840000209C02002010B5322314460348C9
:1006100092B202F094FC204610BD00BFD40100202D
:10062000F0B5B9B014264422002105A802F06CFDF3
:1006300032460021684602F067FD8822002116A894
:1006400002F062FD18230124022505930727602389
:100650000DEB06000D9312960A9400260B940F954D
:100660001094119413971495159500F08BFF0322A5
:1006700080230F218DE84E0068462146049601F044
:10068000A7F90C4B1693482325962F9619934FF4F0
:1006900000764FF4803316A81D933796179418945C
:1006A0001A971B951C9501F0B5FB304600F020FE13
:1006B00039B0F0BD020802002DE9F04FB44D9BB0F7
:1006C00000F056FBFFF7ACFF142200210DA802F04A
:1006D0001BFDEB6CAF4843F01003EB64EB6C03F0D5
:1006E00010030893089BEB6C43F00403EB64EB6C82
:1006F00003F004030993099BEB6C43F00103EB64E3
:10070000EB6C03F001030A930A9BEB6C43F00203CA
:10071000EB64EB6C03F002030B930B9BEB6C43F06D
:100720000803EB64EB6C03F008030C9300224FF416
:1007300084710C9B00F03EFD0022042196480024A9
:1007400000F038FD0126082302270DA991480D93DA
:100750000E9610970F9400F051FC0DA98F480D963E
:100760000E940F9400F04AFC2F230DA94FF09040F7
:100770004FF003080D930F970E94042700F03EFCF2
:100780000DA985480D970E960F96CDF8408000F084
:1007900035FC4FF480730DA97E480D930E960F968D
:1007A000CDF8408000F02AFCAB6C43F00203AB6450
:1007B000AB6C03F002032146224607933920079BC6
:1007C00000F01AFB392000F04BFB7548754B846034
:1007D0000C2580E81800C560046144618461C4612F
:1007E000046204638462C462446200F001FD6E48E6
:1007F0006E4B86604FF0FF0980E808020661C46016
:100800004461846100F0D0FD69486A4B0360802335
:1008100043634FF47A53C36140230364202343644A
:100820004FF48033644E83644FF6FF73C7650366ED
:10083000046344608463C4638460046144618461CC
:10084000C46044628462C462C464046544658465AF
:1008500002F08AF8594A75614FF4E133304686E870
:100860000C00B460F4603461B461F46134627462A9
:1008700002F0EEFB142221460DA802F045FC504D7B
:10088000504BC5F80C9085E8180028467F234FF0A0
:100890001709AB604FF03B0B4FF0320A06942C6106
:1008A0006C61AC61EC6101F0ADFE22460DA92846F9
:1008B0008DF834908DF835B08DF836A010941194E1
:1008C00001F069FF8DF81880DFF800818DF819704C
:1008D0001323224606A928468DF81B3005938DF870
:1008E0001A9001F0EFFE88F80170374F059B88F8E9
:1008F000033022464146284688F8029001F0E2FE85
:1009000022463946284601F0CBFF22463946284682
:1009100087F8009087F801B087F802A001F03BFF4C
:100920004FF4FA6000F048FA4FF47A7000F044FA9D
:100930004FF48071174800F042FC012000F03CFAAF
:100940000421154800F03BFC022000F035FA00229B
:100950001D49284601F0A4FF00221C49284601F049
:10096000C3FF98F803107B783A78039198F8011048
:10097000029198F802100191B97800910DA81449DC
:1009800002F0CAFB0DA982B23046FFF73DFE21E01E
:100990000010024000100048000400480008004811
:1009A000980100200024004050020020001000A008
:1009B000A800002024540140D4010020004400403D
:1009C0002C01002000280040940000204C02002050
:1009D0006C390008054B064900220DA802F09CFB6B
:1009E0000DA982B23046FFF70FFE9DE75C51020071
:1009F0009A390008704700000A4B1A6E42F0010253
:100A00001A661A6E82B002F001020092009A9A6D84
:100A100042F080529A659B6D03F080530193019BD5
:100A200002B070470010024070B514228AB004462C
:100A300000210DEB020002F067FB2268304B9A4266
:100A40005CD103F5F63302269A6D2E4842F400720B
:100A50009A659A6D02F400720092009ADA6C42F084
:100A60000402DA64DA6C02F004020192019ADA6C90
:100A700042F00102DA64DA6C02F001020292029A98
:100A8000DA6C42F00202DA64DA6C02F002020392DB
:100A9000039ADA6C42F00802DA64DB6C069603F023
:100AA000080304930B25049B09954FF4FC7305A9D7
:100AB0000024059300F0A2FA48F2C07305A94FF094
:100AC00090400593069607940894099500F096FACD
:100AD0004FF2332305A90C48059306960794089412
:100AE000099500F08BFA4FF47F4305A90748059359
:100AF000069607940894099500F080FA0AB070BD34
:100B0000002400400008004800040048000C004891
:100B100010B5044688B01422002103A802F0F4FAAC
:100B20002268144B9A4222D103F1204303F500338B
:100B300003A91A6D104842F480721A651A6D02F406
:100B400080720192019ADA6C42F01002DA64DB6C76
:100B500003F010030293029B4FF47C4303930223A0
:100B60000493032306930A23079300F047FA08B07F
:100B700010BD00BF001000A0001000480268054B27
:100B80009A4201BF044AD2F8903043F40043C2F8BD
:100B900090307047002800400010024010B5044615
:100BA00088B01422002103A802F0AEFA2268134B89
:100BB0009A4221D103F5E63303A99A6D104842F415
:100BC00000329A659A6D02F400320192019ADA6C51
:100BD00042F00802DA64DB6C03F008030293029B24
:100BE00060230393022304930123059303230693B5
:100BF0000723079300F002FA08B010BD004400403C
:100C0000000C00482DE9F04102682C4B9A4286B056
:100C1000064650D12A4B1A684AB92A49086E40F450
:100C200000100866096E01F4001100910099264831
:100C3000013200251A600D24022703234FF080089B
:100C400001A904930594CDF804800297039500F060
:100C5000D5F94FF4007301A91B480193059402973D
:100C60000395049500F0CAF9082301A917480193D8
:100C700005940297164C0395049500F0BFF91549A9
:100C8000E5601023012284E80E004FF48073636155
:100C90004FF48063A3612023E36120464FF40053A7
:100CA000C4F81080236200F0FDF808B1FFF7A2FE3F
:100CB0003467A662F46606B0BDE8F08124540140B2
:100CC0008800002000100240001000480004004886
:100CD000500100201C0402407047FEE7FEE7FEE7DB
:100CE000FEE770477047704700F058B8014800F0C1
:100CF0003BB900BF500100200F49D1F8883043F4C0
:100D00007003C1F888300D4B1A68002042F00102D0
:100D10001A6098601A6822F0A85222F410221A6011
:100D20004FF48052DA601A6822F480221A609861C7
:100D30004FF000638B60704700ED00E00010024050
:100D400038B50A4B054618684FF47A73B0FBF3F0D8
:100D500000F092F8044638B9024629464FF0FF30B9
:100D600000F04AF8204638BD012038BD00000020C0
:100D7000094A136843F4807310B50320136000F030
:100D800029F80020FFF7DCFF044618B9FFF734FE0E
:100D9000204610BD0124FBE700200240024A1368F0
:100DA00001331360704700BF94020020014B1868A4
:100DB000704700BF9402002038B50446FFF7F6FFE5
:100DC000631C054618BF0134FFF7F0FF401B844247
:100DD000FAD838BD074AD36823F4E0631B041B0C20
:100DE00043F0BF63000243F4003300F4E0600343C8
:100DF000D360704700ED00E0174B30B5DC68C4F3FA
:100E00000224C4F10703251D042B28BF0423062D4B
:100E10004FF0010505FA03F303F1FF338CBF033CE8
:100E200000241940A14005FA04F4013C22400028A6
:100E300042EA01024FEA0212AFBF00F1604000F047
:100E40000F00064BD2B2A5BF00F56140D2B21A54D2
:100E500080F8002330BD00BF00ED00E014ED00E09D
:100E60004209012300F01F0003FA00F0014B43F890
:100E70002200704700E100E00138B0F1807F0AD223
:100E8000064B074A5860F02182F823100020072201
:100E900098601A6070470120704700BF10E000E0C2
:100EA00000ED00E030B500284ED00168274B994294
:100EB0004FF0140440D8264A0A44B2FBF4F29200E0
:100EC0004264A3F207430364022380F82530846858
:100ED000C36805690A6823432B4345692B43856929
:100EE0002B43C5692B43056A22F4FF4222F07002AE
:100EF0002B431343B4F5804F0B6014D0026C154B99
:100F00009A420CBF14491549436C0A6803F01C034C
:100F10000F249C4022EA04020A6042680C6802FA2C
:100F200003F323430B6000230122C36380F82430C2
:100F300080F82520184630BD094B0B44B3FBF4F371
:100F40009B004364074BBEE7012030BD070402400D
:100F5000F8FFFDBF00000240A8000240A8040240C4
:100F6000F8FBFDBF00040240016C426C036870B4E2
:100F700002F01C020E681D680424944026420ED024
:100F800015F0040F0BD01A6892065EBF1A6822F0A3
:100F900004021A60036B4C6073B370BC18470224E0
:100FA0009440264212D015F0020F0FD01A68950611
:100FB00006D41A6822F00A021A60012380F825304C
:100FC00000234C6080F82430C36AE5E7082494408D
:100FD000344211D02C070FD51C6824F00E041C607D
:100FE000012303FA02F24A60C36380F8253000232C
:100FF00080F82430436BCFE770BC70472DE9F04F89
:1010000085B00B68DFF8A881674C01930023019A33
:10101000DA4002D105B0BDE8F08F0126019A9E406A
:1010200012EA060E00F0B1804A6822F01007022F83
:1010300016D14FEAD30900EB890903F0070AD9F862
:1010400020504FEA8A0A4FF00F0C0CFA0AFC25EAEE
:101050000C0C0D6905FA0AF545EA0C05C9F8205093
:101060004FEA430C0325D0F800B005FA0CF5ED4328
:1010700002F0030A0BEA050B0AFA0CF9013F49EAF0
:101080000B09012FC0F8009011D8876805EA0709FD
:10109000CF6807FA0CF747EA09078760476827EA2D
:1010A0000609C2F300179F4047EA09074760BAF1F3
:1010B000030F07D1C76A27EA0606C2F3C0079F409D
:1010C0003E43C662C66835408E6806FA0CF6354364
:1010D000C560D50059D5D8F8605045F00105C8F86D
:1010E0006050D8F8605023F0030606F1804605F002
:1010F000010506F58036039503F0030C039DB568E2
:101100004FEA8C0C0F2707FA0CF7B0F1904F25EA45
:1011100007073CD0254DA8423BD005F58065A84285
:1011200039D005F58065A84237D005F58065A8421D
:1011300035D005F58065A84233D005F58065A84215
:1011400014BF0725062505FA0CF53D43B560256853
:101150006FEA0E06D70354BF35404EEA05052560F9
:101160006568970354BF35404EEA05056560A5687C
:10117000D70254BF35404EEA0505A560E5689202E6
:1011800054BF35404EEA0505E56001333FE70025D1
:10119000D9E70125D7E70225D5E70325D3E70425BD
:1011A000D1E70525CFE700BF000401400004004857
:1011B000001002400AB18161704781627047436943
:1011C00059404161704738B50446FFF7EFFD0546C9
:1011D00023689B689B0601D5002038BDFFF7E6FD1C
:1011E000401BB0F57A7FF3D90123A363032038BDF8
:1011F00038B50446002871D090F8353003F0FF026E
:101200001BB980F83420FFF70FFC0223226884F812
:101210003530136823F00103136000231846191DAD
:1012200002EB81010133102B4860F8D19368A0686C
:1012300043F004039360636851680343A06A034367
:10124000E06A0343E0690343206A0343A06921F095
:101250007F71034321F47F31606A21F47C7121F0B6
:10126000010103430B4353602046FFF7ACFF2069A5
:10127000E36822680343606911680343206B21F02F
:10128000FE0103430B431360136843F00103136033
:10129000FFF78CFD054623689B68DA070CD5FFF73E
:1012A00085FD054623689B68DB060FD500200123DA
:1012B000A06384F8353038BDFFF778FD401BB0F5EA
:1012C0007A7FE8D90823A363032038BDFFF76EFDBA
:1012D000401BB0F57A7FE5D91023F4E7012038BD33
:1012E000024B186800F4C060704700BF00700040F7
:1012F000174B1A68B0F5007F02F4C0621CD1B2F53A
:10130000007F15D01A6822F4C06242F400721A609D
:10131000104A116832224A430F49B2FBF1F21946D2
:1013200001325869400500D522B94B695B050DD4DF
:1013300000207047013AF4E7B2F5806F1FBF1A68CA
:1013400022F4C06242F480621A60F1E70320704721
:10135000007000400000002040420F002DE9F041E5
:10136000069D04460F461646984621688A683A420A
:1013700014BF01220022B24202D10020BDE8F08158
:101380006B1CF3D0FFF712FDA0EB0800854201D3E0
:10139000002DEAD1042384F83930E36B43F00103D4
:1013A000E3630120BDE8F08137B50446FFF7FEFC9A
:1013B0000546002C49D094F83830012B47D0012342
:1013C00084F8383094F8392002F0FF033AB984F8F1
:1013D00038302046FFF79CFB41F2883323642068B5
:1013E000A1680268236C013922F4706242EA01228A
:1013F00002602021009300222B462046FFF7AEFF1B
:10140000F0B9226865681168E36821F07F4143EA1A
:10141000056321F010010B431360A16963695568EE
:101420000B43216943EA01430A4929400B435360B6
:10143000136843F0010313600123E06384F839303B
:10144000002384F8383003B030BD0120FBE70220D0
:10145000F9E700BFFEF8E0FF37B51E4DAB6DDA00CF
:10146000044618D5FFF73CFFB0F5007F23D1802C50
:1014700029D9A02C8CBF02200120174A136823F021
:10148000070303431360136803F00703181A18BF18
:10149000012003B030BDAB6D43F08053AB65AB6D45
:1014A00003F080530193019BFFF71AFFAB6D23F00C
:1014B0008053AB65D8E7802C07D808D0A4F170031F
:1014C00058425841D9E70020D7E70320D5E702204A
:1014D000D3E700BF0010024000200240254B9A686D
:1014E000D96812F00C0205D00C2A15D101F00301C5
:1014F000012918D119682048090755BFD3F894105D
:101500001968C1F30321C1F3031150F8210082B31C
:101510000C2A09D000207047042A29D0082A17482D
:1015200018BF002070470020D968DA6801F0030175
:10153000C2F30212022902F1010205D0032912D0DE
:10154000D968C1F3062103E0D9680D48C1F306212B
:10155000DB68B0FBF2F0C3F34163013348435B0047
:10156000B0FBF3F07047D9680448C1F30621EFE7F8
:101570000348704700100240D839000800127A0072
:101580000024F4002DE9F743054618B9012003B003
:10159000BDE8F083A54C0368A668E768DB0606F0A3
:1015A0000C0607F003073CD51EB10C2E63D1012FAA
:1015B00061D12368980702D5AB69002BE6D0236878
:1015C000286A190756BFD4F8943023681B0903F022
:1015D000F00383423AD2FFF73FFF0028D6D12368B9
:1015E00043F00803236023682A6A23F0F0031343BF
:1015F00023606368EA6923F47F4343EA022363605C
:10160000FFF76CFFA3688A4AC3F30313D35C03F0AC
:101610001F03D840874B18600020FFF791FB00287C
:10162000B5D12B68D8075DD42B68990700F19C8051
:101630002B68180700F1D0802B68590700F1FC8057
:10164000AB6A002B40F065810020A0E7236843F0DF
:1016500008032360236823F0F003034323606368D7
:10166000EA6923F47F4343EA02236360FFF7F4FE51
:101670000028C5D08AE7AB691BB3236843F0010398
:101680002360FFF793FB804623689A0711D52368F0
:1016900043F00803236023682A6A23F0F00313430E
:1016A00023606368EA6923F47F4343EA02236360AB
:1016B000B7E7FFF77BFBA0EB08000228E4D9032083
:1016C00065E7236823F001032360FFF76FFB804683
:1016D00023689B07A5D5FFF769FBA0EB080002284C
:1016E000F6D9ECE7082E03D00C2E08D1032F06D133
:1016F00023689A0398D56B68002B95D146E76B68F1
:10170000B3F5803F10D1236843F480332360FFF7A3
:101710004DFB804623689B0386D4FFF747FBA0EB75
:1017200008006428F6D9CAE7B3F5A02F04D12368CE
:1017300043F480232360E6E7226822F480322260AB
:10174000226822F480222260002BE0D1FFF72EFBDA
:101750008046236898037FF567AFFFF727FBA0EB70
:1017600008006428F5D9AAE7042E03D00C2E10D166
:10177000022F0ED12368590503D5EB68002B3FF4E7
:1017800005AF63682A6923F0F85343EA0263636094
:101790004EE7EB687BB1236843F480732360FFF767
:1017A00005FB074623685A05EBD4FFF7FFFAC01B79
:1017B0000228F7D983E7236823F480732360FFF7B7
:1017C000F5FA074623685B057FF532AFFFF7EEFABF
:1017D000C01B0228F6D972E76B699BB1D4F894302C
:1017E00043F00103C4F89430FFF7E0FA0746D4F859
:1017F00094309A073FF520AFFFF7D8FAC01B0228B4
:10180000F5D95CE7D4F8943023F00103C4F89430A0
:10181000FFF7CCFA0746D4F894309B077FF50CAF5E
:10182000FFF7C4FAC01B0228F5D948E700100240B0
:10183000BF39000800000020A36DD80029D4A36D93
:1018400043F08053A365A36D03F080530193019B84
:101850004FF001085D4F3B68D9051DD5AB68012BE2
:101860002BD1D4F8903043F00103C4F89030FFF747
:101870009DFA41F288390746D4F890309B0742D54B
:10188000B8F1000F3FF4DCAEA36D23F08053A365E5
:10189000D6E64FF00008DDE73B6843F480733B6019
:1018A000FFF784FA81463B68DA05D7D4FFF77EFA62
:1018B000A0EB09000228F6D901E7052B06D1D4F8E0
:1018C000903043F00403C4F89030CAE7D4F8902075
:1018D00022F00102C4F89020D4F8902022F00402F3
:1018E000C4F89020002BC2D1FFF760FA41F288398A
:1018F0000746D4F890309807C2D5FFF757FAC01BB7
:101900004845F6D9DBE6FFF751FAC01B4845B3D985
:10191000D5E60C2E3FF43AAE022B236823F08073F9
:10192000236037D1FFF742FA0646236899012BD48A
:101930006A6BEB6A43EA02232A6B013A43EA021319
:10194000AA6B120943EA4243EA6B5208013A43EA9E
:1019500042532A6C5208013A43EA4263E360236827
:1019600043F080732360E36843F08073E360FFF724
:101970001DFA054623689A013FF566AEFFF716FA91
:10198000401B0228F6D99AE6FFF710FA801B0228BE
:10199000CBD994E6236813F0205F02BFE36823F0FD
:1019A0000303E360E36823F0887323F48033E36088
:1019B000FFF7FCF9054623689B017FF545AEFFF76D
:1019C000F5F9401B0228F6D979E600BF0070004007
:1019D0002DE9F0410E46044610B90120BDE8F08122
:1019E000404A136803F007038B4229D32368D907C1
:1019F00031D421688A075BD43A4A136803F007039D
:101A00009E425DD311F0040F374D64D10B0706D50C
:101A1000AB68226923F4605343EAC203AB60FFF76B
:101A20005DFDAB68314AC3F30313BDE8F041D35CFD
:101A300003F01F03D8402E4B18600020FFF780B939
:101A4000136823F007030B431360136803F00703C5
:101A50009942C2D1CAE76268234D032A2B681BD181
:101A600013F0007FB9D0AB6823F003031343AB60DE
:101A7000FFF79CF941F288380746AB68626803F0CB
:101A80000C03B3EB820FB4D0FFF790F9C01B4045B5
:101A9000F3D90320BDE8F081022A02D113F4003FFC
:101AA000E0E712B913F0020FDCE713F4806FD9E717
:101AB0000D4AA068936823F0F003034393609BE70B
:101AC000136823F0070333431360136803F007031D
:101AD0009E4282D196E7AB68E26823F4E063134349
:101AE000AB6093E70020024000100240BF390008BD
:101AF00000000020054B064A9B68C3F30223D35C19
:101B0000044A106803F01F03D840704700100240D9
:101B1000CF39000800000020054B064A9B68C3F33C
:101B2000C223D35C044A106803F01F03D8407047F7
:101B300000100240CF39000800000020B0F5006F0F
:101B40002C4B08D1D3F8882002F44002B2F5400FA4
:101B50004CD129487047B0F5805F21D1D3F8882057
:101B600002F04072B2F1407FF3D0B2F1007F16D1A3
:101B7000D86810F480303CD0D868C0F3021001302F
:101B8000B1FBF0F1D868DB68C0F3062013F4003F26
:101B900014BF112307234843B0FBF3F0704772B919
:101BA000186910F4803024D0D868C0F302100130D6
:101BB000B1FBF0F118691B69C0F30620E6E7B2F546
:101BC000800F02D0B2F1807F0ED1586910F48030BE
:101BD0000FD0D868C0F302100130B1FBF0F15869A2
:101BE0005B69C0F30620D1E700207047B2F5000F13
:101BF000BDE770470010024068FF1F00F8B5454B75
:101C0000DA6812F0030F05460E461C4600682AD01B
:101C1000DA6802F0030282423CD1002A3AD0DB6843
:101C20006A68C3F302130133934233D1236823F06C
:101C300080632360FFF7BAF8074623681A0132D49D
:101C4000AF68002E36D0012E50D12269286922F4C7
:101C5000C002400822F4FE42013842EA072242EA6A
:101C60004052226132E0022810D0032814D001280B
:101C700010D11B689F0738D5E3686A6823F07303A7
:101C8000013A184340EA0210E060CFE71B6813F402
:101C9000806FF1D10120F8BD1A689103ECD41B6864
:101CA00013F4802FF5E7FFF781F8C01B0228C4D991
:101CB0000320F8BD2169EB6821F41F3121F4407144
:101CC00041EA07211B0941EA43412161236843F0AE
:101CD00080632360FFF76AF8064623681B0113D56B
:101CE0002369AA69134323610020F8BD2369686949
:101CF00023F0C063400823F4FE43013843EA07237E
:101D000043EA40632361E1E7FFF750F8801B0228B4
:101D1000E3D9CDE700100240F8B53D4BDA6812F088
:101D2000030F05460E461C46006828D0DA6802F00C
:101D3000030282423AD1002A38D0DB686A68C3F3D2
:101D400002130133934231D1236823F0805323607F
:101D5000FFF72CF8074623689A0030D4A868002EB5
:101D600034D06369296923F0C063490823F4FE4332
:101D7000013943EA002343EA4163636132E0022808
:101D800010D0032814D0012810D11B689F0738D524
:101D9000E3686A6823F07303013A184340EA0210CB
:101DA000E060D1E71B6813F4806FF1D10120F8BD2A
:101DB0001A689103ECD41B6813F4802FF5E7FEF743
:101DC000F5FFC01B0228C6D90320F8BD6269EB6885
:101DD00022F41F3222F4407242EA00221B0942EA36
:101DE00043426261236843F080532360FEF7DEFFC5
:101DF000064623689B0005D563696A6913436361DE
:101E00000020F8BDFEF7D2FF801B0228F1D9DBE7E6
:101E1000001002402DE9F347066816F400660446F8
:101E200024D0416EB1F5800F2CD002D8C1B101266B
:101E30001CE0B1F5000F0DD0B1F5400FF7D14D4AC0
:101E4000616ED2F8883023F440030B43C2F8883027
:101E500000260BE0474AD36843F48033D360EEE7B3
:101E60000430FFF7CBFE06460028E8D02368D804EC
:101E700006D5A16EB1F1807F74D008D8A9B1012632
:101E8000354621E000212030FFF746FFEBE7B1F1B6
:101E9000007F04D0B1F1407FF1D1354609E0354AE9
:101EA000D36843F48033D360F7E7201DFFF7A6FE25
:101EB0000546002D5CD12F4AA16ED2F8883023F060
:101EC00040730B43C2F888302368990340F14F8177
:101ED000284FBB6DDA0040F176814FF00008DFF843
:101EE0009890D9F8003043F48073C9F80030FEF7B9
:101EF0005DFF8246D9F80030DB053FD5002D44D187
:101F0000D7F8903013F4407315D0D4F8842093425E
:101F100011D0D7F89030D7F8902042F48032C7F82B
:101F20009020D7F8902023F4407322F48032C7F831
:101F30009020C7F89030D80709D5FEF737FF41F257
:101F400088390546D7F89030990740F10981D7F8CC
:101F50009030D4F8842023F440731343C7F89030B2
:101F6000354612E0002104F12000FFF7D5FE9FE77F
:101F70002E46A9E70010024000700040FEF716FF51
:101F8000A0EB0A000228B5D90325B8F1000F03D051
:101F9000BB6D23F08053BB652368DA0708D59049F1
:101FA000A06BD1F8882022F003020243C1F88820F8
:101FB0009F0708D58A49E06BD1F8882022F00C02EF
:101FC0000243C1F888205E0708D58549206CD1F806
:101FD000882022F030020243C1F88820180708D573
:101FE0007F49606CD1F8882022F0C0020243C1F81A
:101FF0008820D90608D57A49A06CD1F8882022F427
:1020000040720243C1F888209A0608D57449E06CF2
:10201000D1F8882022F440620243C1F888209F054D
:1020200008D56F49E06DD1F8882022F440220243A0
:10203000C1F888205E0508D56949206ED1F888204E
:1020400022F440120243C1F88820580608D564499A
:10205000206DD1F8882022F440520243C1F8882034
:10206000190608D55E49606DD1F8882022F44042F7
:102070000243C1F88820DA0508D55949A06DD1F886
:10208000882022F440320243C1F888209B040FD5F7
:10209000534AE16ED2F8883023F040630B43B1F12C
:1020A000006FC2F8883064D1D36843F48013D360E2
:1020B00023681F030FD54A4A216FD2F8883023F0D6
:1020C00040630B43B1F1006FC2F888305CD1D36834
:1020D00043F48013D36023685E030FD5404A616FD9
:1020E000D2F8883023F040630B43B1F1006FC2F89F
:1020F000883054D1D36843F48013D36023685804E4
:1021000012D53749A26FD1F8883023F040531343DA
:10211000B2F1805FC1F888304CD10221201DFFF759
:102120006DFD002818BF05462268110408D52C490A
:10213000E06FD1F8883023F080430343C1F8883042
:10214000D30309D5264AD4F88010D2F8883023F07A
:1021500000430B43C2F88830284602B0BDE8F08740
:10216000FEF724FE401B48457FF6ECAE0CE73546F3
:1021700012E7B1F1806F9BD10121201DFFF73EFDD9
:10218000002818BF054693E7B1F1806FA3D1012164
:10219000201DFFF733FD002818BF05469BE7B1F16E
:1021A000806FABD10121201DFFF728FD002818BF4B
:1021B0000546A3E7B2F1005FB6D1022104F1200089
:1021C000FFF7AAFDADE7BB6D43F08053BB65BB6D68
:1021D00003F080530193019B4FF001087FE600BF9D
:1021E00000100240B0F5003FC74B1DD1D3F890203E
:1021F00002F44072B2F5007F00F0C681B2F5407F74
:102200000BD0B2F5807F3AD1D3F8903013F0020FA3
:102210000CBF00204FF4004070471B68BB4813F40C
:10222000003F08BF00207047DA6802F00302022A6C
:1022300027D0032A2CD0012A2FD1196811F00201CE
:102240000DD01A6811074CBF1A68D3F89420B04912
:102250004CBFC2F30312C2F3032251F82210B0F5AF
:10226000007F00F0838155D8102800F01D8129D807
:10227000022800F0E48012D8012800F0D28000206B
:1022800070471A68A34912F4806F08BF0021E6E77F
:102290001A68A14912F4003FF7E70021DFE704289C
:1022A00000F0F2800828EAD1D3F8882002F0C002BA
:1022B000402A00F0408140F2EE80802A00F0478101
:1022C000C02AA0E7402800F0388112D82028D6D1B3
:1022D000D3F8882002F44062B2F5806F00F02B81C1
:1022E00040F2D980B2F5006F00F03181B2F5406F55
:1022F00089E7802800F03081B0F5807FBFD1D3F826
:10230000882002F44032B2F5803F00F01481B2F52B
:10231000003F1BE1B0F5804F00F0D48037D8B0F516
:10232000006F4CD013D8B0F5806FA8D1D3F88820B7
:1023300002F44012B2F5801F00F0268140F2AB801B
:10234000B2F5001F00F00381B2F5401F5BE7B0F566
:10235000805F34D0B0F5005F91D1D3F8882002F0CF
:102360004062B2F1006F40D0B2F1406F29D0B2F1BB
:10237000806F84D1186810F0006081D0186910F463
:1023800080103FF47DAFDA6818691B693AE0B0F558
:10239000803F00F0CC800CD8B0F5004F7FF46FAFD9
:1023A000D3F8882012F0804278D0002A40F0CF8005
:1023B00065E7B0F5802FD0D0B0F5002FCCE7FFF760
:1023C000BDBB186810F002003FF45AAF1A6812073C
:1023D0004CBF1B68D3F894304D4A4CBFC3F3031372
:1023E000C3F3032352F823007047186810F00070FD
:1023F0003FF446AFD86810F480103FF441AFDA687C
:10240000D868DB68C2F30212C0F306200132B1FBC8
:10241000F2F14843C3F3415101314900B0FBF1F0FF
:102420007047D3F8882002F00302022A00F08F8060
:10243000032A3FF4E9AE012A7DD0FFF76DBBD3F844
:10244000882002F00C020C2A3FF619AF01A151F8C6
:1024500022F000BF9D2400087F2200087F22000890
:102460007F220008372500087F2200087F2200080D
:102470007F2200084F2500087F2200087F220008E5
:102480007F22000809220008D3F8882002F03002D9
:10249000102A50D004D8002A7FF4F1AEFFF72ABBEF
:1024A000202A54D0302AAEE6D3F8882002F44072B5
:1024B000B2F5807F3FD0EED9B2F5007F47D0B2F5BC
:1024C000407FA0E6D3F8882002F04052B2F1005FCE
:1024D00024D0B2F1405F2ED0B2F1805F7FF4CFAE56
:1024E000186910F080703FF4CBAEDA6818691B6988
:1024F000C2F30212C0F306200132B1FBF2F14843ED
:10250000C3F3416188E700BF0010024090D0030090
:10251000D83900080024F40000127A00586910F03D
:1025200080703FF4ADAEDA6858695B69E0E7D3F8D4
:102530008830002B81DAFEF7D1BFD3F8882002F46F
:102540004052B2F5805FF6D0B2F5005FA3D11B68B0
:10255000124813F4806F64E6D3F8882002F44042F6
:10256000B2F5804FE7D0B2F5004FEFE7D3F88820FF
:1025700002F44022B2F5802F06D08CD9B2F5002F9C
:10258000E5D0B2F5402F3EE6D3F8943013F0020FB9
:102590000CBF00204FF4FA40704700BF0024F40045
:1025A000026838B5D36823F0A003D3600446FEF771
:1025B000FDFB05462368DB689B0601D5002038BD7E
:1025C000FEF7F4FB401BB0F57A7FF3D9032038BD4A
:1025D00038B50368DA685206044601D5002038BDD4
:1025E0004FF0FF32DA60FEF7E1FB05462368DB6857
:1025F0005B06F3D4FEF7DAFB401BB0F57A7FF5D922
:10260000032038BD38B50446D8B190F8213003F026
:10261000FF021BB980F82020FEF7B0FA022384F8ED
:1026200021302368CA225A6253225A622046FFF799
:10263000CFFF2368054638B1FF225A62042384F88D
:1026400021300125284638BD9A68206922F4E0022D
:1026500022F040029A60626899680243A0690243CE
:102660000A439A60E2681A611A69A16842EA014263
:102670001A61DA6822F08002DA609B689B0605D452
:102680002046FFF78DFF08B12368D5E7236860690E
:10269000DA6C22F00302DA64E269D96C02430A437D
:1026A000DA64FF225A62012384F82130CAE700234A
:1026B000092803D840EA0310C0B270470A38013332
:1026C000C0B2F5E7F8B590F82030012B05464FF081
:1026D000020634D0012380F8203080F821604B7846
:1026E000C8788E780C78002A4ED1DA0603D523F00C
:1026F00010030A334B70FFF7DAFF07464878FFF7FD
:10270000D6FF02463046FFF7D2FF40EA443040EAA7
:10271000074040EA02242B68CA225A6253225A62B6
:102720002846FFF755FF2B68064650B1FF225A6234
:10273000042385F82130002385F820300126304617
:10274000F8BD24F07F4424F0C0045C60DA6822F015
:102750008002DA609B689B060CD42846FFF720FFB6
:1027600040B12B68FF225A62042385F8213085F896
:102770002060E3E72B68FF225A62012385F82130AD
:10278000002385F82030DAE71B0243EA004030439B
:1027900040EA4434BFE790F82030012B2DE9F041A6
:1027A00005460E4690464FF0020717D0036880F8A2
:1027B0002170CA22012480F820405A6253225A62B2
:1027C000FFF706FF2B68074658B1FF225A62042321
:1027D00085F82130002385F8203001273846BDE8F0
:1027E000F08130787478B1789B68B8F1000F38D1F7
:1027F0005A0658BFF770FFF75AFF02462046FFF708
:1028000056FF04460846FFF752FFF37840EA83502C
:1028100040EA024040EA04202B6800F07F3020F0BC
:10282000FE4018609A68306922F480229A60F2684B
:10283000996802430A439A60DA6822F08002DA60FB
:102840009C6814F0200418D12846FFF7A9FEA0B117
:102850002B68FF225A62042385F8213085F8204036
:10286000BBE75B064FEA042458BFF77044EA004018
:10287000F478084340EA8450CEE72B68FF225A627E
:10288000012385F82130002385F82030A6E70309CD
:1028900003EB830300F00F0000EB4300C0B270476E
:1028A000006838B503690468C3F30E038B6004F055
:1028B0007F3323F0FE43C3F30540C3F3062504F042
:1028C0007F049B0D08704D708C70CB7052B9FFF770
:1028D000DEFF08702846FFF7DAFF48702046FFF752
:1028E000D6FF8870002038BD38B503685C6824F0D6
:1028F0007F4323F0C003180CC3F3042504F03F0406
:10290000C3F34233C8704D708C700B7052B9FFF72F
:10291000BEFFC8702846FFF7BAFF48702046FFF791
:10292000B6FF8870002038BD0E4B01681A6841F66A
:102930005833B2FBF3F20B6823F4803392000B6040
:102940003AB9D0F8803043F04003C0F8803003201B
:1029500070470B6813F4803302F1FF32F0D1184650
:10296000704700BF00000020F8B5044610B90125EB
:102970002846F8BD90F87D3003F0FF021BB980F8BF
:102980007C20FEF73FF92046FFF7CEFF05460028E2
:10299000EDD1022384F87D30E368012B00F09480B0
:1029A000022B0CBF20230023A268022A00F0908093
:1029B000032A00F08B80012A0CBF4FF480660026AA
:1029C00022684A498A4203D04948824240F08380C3
:1029D00048480360E369B3B18A4202D0444B9A424B
:1029E0007BD14FF40060FFF7FDFBE3690A225B0235
:1029F0005043B0FBF3F0B0FBF2F302FB13000928E5
:102A000008BF013323626368E26B33F0020167D1D0
:102A1000012A18BF4FF40071226837481768384000
:102A2000276B10603B43676B10683B43A76B3B43CE
:102A3000676A3B4327693B4367693B430343206A1B
:102A400043EA005333430B4313605368A06A23F4F3
:102A5000604323F00F035360A36951680343E06AA6
:102A600003430B4353609168244BA06C0B4093606D
:102A7000236D91680343E06C03430B43216C0139E0
:102A80000B43616C013943EA01239360D36823F45B
:102A90007D6323F00F031B041B0CD360D168636DAF
:102AA000A06D03430B43216E43EA0143E16D0139FD
:102AB00043EA0123D36000230122C4F8803084F864
:102AC0007C3084F87D2053E710236DE743F0010349
:102AD0004FF4006674E70A487BE74FF4805082E7C2
:102AE000012A14BF00214FF4007195E704540140FE
:102AF000245401400054014010C005FF0080F8FF3D
:102B0000005801400268C169F8B50446836800694D
:102B10001568034360690343BA480B4328400343E5
:102B200013605368E06823F4405303435360B64B8B
:102B3000A0699A421CBF236A1843936823F4306348
:102B400003439360B14B9A4219D103F55843B04AFD
:102B5000D3F8883003F00303B1F5004FD35C40F0A5
:102B60003881082B00F28F80DFE813F01A01CA00C9
:102B7000F9008D0014018D008D008D003600A54BED
:102B80009A4207D103F5E633A34AD3F8883003F01D
:102B90000C03E1E7A14B9A4223D103F5E433D3F8C8
:102BA000883003F03003102B00F0F1800BD8002B9D
:102BB00000F0F380B1F5004F4FF001024FF0000339
:102BC00000F0F880A8E0202B00F0C680302BF1D177
:102BD000B1F5004F40F0B8806068430803F58033DA
:102BE000C3E08F4B9A421ED103F5E233D3F888300D
:102BF00003F0C003402B00F0BB800AD87BB9824BA6
:102C00009A4240F0CA80FEF775FF0023B0BB02462F
:102C10003AE0802B00F09D80C02B00F0B0807A4B12
:102C20009A42C7D12FE07F4B9A4211D103F5E0338E
:102C3000D3F8883003F44073B3F5807F00F09880B8
:102C4000DCD9B3F5007F00F08480B3F5407FE4E782
:102C50006D4B9A42AED103F5C833D3F8883003F4F4
:102C60004063B3F5806F00F08380C7D9B3F5006F80
:102C70006FD0B3F5406FD0E76B480223626802EB78
:102C80004201814205D90122002323666366104672
:102C9000F8BDB0EB023FF6D8082B2ED8DFE803F0E2
:102CA000052D1C2D242D2D2D2700FEF723FF6268F6
:102CB0004FF4807156080027E1FB0067002330467F
:102CC0003946FDF7D5FA0022584BA0F540719942DC
:102CD000D9D82368D860D7E7554855080023002184
:102CE000401941F10001ECE7FEF7F8FBDFE750087F
:102CF0000021002310F50000F3E701220020E3E7A4
:102D0000FEF70AFF4EE0FEF7F5FE626800EB5203A5
:102D1000B3FBF2F39BB20022A3F110004FF6EF7168
:102D20008842B0D82168CB60AEE7FEF7F5FEECE74D
:102D30006068430803F5740303F51053B3FBF0F325
:102D4000E8E7FEF7CBFBE0E76068430803F50043E4
:102D5000F4E72D4B9A428FD0B1F5004FE8D160686F
:102D6000430803F1F47303F59043B3FBF0F31FE062
:102D7000254B9A420BD1FEF7B1FB042346E7224BC9
:102D80009A427FF425AF4FF40040082376E7B1F56F
:102D9000004FD6D1FEF7A2FB04E0B1F5004FB2D14F
:102DA000FEF7A8FE61684A0802EB4003B3FBF1F3AB
:102DB0009BB20022A3F110004FF6EF7188423FF65C
:102DC00062AF23F00F012068C3F342030B43C360DB
:102DD0005AE7082B3FF657AF01A252F823F000BF85
:102DE000072D00082B2D0008312D0008872C000826
:102DF000432D0008872C0008872C0008872C00082A
:102E0000492D0008F369FFEF0080004000380140C1
:102E1000083A0008004400400C3A0008004800400E
:102E2000004C0040005000400024F400FFFC0F0064
:102E3000000024F4436ADA0710B506D50168846AF5
:102E40004A6822F4003222434A609C0706D5016892
:102E5000C46A4A6822F4803222434A60590706D580
:102E60000168046B4A6822F4802222434A601A07F0
:102E700006D50168446B4A6822F4004222434A6046
:102E8000DC0606D50168846B8A6822F480522243EE
:102E90008A60990606D50168C46B8A6822F40052DC
:102EA00022438A605A060FD50168046C4A6822F4EE
:102EB00080122243B4F5801F4A6005D14A68446CF1
:102EC00022F4C00222434A601B0606D50268816CC8
:102ED000536823F400230B43536010BD2DE9F041E8
:102EE000069D04460F46164698462168CA6937EA89
:102EF00002030CBF01220022B24202D00020BDE832
:102F0000F0816B1CF2D09DB923681A6822F4D0724C
:102F10001A609A6822F001029A60202384F87130C6
:102F200084F87230002384F870300320BDE8F0810B
:102F3000FDF73CFFA0EB08008542D6D2E4E72DE97F
:102F4000F3411F4690F87130202B04460D46904601
:102F50004AD1002946D0002A44D090F87030012B85
:102F600042D0012380F8703000234367212380F88A
:102F70007130FDF71BFFA4F850800646A4F852807C
:102F8000B4F85220009792B2334652B940212046FD
:102F9000FFF7A4FF58B9202384F8713084F870003B
:102FA00006E0002280212046FFF798FF18B1032099
:102FB00002B0BDE8F081A3682268B3F5805F0DD14F
:102FC00023695BB935F8023BC3F308031385B4F8F2
:102FD0005230013B9BB2A4F85230D1E72B781385D5
:102FE0000135F4E70120E3E70220E1E773B5044689
:102FF00000264667FDF7DAFE23681B681A070546B8
:1030000017D423681B685B070AD56FF07E430093D3
:1030100000222B464FF480012046FFF75FFFA0B946
:103020002023002084F8713084F8700084F8723016
:103030000CE06FF07E430093324603464FF40011DC
:103040002046FFF74BFF0028DBD0032002B070BD05
:1030500010B5044660B390F8713003F0FF021BB95D
:1030600080F87020FDF79AFD2268242384F87130DF
:10307000136823F0010313602046FFF743FD012886
:1030800016D0636A13B12046FFF7D4FE23685A684E
:1030900022F490425A609A6822F02A029A601A68D2
:1030A00042F0010220461A60BDE81040FFF79EBFC3
:1030B000012010BD014B1868704700BF04000020BC
:1030C00070B50D4E0D4CA41BA4100025A54209D1CE
:1030D0000B4E0C4C00F03EFCA41BA4100025A54296
:1030E00005D170BD56F8253098470135EEE756F802
:1030F000253098470135F2E7543A0008543A000861
:10310000543A0008583A000802440346934200D15A
:10311000704703F8011BF9E70EB400B59CB04FF4FB
:1031200002711DABADF81410029006906FF00041D3
:103130000A48049107914FF6FF7153F8042BADF83C
:1031400016100068019302A900F066F8029B0022A5
:103150001A701CB05DF804EB03B070470400002047
:103160002DE9F0478E689E4282460C46914698466D
:1031700035D88A8912F4906F31D0256809696F1AA1
:103180006569022305EB450595FBF3F508F101039D
:103190003B449D4238BF1D46530531D5294600F0BA
:1031A00039FB064650B90C23CAF80030A38943F016
:1031B0004003A3814FF0FF30BDE8F0873A46216914
:1031C00000F0B4FAA38923F4906343F08003A38151
:1031D000266165613E44ED1B2660A5604646464576
:1031E00028BF464632464946206800F0AAFAA3683E
:1031F0009B1BA36023681E4426600020BDE8F08767
:103200002A4600F065FB06460028E1D121695046B8
:1032100000F0B2FAC7E700002DE9F04F9DB08046FC
:1032200003938B891C060D4616460FD50B696BB9A7
:10323000402100F0EFFA2860286128B90C23C8F873
:1032400000304FF0FF30C5E040236B61002309934D
:1032500020238DF8293030238DF82A304FF0010BD0
:1032600037463C4614F8013B002B3CD1B7EB060A2D
:103270000BD05346324629464046FFF771FF0130D6
:1032800000F0A380099B534409933B78002B00F086
:103290009C8000234FF0FF3204930793059206931E
:1032A0008DF853301A93052221785048FCF790FF8F
:1032B000671C049BD8B9D90644BF20228DF853203F
:1032C0001A0744BF2B228DF8532022782A2A16D0C1
:1032D000079A00210A20274601343B78303B092B0E
:1032E00051D9C9B111E0252BC0D02746B9E73F4AD3
:1032F000801A0BFA00F0184304903C46D3E7039A77
:10330000111D12680391002A01DB079204E052426A
:1033100043F00203079204933B782E2B0ED17B7867
:103320002A2B07F1010132D1039B1A1D1B6803925E
:10333000002BB8BF4FF0FF33023705932C4C397880
:1033400003222046FCF744FF38B14023001B03FA58
:1033500000F0049B034304930137397825488DF826
:10336000281006227E1CFCF733FF002835D0224BA4
:10337000FBB9039B073323F0070308330393099B2F
:103380004B4409936CE700FB02320121A3E70023C1
:10339000059318460A240F4601313A78303A092A33
:1033A00003D9002BCAD00590C8E704FB00200123F5
:1033B000F1E703AB00932A46104B04A94046AFF354
:1033C0000080B0F1FF3F8146D9D1AB895B063FF564
:1033D00038AF09981DB0BDE8F08F03AB00932A46C3
:1033E000064B04A9404600F081F8EAE7193A0008C4
:1033F0001F3A0008233A000800000000613100086D
:103400002DE9F04791461F468A680B69DDF8208058
:103410009342B8BF1346C9F8003091F843200646DE
:103420000C4612B10133C9F800302368990642BF37
:10343000D9F800300233C9F80030256815F00605C8
:1034400007D104F1190AE368D9F800209B1A9D42BC
:1034500029DB94F843302268003318BF0123920619
:103460002ED404F1430239463046C047013021D002
:103470002368E568D9F8002003F00603042B08BF91
:10348000AD1AA36822690CBF25EAE57500259342B1
:10349000C4BF9B1AED184FF000091A344D451BD1DB
:1034A0000020BDE8F0870123524639463046C04728
:1034B000013003D14FF0FF30BDE8F0870135C2E79E
:1034C000E1185A1C302081F84300224494F845103A
:1034D00082F843100233C4E70123224639463046BE
:1034E000C0470130E6D009F10109D7E72DE9F043E3
:1034F00017460A7E85B06E2A984606460C460C9BF7
:1035000001F1430E00F0BC801AD8632A2ED00AD8ED
:10351000002A00F0C880582A00F08A8004F1420591
:1035200084F842202AE0642A01D0692AF6D1216871
:103530001A6811F0800F23D0111D1960136827E05D
:10354000732A00F0B48008D86F2A2AD0702AE5D1F7
:103550000A6842F020020A6003E0752A21D0782A26
:10356000DCD1782284F845206E4964E01A6801F1C4
:103570004205111D1960136884F842300123A3E04D
:1035800011F0400F02F104011960D7D0B2F90030F8
:10359000002B03DA2D225B4284F8432062490A2281
:1035A00017E02068196810F0800F03D0081D18601C
:1035B0000B6806E010F0400F01F104001860F7D02E
:1035C0000B8859496F2A14BF0A220822002084F868
:1035D00043006568A560002DC0F29C80206820F043
:1035E00004002060002B3FD1002D40F095807546EF
:1035F000082A0BD12368DA0708D5236962689A4242
:10360000DEBF302305F8013C05F1FF35AEEB0503C5
:103610002361CDF800803B4603AA21463046FFF7E0
:10362000EFFE013055D14FF0FF3005B0BDE8F0831B
:1036300081F845203C492268186812F0800F00F19B
:1036400004051D6001D0036802E05506FBD5038820
:10365000D00744BF42F0200222601BB9226822F04A
:10366000200222601022B1E77546B3FBF2F002FBA4
:103670001033CB5C05F8013D03460028F5D1B7E7D0
:1036800008681A68496910F0800F04D0101D18608E
:103690001368196007E010F0400F02F10400186091
:1036A0001368F6D01980002323617546B1E71A68C4
:1036B000111D19601568626800212846FCF788FD15
:1036C00008B1401B606063682361002384F84330C5
:1036D0009FE723692A4639463046C0470130A2D0C9
:1036E00023689B0707D5002504F11909E368039AAD
:1036F0009B1A9D4205DBE068039B9842B8BF1846C1
:1037000093E701234A4639463046C04701308AD004
:103710000135EBE7002BA7D10B7884F8423004F198
:10372000420565E73B3A00082A3A000810B5431EF7
:103730000A44914200D110BD11F8014B03F8014F2A
:10374000F7E7884210B501EB020303D8421E994205
:103750000CD110BD9842F9D28118D21AD34200D1AF
:1037600010BD13F8014D01F8014DF7E711F8014BB9
:1037700002F8014FEBE7000038B50546002945D0B7
:1037800051F8043C0C1F002BB8BFE41800F0D6F829
:103790001F4A1368104633B9636014602846BDE8B9
:1037A000384000F0CCB8A3420CD92168621893428B
:1037B00004BF1A685B68636004BF5218226004602B
:1037C000ECE713465A680AB1A242FAD919685818A8
:1037D000A0420BD120680144581882421960DDD103
:1037E000106852685A6001441960D7E702D90C2367
:1037F0002B60D3E7206821188A4204BF1168526801
:10380000626004BF091821605C60C7E738BD00BF73
:103810008C00002070B5CD1C25F0030508350C2D5B
:1038200038BF0C25002D064601DBA94203D90C2325
:103830003360002070BD00F081F8234A14682146EF
:1038400091B9224C23681BB9304600F067F820601C
:103850002946304600F062F8431C26D10C23336021
:10386000304600F06CF8E4E70B685B1B1AD40B2BB6
:103870000FD90B60CD50CC18304600F060F804F141
:103880000B00231D20F00700C31A1BD05A42E25040
:1038900070BD8C420DBF63684B686360136018BFD6
:1038A0000C46E9E70C464968CAE7C41C24F0030447
:1038B000A04205D0211A304600F030F80130CDD0BA
:1038C0002560D9E770BD00BF8C000020900000206B
:1038D000F8B5074614460E4621B91146BDE8F84032
:1038E000FFF798BF22B9FFF747FF25462846F8BDE6
:1038F00000F026F884420FD921463846FFF78AFFA8
:1039000005460028F2D031462246FFF70FFF314628
:103910003846FFF731FFE9E73546E7E738B5064CAB
:103920000023054608462360FCF754FE431C02D1E1
:10393000236803B12B6038BD9802002070477047A0
:1039400051F8040C0028A0F10400BCBF0B58C018AB
:1039500070470000F8B500BFF8BC08BC9E46704731
:0C396000F8B500BFF8BC08BC9E467047DC
:10396C00437A6173207274633A2025646809256474
:10397C006D092564732009202044617461207274E0
:10398C00633A25642E25642E323025640A00737543
:10399C00726F7779207274633A25642009200920AC
:1039AC00092070727A6574776F727A6F6E79202540
:1039BC00640A00000000000000000001020304067D
:1039CC00070809000000000102030400A0860100A2
:1039DC00400D0300801A060000350C0040420F0019
:1039EC0080841E0000093D0000127A000024F400BF
:1039FC0000366E010048E801006CDC02010402088C
:103A0C0000101010041010100210101008232D308C
:103A1C002B2000686C4C00656667454647003031CA
:103A2C003233343536373839414243444546003019
:103A3C003132333435363738396162636465660048
:083A4C0054C8FF7F01000000D7
:043A5400B5010008B0
:043A580091010008D0
:103A5C0000093D00080000200000000000000000EC
:103A6C00000000000000000000000000000000004A
:103A7C00000000000000000000000000000000003A
:103A8C00000000000000000000000000000000002A
:103A9C00000000000000000000000000000000001A
:103AAC00000000000000000000000000000000000A
:083ABC00000000000000000002
:040000050800058169
:00000001FF
